:020000040000FA
:100000000202DF0218034100B8002202180B22226C
:0100100022CD
:07001300021813E4FFE1BC39
:07001B0002181B75C8012249
:030023000218239D
:03002B0002182B8D
:030033000218337D
:03003B0002183B6D
:030043000218435D
:03004B0002184B4D
:030053000218533D
:03005B0002185B2D
:030063000218631D
:03006B0002186B0D
:10007300021873BB010689828A83E0225002E722B9
:10008300BBFE02E32289828A83E49322BB010CE54F
:100093008229F582E5833AF583E0225006E9258239
:1000A300F8E622BBFE06E92582F8E222E58229F57D
:1000B30082E5833AF583E49322BB010689828A832E
:1000C300F0225002F722BBFE01F322F8BB010DE53B
:1000D3008229F582E5833AF583E8F0225006E92583
:1000E30082C8F622BBFE05E92582C8F222C5F0F8D4
:1000F300A3E028F0C5F0F8E582158270021583E0CD
:1001030038F022A3F8E0C5F025F0F0E582158270FF
:10011300021583E0C838F0E822EF2BFFEE3AFEED3C
:1001230039FDEC38FC2275F008758200EF2FFFEEE5
:1001330033FECD33CDCC33CCC58233C5829BED9A10
:10014300EC99E58298400CF582EE9BFEED9AFDEC6E
:1001530099FC0FD5F0D6E4CEFBE4CDFAE4CCF9A8B4
:100163008222B800C1B90059BA002DEC8BF084CFBC
:10017300CECDFCE5F0CBF97818EF2FFFEE33FEED93
:1001830033FDEC33FCEB33FB10D703994004EB99BD
:10019300FB0FD8E5E4F9FA227818EF2FFFEE33FED0
:1001A300ED33FDEC33FCC933C910D7059BE99A4005
:1001B30007EC9BFCE99AF90FD8E0E4C9FAE4CCFB1D
:1001C3002275F010EF2FFFEE33FEED33FDCC33CC71
:1001D300C833C810D7079BEC9AE899400AED9BFDFA
:1001E300EC9AFCE899F80FD5F0DAE4CDFBE4CCFA0D
:1001F300E4C8F922EF5BFFEE5AFEED59FDEC58FC23
:1002030022EB9FF5F0EA9E42F0E99D42F0E89C451F
:10021300F022E8600FECC313FCED13FDEE13FEEFC9
:1002230013FFD8F122E8600FEFC333FFEE33FEED87
:1002330033FDEC33FCD8F122E0FCA3E0FDA3E0FEA8
:10024300A3E0FF22E0F8A3E0F9A3E0FAA3E0FB2296
:10025300ECF0A3EDF0A3EEF0A3EFF022A8828583E8
:10026300F0D083D082120276120276120276120244
:1002730076E473E493A3C583C5F0C583C8C582C878
:10028300F0A3C583C5F0C583C8C582C822E0FBA31C
:10029300E0FAA3E0F922F8E0FBA3A3E0F925F0F0EC
:1002A300E582158270021583E0FA38F022EBF0A3A1
:1002B300EAF0A3E9F022D083D082F8E493701274B9
:1002C3000193700DA3A393F8740193F5828883E4DB
:1002D300737402936860EFA3A3A380DF75812F0279
:1002E300094A9000E551B0AE071FEE60129000E896
:1002F30071031176FE9000E57103EE11BC80E822D4
:10030300E475F0018090900A12EEF0A3EFF09000F4
:100313004FE064016002619CC3900A12E0940850AC
:100323000BE4FF9153900A12918780ECE4F50DFBE7
:1003330071C5AF0C12103DE50DC39408504771C34E
:10034300E50D7F0071BDEF29F9EA3EFA9000E8510F
:10035300B07B017A0979007FFF51E5E50DFEE424C6
:10036300FFFFE43E71BD8F828E83118F9009FFF0F2
:100373007B017A0979009000FBE50DF0AD0C1210BA
:1003830063050D80B2900050513BE42FFFEE34081B
:10039300120D139000500214BC900054E0FEA3E031
:1003A300FF71BE900A12E0FDA3E09000D1CD1208C8
:1003B300D4900054EEF0A3EFF022FE902001419080
:1003C3007B007A00791012103675FF031176F5D38E
:1003D30075FF0390000171F190000271F190000329
:1003E30071F175D40175FF03E5D55402FF22118F16
:1003F300F5D375FF03229000F1E0FEA3E0FF9130F7
:1004030091539000F3513BEF2401120D109000F330
:100413005153900A18914D900A18E07002A3E070AE
:100423000BFF7E087109120F4212142822B108CD66
:1004330024FFCD34FFFCC3ED9FFFEC9E541FFE74DD
:10044300082F121416FF229000DF74FFF5F001F05D
:10045300B108541FFC74082DF58274203CF583EF1A
:10046300F0902006E0B42019A3E0B4001490200516
:10047300E02401FF902004E03400541FF0A3EFF0C8
:1004830022902006E475F00101F09000BA515390D8
:1004930000BE51B0110AF11EEF6004110F80F71274
:1004A3000F0560099000BA513B7810D1249000BA2F
:1004B300D1209000BA513BE480219000C11208C7BB
:1004C30045F0601B9000BE5190E94A600C1176FF25
:1004D300D1279000BF918780E1E4FFD12780DBF132
:1004E300B79000AF7401F0229000E3E0FF81039026
:0704F3000A1BE014F0E022F7
:10050800902006E0FCA3E0FD902005E02DFD902062
:1005180004E03C22D1C8EF541FFF12148DA37401CC
:10052800F0120F4C9000DCE0FCA3E0FDAE0478056F
:10053800CEC313CE13D8F9FF9000DFEEF0A3EFF08F
:10054800ED541FA3F0A3E4F09000F1F0A3F0C390E2
:1005580000DDE094209000DCE09400407D914A901A
:1005680000E1E0FEA3E0FF9000F1EE8FF011F090C3
:1005780000DFE07004A3E06406700AD1C89000DFD1
:10058800E48FF011F0D1C89000F1E48FF011F0126F
:100598000FFCEF600512148A8005E49000DEF090ED
:1005A80000F1121371701D91309000E3EFF0910388
:1005B80091EB91EB9000DFE07002A3E0604891EBD3
:1005C800914A80F071F971F971F99000DFE07002D9
:1005D800A3E0603271F9914A80F09000DC91878045
:1005E8000A9000DCE07002A3E0600BD1C891039090
:1005F80000DC914D80EB120FFCEF600512148A802D
:1006080005E49000DEF09000DEE06002A12C1214F8
:10061800AB71099000F3413B513B78085115E4E573
:10062800C820E2FB8FEB227F01F1BC900A1C740109
:10063800F0900A1CE06032120FF4D1BC900A1CEF53
:10064800F0120849D1AB9000ACEFF0120849900ABB
:100658001CE054011213BB60D8A3E0F460D3EF3060
:10066800E7CFE4900A1CF080C8F1E87F9FD127D13A
:10067800BC9000ADD1BA9000B2D1BA9000B3F1B538
:100688009000ABE0F4601BA3E0F460169000B2E0C9
:10069800FD541F240FA3F0EDC413540744809000A9
:1006A800B2F022F1E87FD7D1277FFFD127D1C090C0
:1006B80000ABEFF07FFFD127E5C820E2FBAFEB22CC
:1006C800900081E0B4082CA3E0B40027120F2E7B21
:1006D800017A0179009000CA120F45F161120F2EBC
:1006E800E42FFFEE3408120D13120F28E490008156
:0806F800F0A3F0900083120F43
:10070000DB9000835153900081E475F0013106FEC7
:10071000740025F0F58274013EF583E0FF227F012D
:10072000F1BC300216120FF4D1BC900A1DEFF0128A
:100730000849900A1DE020E002C202300219D1AB44
:100740009000ACEF1213BB600BA3E0F46006EF3037
:10075000E702C202120849E4FFF1BCA202E433FF3F
:10076000229000C351539000C751B0110AF11EEFFF
:100770006004110F80F7F1E47F03120F1E600990EF
:1007800000C3513B7810D1249000C3D1209000C306
:10079000120F349000CA1208C745F06011D1BC9006
:1007A00000C75190EF11BC9000C8918780E51208F6
:1007B00049E4FF8007EFF0120849E4FFEFB40104B9
:1007C00043FE202253FEDF229000ABE020E014F134
:1007D000E47F3DD1277F2AD1277F80D1277FA6D1F3
:1007E00027F1B7227F01F1BC9000B0E051B9080AAF
:1007F00004081214081715081C17082C3008313487
:10080000083636083B3700000824531AEF851A8053
:10081000802F531BEF8008531BDF8003531B7F8502
:100820001B90801D531CDF851CA08015531DFE806E
:100830000D531DEF8008531DBF8003531D7F851D81
:10084000B07F0CDFFE2212062712149FEF70FA9081
:1008500000B2E0F4600B900A1B7406F01204F27010
:10086000FB9000B0E01202B9088404088C140891CF
:100870001508961708A63008AB3408B03608B53707
:100880000000089E431A10851A80802F431B108099
:1008900008431B208003431B80851B90801D431C45
:1008A00020851CA08015431D01800D431D1080086C
:1008B000431D408003431D80851DB0900A1B740CAE
:1008C000F01204F270FB2274FFF5F0020106E0FD65
:1008D0009000D1E4F0A3EDF09000CCEEF0A3EFF0A7
:1008E000A31202B09000D111C745F060549000CE21
:1008F0001202901200769000D3F09000CF1204877D
:100900007D80ED60DF3141EE7C0030E7027C0190BC
:1009100000D3E05D7B0060027B01EB6CFCEF25E027
:10092000FFEE339000CCF0A3EFF0AF04EF600C903B
:1009300000CCE06410F0A3E06421F0EDC313FD806F
:10094000C19000CCE0FEA3E0FF2275FF03759E027C
:100950009017FAE493900A0FF075FF02E5E654034E
:100960006002618B7510DE7511AD7512BE7513EFE7
:10097000C2AF75FF0275E404F5E4751AFF751BFF3D
:10098000751CFF751DFF7516FF7517FF7518FF7530
:1009900019FF75FF0253E6BFD11A1210DAB11BEF2F
:1009A00064016002618290180893FE740193FF90C5
:1009B000007FEEF0A3EFF0F5828E83E493FE7401E6
:1009C00093FFC3EE9480500280047E807F008E14DB
:1009D0008F15B1F7FFF5828E83740293F51E7403B1
:1009E00093F51F740493F508740593F50974069341
:1009F000F50A740793F50BC201EF4E700241E4EF64
:100A0000F4FFEEF44F700241E4E514451EFEE515D7
:100A1000451FFFE5084EFEE5094FFFE50A4EFEE5DE
:100A20000B4F4E700241E4E51FF4FFE51EF4FEE5B6
:100A300015F4FDE514F44EFEED4FFFE509F4FDE578
:100A400008F44EFEEF4DFFE50BF4FDE50AF44EFE13
:100A5000EF4D4E700241E47F03718EE50B24FFFFE2
:100A6000E50A71BC640370227F02718EE50924FFE0
:100A7000FFE50871BCB402127F01718EE51F24FFEF
:100A8000FFE51E71BCB40102D2012001577F017144
:100A90008E71B59000D1E51EF0E51FF13B71A07F8E
:100AA0000271AB9000D1E508F0E509719E7F0371FA
:100AB000AB9000D1E50AF0E50B719E7F01718E903D
:100AC0000A10E0FEA3E0FF7BFF7A187900E4251509
:100AD0009000D2F0E51434E89000D1719F4EC370BD
:100AE00001D39201300109F1ACEF6401600261822F
:100AF000D20091FB7B017A007964B1D8741BF012AB
:100B00000761900064E0B4800B9153EF70061214FB
:100B100046EF6002C20030006530011AB1F7F5827D
:100B20008E83740C93FE740D93FF90007DE06E70C5
:100B300003A3E06F604890005012025F00001800AD
:100B400091FBF128F12EEF2401B110B1D27404F021
:100B5000120761900087B10A9000871214BC9000C0
:100B600081F14590004F04F012051C7440D3950CA0
:100B7000400C1203C3AF0C12103D050C80EDE4FFD6
:100B8000F186E4F510F511F512F513021800AEFF29
:100B9000EE54CFFEEFC454F024804EF5FF22A3F0B4
:100BA00011D8900A10EEF0A3EFF022718E900A1087
:100BB000E0FEA3E0FF7BFF7A80790022347F8F8202
:100BC000F583E49322900000EEF0A3EFF0A312026D
:100BD0003B900008120253900006E0FFA3E0900053
:100BE0000CCF806090000C121371605EC3EF9440D4
:100BF000EE94004006A37440F0800590000EEFF0E4
:100C0000B1FFE0FFB1D8EFF090000812023B1207ED
:100C10006190000EE0FFC390000DE09FF090000C8B
:100C2000E09400F090000812024790000EE4FCFDF2
:100C3000FE12011C900008120253914AB1FF11CE1E
:100C4000900000EEF0A3EFF0809A900000E0FEA389
:100C5000E0FF2291FBB101900006E4F07405F13B46
:100C600091F0C006C00791FBEF2407B110B10190CD
:100C70000006E4F0A37414F0D007D00691F0C0068B
:100C8000C007B107B101D10940067EFF7FFF800692
:100C900090006512023B900006EEF0A3EFF0D00743
:100CA000D00691F0D109402F91FBEF241AFFE43ECA
:100CB000FEED3401FDE43CFCB10190006512023B05
:100CC000EF2401FFE43E900006F0A3EFF0900A1637
:100CD000E0FEA3E0FF91F0900069E0FEA3E0FF904A
:100CE0000A16E06E7003A3E06F7F0060027FFF22B0
:100CF00071C5900A16EEF0A3EFF0229000A6020252
:100D00003B9000020202539000A612023BEF241B0C
:100D1000FFE43EFEE43DFDE43CFC22E49000AAF04A
:100D20007B017A007995121378900097E0FF741197
:100D3000D39F5077E4FFFEFDFC7B017A0079FE90A3
:100D400000CAF0A37402F01207619000FEE0FEA357
:100D5000E0FFE4FCFDB1CC91FBEF2402B110B1CC7B
:100D60009000B5E024FFFF9000B4E034FFFEE4FC07
:100D7000FD9000A61202471201F79000FCEEF0A3CE
:100D8000EFF09000A61202479000FCE0FEA3E0FF07
:100D9000C39000B5E09FFF9000B4E09EFEE4FCFD30
:100DA00012011CB1CC9000AA7401F09000AAE0FBE3
:100DB0006017E4FFFE7D02FC900097E024EFF9F855
:100DC00012022890008F120253AF03229000A60255
:100DD00002537B017A0079839000CAE4F0A3229148
:100DE000FBEF2401B110B1D27404F0120761B10716
:100DF000F128900081E14590007FE0FEA3E0227B96
:100E0000017A00790F90000E22E47FFF7EFFFDFC47
:100E1000900065120247D3020204E4900A1EF0908B
:100E20000A1EE0FFD3946F501EEF2410FFF198903C
:100E30000A1EE0FEE42EF582E4344FF583EFF090D5
:100E40000A1EE004F080D87B017A4F79009000D12F
:100E5000E4F0A37470F07F0F7E1D11D8EF4E7F0079
:100E600070027F01901218EFF024FF22900A09EB24
:100E7000F0900A05120253900A0512023BD1C3906A
:100E80000A09E06F603B12000A12071EEF600512AC
:100E9000000F80F5F105600B900A0512023B7810F7
:100EA000120624900A05120620900A05F134900AD1
:100EB00009E0FF1206271207B79000AF7401F0D3C4
:100EC00022C322900A0012025312000A12071EEFD8
:100ED000600512000F80F51207E47F03F11E600B1E
:100EE000900A0012023B7810120624900A001206A3
:100EF00020900A00F1341206BC900A041207B59043
:100F00000A04E0FF227F011207BCD2021207E87F29
:100F10000612062711491207E89000AEE0FF1206FC
:100F2000279000B1E06402229000870202539000F3
:100F30008702023B12023BE4020627A3F07F0F7EEA
:100F40001D22900A187408F0A3E4F022F1429000E8
:100F5000F312025F00000000E4902004F0A3F0A36D
:100F6000F0A3F07B017A2079089020011202B0E40E
:100F7000902000F0227F0F7E1D11D09000D8120229
:100F8000909000DB01CEAB07E4FF9000AAE0600781
:100F9000F1D8D16CE433FF2275FF03E4F59712100A
:100FA00021E59720E1FB75FF03AF9922E4900A1A2F
:100FB000F09000AAE0601B90008F12023BE4FBFA65
:100FC0007902F8D31202045009F1D8D1C3900A1A59
:100FD000EFF0900A1AE0FF229000A612023BEF24E5
:100FE000FFFFEE34FFFEED34FFFDEC34FFFC22E4A6
:100FF000FCFDC1C31207E87F05020627E4FFFEFDE2
:10100000FC900083120E137F0040027F012275FFC7
:10101000037597011121E59720E1FB75FF03AF9957
:101020002275FF038F9875FF0322113675FF03E5C4
:10103000D5F45402FF2275FF0375D4022275FF0315
:10104000EF543F4480F5D1E5D520E20AE5D520E014
:1010500005E5D530E1F1E5D55403FF75FF0375D5FE
:101060000580D375FF03ACD5EC20E13C75FF03EDA3
:10107000543FF5D175FF03E9F5D375FF03EA540F2B
:10108000FF9000FBE0C4547044804FF5D2E5D520BA
:10109000E205E5D530E0F6E5D55401FC75FF0343E4
:1010A000D40275FF0375D505AF042212000A12079A
:1010B0001EEF600512000F80F57F011207BCD202FF
:1010C0001207E87F061208461207E87F011206277A
:1010D0007F03120846E4FF0207BC7B017A0079B067
:1010E0007F0351E47A0079B97F0851E47A0079B638
:1010F0007D027F0951847B017A0079B47D027F0BE8
:1011000051849000B471716006BEFF16BFFF135189
:10111000F35002800451FC80099000B4E4F0A37401
:1011200040F051F3500280089000B17403F0800643
:101130009000B17402F09000B0E01202B9115904AD
:10114000116414116C15117417118A301192341135
:101150009A3611A2370000117F75FF015316EF85F3
:1011600016FD804775FF015317EF800E75FF015381
:1011700017DF800675FF0153177F8517C9802C750F
:10118000FF015318DF8518CA802175FF015319FE2E
:10119000801675FF015319EF800E75FF015319BFBB
:1011A000800675FF0153197F8519CB1208497F11FD
:1011B00051DEE4FF710612062F9000AE7402F0902B
:1011C00000B2E0247F600904701651EB740A8007B6
:1011D0001207C851EB7458F09000B17403F051FC41
:1011E0009000B3E0F4600241829000B6E0FEA3E01C
:1011F000FF64104E70069000B3740EF0EF64204E42
:1012000070069000B3740FF0EF64404E70069000CB
:10121000B37410F0EF64804E70069000B37411F058
:10122000E4B5070AEEB401069000B37412F0E4B519
:10123000070AEEB402069000B37413F0E4B5070A8F
:10124000EEB404069000B37414F0E4B5070AEEB4EB
:1012500008069000B37415F0E4B5070AEEB4100662
:101260009000B37416F0E4B5070AEEB420069000BF
:10127000B37417F0E4B5070AEEB440069000B374F7
:1012800018F001AB900A0AEFF0A3EDF0A31202B040
:10129000900A0BE06047901218E06013900A0AE091
:1012A0002410FF120F98900A0C120290EF801790F2
:1012B0000A0AE06401900A0C7007120290748080A0
:1012C0000512029074FF1200BC900A0D1204879060
:1012D0000A0BE014F0900A0AE004F080B322EF4415
:1012E00020F5FE227D0151847B01227F1051DE908A
:1012F00000AE229000B9E024FE24FD229000B474D8
:1013000001F0A3E4F022900A14EFF0E4A3F09000BF
:10131000B9E0FFB40209740F716974B9F0800CEF81
:1013200064047044743D71697479F01207E4900AA2
:1013300014E060079000B8E0FF80027FAB12062740
:10134000120849900A14E09000B8F07016900A153F
:10135000E0D39400400D7FFF120627900A15E01499
:10136000F080EAE4FF1207BC22900A15F09000B862
:1013700022E0FEA3E0FF4E229000ADE01200BC9000
:1013800000B2E09000011200CE9000B3E0900002A5
:101390000200CEAB05E4FCFD020E6C9000ED1202E3
:1013A000B0E4FCFDC0079000ED1202909000F0E068
:1013B000FF120DD8EFF0D007020761F09000ABE00C
:1013C000FFF42212000A12071EEF600512000F80C0
:1013D000F5229000AFE0FF22E49000AFF0229012DF
:1013E00018E024FF22901218E060057F10020F9889
:1013F0007FFF22902004E0FEA3E0FF24089116FD69
:10140000EF2401FFE43E541F902004F0A3EFF0A36B
:1014100012044DAF0522F58274203EF583E0229040
:101420002006E0FEA3E0FF22902000E0045403F039
:101430007F0033333354F8FEEF2408F974203EFA6A
:101440007B01A30202B0900054741DF0A3740FF04E
:10145000120DDFE490004FF012051C90006BE0FECF
:10146000A3E0FF900054E06E7003A3E06F7F006084
:10147000027FFF22EFB40109D2AD75FF0143AE40F8
:1014800022C2AD75FF0153AEBF221206C89000DC28
:10149000E4F0A3EFF022E5C85402FF75C80222E58C
:1014A000C85404FF22E5C85401FF22900A18E0FE48
:1014B000A3E0FFC3E49FFF74089EFE22120253E4E0
:1014C000FB7A08F9F890005012023B1201658F0C6C
:0114D00022F9
:1017FA000503FFFCFFFF02184E1A071A0C227FB8D6
:10180A00EF90181393901900730A20364CE557FF8E
:10181A0022EFF557221C0F1C1902544A1BCE1BE259
:10182A00FF0238EA000DFA20000DDC70000000000B
:10183A00020C00013F3F3F04040435353500000027
:10184A000002457C75819075FF03759E021219206E
:10185A000229020227D79024EAE47E019360F4A3C6
:10186A00FF543F30E509541FFEE493A360010ECFF5
:10187A0054E0B4E00EEFFAEEF9A3A3A3A3DAFDD97C
:10188A00FB80D654C025E0604B5026E493A3F8545D
:10189A0007240CC8C333C4540F4420C8834004F43B
:1018AA0056800146F6DFE480B001020408102040A9
:1018BA0080E493A3FAE493A3F8E493A3C8C582C887
:1018CA00CAC583CAF0A3C8C582C8CAC583CADFE924
:1018DA00DEE78085E493A3F8E493A34003F680014E
:1018EA00F208DFF40218635A2D5761766520352E07
:1018FA003033005677FFC0577419C0E0C082C083E6
:10190A0075570AE5FF54CF4490F5FF22C057741962
:10191A00C0E0C082C083755720E5FF54CF4490F5DC
:10192A00FF22C0577419C0E0C082C083755736E5DC
:10193A00FF54CF44A0F5FF22C0577419C0E0C082FB
:10194A00C08375574CE5FF54CF44B0F5FF22908011
:10195A00002116908801211690808821169080C750
:10196A00211690A822211690B806211690B48A2131
:10197A001690B809211690BFFF211690C7FD2116AF
:10198A0090CFE9211690D7EC211690D7EF21169027
:10199A00A7C8211690D7F2211690D014211690B11B
:1019AA0045211690A888211690AB5B211690C60394
:1019BA00211690C74C211690C773211690C7A521EE
:1019CA001690BF56211690BE2D211690B34A2116A5
:1019DA0090B2F6211690BFD5211690E0FE211690FE
:1019EA00DFB6211690E132211690B5E1211690C595
:1019FA0033211690B910211690B79F211690E1F75E
:101A0A00211690E212211690BA5D211690CEE72196
:101A1A001690DD48211690DB70211690AEB3211680
:101A2A0090E534211690E7D2211690D88821169095
:101A3A00DACE211690E7D5211690E7ED211690E827
:101A4A0006211690CFD8211690E814211690E81B8B
:101A5A00211690E863211690D7A6211690E8C32193
:101A6A001690E8D92116909943211690E8F221168A
:101A7A0090E72F211690E8FC21169085D92116901F
:101A8A008153211690DC97211690E5EB211690B32D
:101A9A00D4211690AFF0211690E9A2211690AFEC4E
:101AAA00211690D24E211690D1DA211690B4D8215F
:101ABA001690B1E4211690EB8E211690EAA9211610
:101ACA0090D610211690C141211690EBFE21169056
:101ADA00EC62211690EC9E21169099D5211690EC75
:101AEA0082211690D609211690D59F211690C353AC
:101AFA00211690C342211690C402211690ECA1210E
:101B0A001690A832211690E798211690ECB021166B
:101B1A0090ECC4211690E540211690893521169043
:101B2A0087CD211690B829211690DE95211690BEF0
:101B3A0061211690ED1A211690ED1F211690EDC025
:101B4A00211690EDCD211690818C211690CDCA21B7
:101B5A001690C946211690B2A6211690C861211680
:101B6A0090CA38211690C9BE211690EE0A21169005
:101B7A00E665211690EE21211690D715211690E6DA
:101B8A001D211690EE24211690D4F8211690E5D93D
:101B9A00211690D67B211690C541211690D6E521B3
:101BAA001690B9EB211690B8402116909C7E21160A
:101BBA0090EB2A211690EACE211690EF1F2116905B
:101BCA00A536211690EEBB211690CA4B211690CB52
:101BDA00E12116909D02211690EF7D211690EF8A41
:101BEA00211690D560211690D525211690EFB621A1
:061BFA001690EFFB21161E
:101C000090F019211690F0B4211690F06D211690E5
:101C1000F0DB211690A38021169086D1211690E446
:101C20003E211690E222211690E296211690E403BE
:101C300021169087F7211690D5A6211690E3F92159
:101C40001690AE03214290AE74214290AF8621429D
:101C500090AFDA214290B007214290B01C2142900F
:101C6000B3E4214290AC6C214290A6FD21429082C7
:101C70001A214290B471214290A714214290A606E5
:101C8000214290800B21429082D2214290B6D221F3
:101C90004290B6EA21429095A0214290B79D214200
:101CA00090B7B5214290B7F42142908187214290AC
:101CB00098C5214290B8E5214290B9BC214290B02C
:101CC00001214290B9C8214290ACAD2142908802D6
:101CD000214290BA29214290BA5F214290B98221D3
:101CE0004290BAD4214290983C214290BA44214279
:101CF00090A91A214290878E214290BAE221429007
:101D0000B62F214290BBC0214290A8AB214290AE99
:101D1000CB214290B9CB214290B8F2214290BBFD39
:101D2000214290A9522142909737214290B95B21DC
:101D30004290BB95214290B94E214290B48D2142F0
:101D400090B5BA214290B0FF214290B3C821429091
:101D5000B5D4214290BBFE214290BC68214290BD87
:101D6000492142909F9D212C909EC4212C909FA69A
:101D7000212C90A075212C90A080212C90A0952141
:101D80002C90A0A0212C90994B212C90A0C1212C0B
:101D9000909F26212C90A0CC212C90A194212C90B6
:101DA000A19F212C90A218212C90A223212C90A13C
:101DB00032212C90A22E212C90A20E212C9080005A
:101DC000212C90A284212C90A2BF212C90830D2144
:101DD0002C90A4C8212C90A4C9212C908040212CA7
:101DE000909A4A212C9097CA212C909836212C90B9
:101DF000A4EC212C909E72212C909E5C212C90981A
:101E00000F212C00E709F608DFFA8046E709F208FF
:101E1000DFFA803E88828C83E709F0A3DFFA803204
:101E2000E309F608DFFA8078E309F208DFFA807048
:101E300088828C83E309F0A3DFFA806489828A8335
:101E4000E0A3F608DFFA805889828A83E0A3F208CB
:101E5000DFFA804C80D280FA80C680D4806980F21C
:101E60008033801080A680EA809A80A880DA80E2A1
:101E700080CA803389828A83ECFAE493A3C8C5823E
:101E8000C8CCC583CCF0A3C8C582C8CCC583CCDF81
:101E9000E9DEE7800D89828A83E493A3F608DFF9FF
:101EA000ECFAA9F0EDFB2289828A83ECFAE0A3C860
:101EB000C582C8CCC583CCF0A3C8C582C8CCC583B5
:101EC000CCDFEADEE880DB89828A83E493A3F20830
:101ED000DFF980CC88F0EF60010E4E60C388F0ED32
:101EE0002402B4040050B9F582EB2402B40400507B
:101EF000AF2323458223901E5473BB010689828A37
:101F000083E0225002E722BBFE02E32289828A8319
:101F1000E49322BB010CE58229F582E5833AF5833F
:101F2000E0225006E92582F8E622BBFE06E925827A
:101F3000F8E222E58229F582E5833AF583E49322EB
:101F4000BB010989828A83F8E028F022500327F731
:101F500022BBFE05F8E328F3228A838982F8E49302
:101F60002822BB010FF8E58229F582E5833AF58343
:101F7000E028F0225009C58229F8E58226F622BB26
:101F8000FE09C58229F8E22582F222F8EA2583F5C6
:101F900083E9932822BB010689828A83F0225002BA
:101FA000F722BBFE01F322F8BB010DE58229F58281
:101FB000E5833AF583E8F0225006E92582C8F62247
:101FC000BBFE05E92582C8F222EF8DF0A4A8F0CF70
:101FD0008CF0A428CE8DF0A42EFE22BC000BBE00F7
:101FE00029EF8DF084FFADF022E4CCF875F008EF16
:101FF0002FFFEE33FEEC33FCEE9DEC984005FCEE3B
:102000009DFE0FD5F0E9E4CEFD22EDF8F5F0EE846B
:1020100020D21CFEADF075F008EF2FFFED33FD4030
:1020200007985006D5F0F222C398FD0FD5F0EA22AA
:10203000C2D5EC30E709B2D5E4C39DFDE49CFCEECB
:1020400030E715B2D5E4C39FFFE49EFE121FDBC349
:10205000E49DFDE49CFC8003121FDB30D507C3E444
:102060009FFFE49EFE22C5F0F8A3E028F0C5F0F83B
:10207000E582158270021583E038F022A3F8E0C5EE
:10208000F025F0F0E582158270021583E0C838F083
:10209000E822BB010A89828A83E0F5F0A3E022509E
:1020A0000687F009E71922BBFE07E3F5F009E319FB
:1020B0002289828A83E493F5F074019322BB01079D
:1020C00089828A83022066500B09C5F027F7C5F084
:1020D0001937F722BBFE0D09F8E325F0F3C5F01917
:1020E000E338F322F889828A8374019325F0C5F0DE
:1020F000F8E4933822BB010A89828A83F0E5F0A3D1
:10210000F0225006F709A7F01922BBFE06F3E5F00E
:1021100009F31922EF2BFFEE3AFEED39FDEC38FC06
:1021200022C3EF9BFFEE9AFEED99FDEC98FC22E8AE
:102130008FF0A4CC8BF0A42CFCE98EF0A42CFC8AAC
:10214000F0EDA42CFCEA8EF0A4CDA8F08BF0A42D29
:10215000CC3825F0FDE98FF0A42CCD35F0FCEB8ECA
:10216000F0A4FEA9F0EB8FF0A4CFC5F02ECD39FE80
:10217000E43CFCEAA42DCE35F0FDE43CFC2275F0F5
:1021800008758200EF2FFFEE33FECD33CDCC33CC7C
:10219000C58233C5829BED9AEC99E58298400CF597
:1021A00082EE9BFEED9AFDEC99FC0FD5F0D6E4CEC5
:1021B000FBE4CDFAE4CCF9A88222B800C1B90059F9
:1021C000BA002DEC8BF084CFCECDFCE5F0CBF978C6
:1021D00018EF2FFFEE33FEED33FDEC33FCEB33FB5A
:1021E00010D703994004EB99FB0FD8E5E4F9FA22E4
:1021F0007818EF2FFFEE33FEED33FDEC33FCC933DF
:10220000C910D7059BE99A4007EC9BFCE99AF90FA6
:10221000D8E0E4C9FAE4CCFB2275F010EF2FFFEE12
:1022200033FEED33FDCC33CCC833C810D7079BEC5D
:102230009AE899400AED9BFDEC9AFCE899F80FD5D5
:10224000F0DAE4CDFBE4CCFAE4C8F922EF5BFFEE70
:102250005AFEED59FDEC58FC22C3E49FFFE49EFEBC
:10226000E49DFDE49CFC22EB9FF5F0EA9E42F0E940
:102270009D42F0EC6480C864809845F022EB9FF5A5
:10228000F0EA9E42F0E99D42F0E89C45F022E860C9
:102290000FECC313FCED13FDEE13FEEF13FFD8F1AB
:1022A00022E8600FEFC333FFEE33FEED33FDEC3376
:1022B000FCD8F122BB010789828A830222F65005ED
:1022C000E9F80224AEBBFE05E9F80224BA22E0FCDC
:1022D000A3E0FDA3E0FEA3E0FF22E493FC740193DE
:1022E000FD740293FE740393FF22E0F8A3E0F9A3C8
:1022F000E0FAA3E0FB22ECF0A3EDF0A3EEF0A3EFF5
:10230000F022A8828583F0D083D082122319122371
:1023100019122319122319E473E493A3C583C5F09A
:10232000C583C8C582C8F0A3C583C5F0C583C8C529
:1023300082C822A42582F582E5F03583F58322E068
:10234000FBA3E0FAA3E0F922EBF0A3EAF0A3E9F0A3
:1023500022E493FB740193FA740293F922BB010700
:1023600089828A8302233F5005E9F80224C6BBFE16
:1023700005E9F80224D889828A83022351BB011A15
:1023800089828A83D0F0D0E0F8D0E0F9D0E0FAD0AA
:10239000E0FBE8C0E0C0F00223485016E9F8D08323
:1023A000D082D0E0F9D0E0FAD0E0FBC082C0830256
:1023B00024CFBBFE16E9F8D083D082D0E0F9D0E07C
:1023C000FAD0E0FBC082C0830224E122BB010DE50C
:1023D0008229F582E5833AF58302233F5007E925F8
:1023E00082F80224C6BBFE07E92582F80224D8E55C
:1023F0008229F582E5833AF583022351BB0120E56A
:102400008229F582E5833AF583D0F0D0E0F8D0E078
:10241000F9D0E0FAD0E0FBE8C0E0C0F00223485079
:1024200018E92582F8D083D082D0E0F9D0E0FAD044
:10243000E0FBC082C0830224CFBBFE18E92582F8EE
:10244000D083D082D0E0F9D0E0FAD0E0FBC082C0E7
:10245000830224E122D083D082F8E49370127401C5
:1024600093700DA3A393F8740193F5828883E473AA
:102470007402936860EFA3A3A380DF8A838982E458
:1024800073EC8EF0A4CCC5F0CCCDF8EFA4CEC5F0A3
:102490002DFDE43CFCE8A42EC8C5F03DFDE43CFC69
:1024A000EFA4FFE5F028FEE43DFDE43CFC22ECF661
:1024B00008EDF608EEF608EFF622ECF208EDF20869
:1024C000EEF208EFF222E6FB08E6FA08E6F922EB64
:1024D000F608EAF608E9F622E2FB08E2FA08E2F971
:1024E00022EBF208EAF208E9F2224103BD00C13210
:1024F000C1354103BC00E002020000381FE00202C7
:1025000000022FCFE00402000446524545E00102DC
:10251000001554E001020016A5E0E8022568FEFE61
:10252000FEFEFEFEFEFEFEFEFEFEFEFEFEFEFEFECB
:10253000FEFEFEFEFEFEFEFEFEFEFEFEFEFEFEFEBB
:10254000FEFEFEFEFEFEFEFEFEFEFEFEFEFEFEFEAB
:10255000FEFEFEFEFEFEFEFEFEFEFEFEFEFEFEFE9B
:10256000FEFEFEFEFEFEFEFEFEFEFEFEFEFEFEFE8B
:10257000FEFEFEFEFEFEFEFEFEFEFEFEFEFEFEFE7B
:10258000FEFEFEFEFEFEFEFEFEFEFEFEFEFEFEFE6B
:10259000FEFEFEFEFEFEFEFEFEFEFEFEFEFEFEFE5B
:1025A000FEFEFEFEFEFEFEFEFEFEFEFEFEFEFEFE4B
:1025B000FEFEFEFEFEFEFEFEFEFEFEFEFEFEFEFE3B
:1025C000FEFEFEFEFEFEFEFEFEFEFEFEFEFEFEFE2B
:1025D000FEFEFEFEFEFEFEFEFEFEFEFEFEFEFEFE1B
:1025E000FEFEFEFEFEFEFEFEFEFEFEFEFEFEFEFE0B
:1025F000FEFEFEFEFEFEFEFEFEFEFEFEFEFEFEFEFB
:10260000FEFEFEFEFEFEE001022650FFE001022675
:102610008B28E001022F9EFFE005022FCC2FCF0276
:10262000050341055A0601140041055901410557AA
:1026300001C13A011900011700412E4200412A7FD1
:1026400000412A20055D2D710000000000000000FF
:10265000000000000000000000000000000000007A
:102660000000000000C14043291700000041292854
:1026700000C111C127013800C123C124C125413146
:102680009A00C162432DDF000000412DDE00412D84
:10269000E200C136C138C141412E0600015600C1D9
:1026A00021C11F412DF800412E0500602827450556
:1026B00032000000030008FE877F88CF7FC04FFBF9
:1026C000DFFDE067008080008086000100E8730085
:1026D000800F00006000004121640041217600412C
:1026E00021670041216101412169024121620141CB
:1026F000244400C145C146412A9096412A8C0FE0EE
:1027000002022FD10033E005022FFF00330405320F
:10271000E0020230040807E0050238060807050554
:1027200032412F3DFF412F36FF412F3900412F3CD1
:1027300000C163E00202380B0013E00C02380D0008
:102740000003080003000805320503E005023819FC
:102750000013FF0532E00202381E000000C2D5E877
:1027600030E70FB2D5E4C39BFBE49AFAE499F9E4AD
:1027700098F8EC30E717B2D51227931221BAE4C3C8
:102780009BFBE49AFAE499F9E498F880031221BAE1
:1027900030D50DE4C39FFFE49EFEE49DFDE49CFC68
:1027A000227890E4F6D8FD9000007F007E10E4F0DF
:1027B000A3DFFCDEFA9031A5A3E583C3942040118A
:1027C000FEAF829020000E0FE48002F0A3DFFCDE5B
:1027D000FA12192002186022321A431A481A4D1AA6
:1027E000521A571A5C1A611A661A6B1A701A751AFD
:1027F0007A1A7F1A8E1A931A9D1AA71AF71AFC1BB7
:10280000011B061B0B1B101B151B1A1B291B331B43
:10281000471B4C1B511B601B651B9C1BA11BA61D52
:10282000631D681D6D1D721D771D7C1D811D861D1C
:102830008B1D901D951D9A1D9F1DA41DA91DAE1DCC
:10284000B31DB81DBD1DC21DC70000000000003F24
:10285000241E16110E0B09070504030201F0C8A778
:102860009177676046383532302422201400010108
:102870000202030304040505060607071CC81CD250
:102880001CD71CDC1CE11CE61CF01CFA1CFF1D1DE7
:102890001D22822D1C16131110101C5F1C8C1C9104
:1028A0001C961DF41DF91DFEE4FD7C0CAB050DEB23
:1028B0009018F1938F828E83F00FBF00010EDCEC35
:1028C0007F01228F828E83E4F0740511E574031179
:1028D000E5A3A3E4F0EF2404F582E43EF583E4F0FD
:1028E000A3742BF022A3F08F828E83A3229003C8BF
:1028F0007402F09003BCE0FF121DDB9003C8740566
:10290000F02275FF0275E404E4F5E41227A1124EEB
:10291000919003BEEFF0901200E0B47A149012147C
:10292000E0B49C0D9003BEE0FF64056004EFB403C7
:102930002EE49003C7F09003C7E0FFC394805013C8
:10294000E42FF582E43412F583E4F09003C7E00449
:10295000F080E3901200747AF0901214749CF012DC
:102960001C504003121C4B7B017A1279107D017FB1
:1029700001121C467B017A1279117D017F21121C04
:10298000467B017A1279127D017F22121C467A124F
:1029900079177F021237CC901217E0B401057F013E
:1029A000125435121C00124E91121BFB9003BEEF05
:1029B000F0121CB9121BF69003BEE0FF121DD6EFF9
:1029C00024FFB3926275FF0253E6BF1238C4121C93
:1029D0000A12300520620B11ED7B017A29793C1235
:1029E0001AAC7F01F192D2AF206202416F121C55E6
:1029F0001219B7121DD1121C4140F29003BDE060C4
:102A000041121C2DEF70051259C64036E51470FCBA
:102A1000E51520E502F1B4121971EF70FA124D6458
:102A20005005124D5050047F0171559003BDE0B424
:102A30000204E4FF80099003BDE0B403057F0112A6
:102A40004F4E121C28E51530E1A31259894002E4CB
:102A5000F0E51520E50571371243E612599FC0E0F5
:102A600071459003C0E0FDD0E0FF121CAF21ED12D4
:102A700038A19003BDE06047201A03200941121CD1
:102A80002DEF70051259C64036E51470FCE515208F
:102A9000E502F1B4121971EF70FA124D645005128B
:102AA0004D5050047F0171559003BDE0B40204E421
:102AB000FF80099003BDE0B403057F01124F4E90E3
:102AC00003BDE0600C201A09300906200203121A27
:102AD00084121C551219B7124D9F121DCC203305BC
:102AE000121C2880221219CB9003B6E0FEEFC39E81
:102AF0004005EF9EFF80089003B6E0F4042FFF74BA
:102B000006D39F5002C233E51530E12312598940A4
:102B100002E4F0E51520E50571371243E612599FEE
:102B2000C0E071459003C0E0FDD0E0FF121CAF1281
:102B30001BD31238B2416F9003BFE0FD75F0AA902D
:102B400003CB122333ED75F002A424B8F9740335D6
:102B5000F0FA7B0122903148EFF0E4A3F0902E438D
:102B6000E0FFB40209740FF15F74B9F0800CEF64F8
:102B700004703F743DF15F7479F0919A903148E0B0
:102B80006007902E42E0FF80027FAB71BCB1739072
:102B90003148E0902E42F07015903149E0D3940016
:102BA000400C7FFF71BC903149E014F080EBE4FFF2
:102BB000B165221222CE780812228EE4E5C820E206
:102BC000FB8FEB227F01B1659031827401F090316F
:102BD00082E0602EF14D914F903182EFF0B1739110
:102BE0003E902E36EFF0B173903182E05401F1EA5D
:102BF00060DCA3E0F460D7EF30E7D3E4903182F0FB
:102C000080CC919E7F9F71BC914F902E37914D90BB
:102C10002E3C914D902E3DEFF0B161902E35E0F4B9
:102C2000601BA3E0F46016902E3CE0FD541F240FBF
:102C3000A3F0EDC41354074480902E3CF022919EE3
:102C40007FD771BC7FFF71BC9153902E35EFF07F21
:102C5000FF71BCE5C820E2FBAFEB227F01B165301C
:102C60005414F14D914F903183EFF0B17390318353
:102C7000E020E002C254305417913E902E36EFF11E
:102C8000EA600BA3E0F46006EF30E702C254B173D0
:102C9000E4FFB165A254E433FF227F01B165902EB9
:102CA0003AE01224552CC1042CC9142CCE152CD377
:102CB000172CE3302CE8342CED362CF23700002CA6
:102CC000DB5334EF853480802F5335EF8008533544
:102CD000DF800353357F853590801D5336DF853681
:102CE000A080155337FE800D5337EF80085337BF50
:102CF000800353377F8537B07F0CDFFE22902EEEA6
:102D00001222F6902EF2122348F124915BEF600418
:102D1000F13380F7D1EE6402600A902EEE1222CEDB
:102D2000781071B8902EEE71B3902EEE1222CEE490
:102D30008020902EF5F1FB601D902EF212233FE9CA
:102D40004A600D121EFAFF71BC902EF3F1E380E28F
:102D5000E4FF71BC80DCB161902E397401F0227106
:102D6000BCB173E4FFEFB4010443FE202253FEDF45
:102D70002271BC12566BEF70FA902E3CE0F4600AA0
:102D80009031817406F0F16770FC902E3AE01224C5
:102D9000552DAD042DB5142DBA152DBF172DCF30DF
:102DA0002DD4342DD9362DDE3700002DC7433410F5
:102DB000853480802F4335108008433520800343BD
:102DC0003580853590801D4336208536A08015439B
:102DD0003701800D43371080084337408003433765
:102DE000808537B0903181740CF0F16770FC2290CF
:102DF000304A1222F690304A1222CED13A90304E0A
:102E0000E06F6034F124915BEF6004F13380F7D11F
:102E1000EE6402600A90304A1222CE781071B890A7
:102E2000304A71B390304AF14790304EE0FFB15FC5
:102E3000902E397401F0D322C3229030451222F62D
:102E4000F124915BEF6004F13380F7919A7F03F1F5
:102E5000036402600A9030451222CE781071B89057
:102E6000304571B3903045F147914F903049EFF0C4
:102E7000B161903049E0FF22F124915BEF6004F1F1
:102E80003380F77F01B165D254919E7F06B1719175
:102E90009E7F0171BC7F03B171E4FFA165902EF7A5
:102EA0001222F6902EFB122348F124915BEF60046E
:102EB000F13380F7919A7F03F1036402600A902E48
:102EC000F71222CE781071B8902EF771B3902EF7CA
:102ED000F147902EFEF1FB600F914F902EFB12599F
:102EE0004B902EFCF1E380EAB173E4FFA1657F0112
:102EF000B165D254919E7F0671BCB173919E902EA4
:102F000038E0FF71BC902E3BE022902E35E020E0AF
:102F100012919A7F3D71BC7F2A71BC7F8071BC7F0A
:102F2000A6B15F2275FF02E5E430E10675E406759F
:102F3000E40322E51530E20EE51520E509E515303C
:102F4000E0047F01F192221222CEE461BC919E7FC7
:102F50000561BCAB05E4FCFD90304EEBF0A1EF90B9
:102F60003149F0902E4222903181E014F0E022F1BC
:102F700024915BEF6004F13380F7229028E4E07540
:102F8000F016A424E9F9741F35F0FEAF01E4FCFD4E
:102F9000C13AEF600D7137AF82AE83E4FD1243ECAE
:102FA000800F3032037F0022121C3CF1B4E433FF67
:102FB000227F0122E51470291240125005C25312DB
:102FC0003E2B1253B67F08121DEF1247E1E5D120C8
:102FD000E0FB4315205315FEE4F510A23992EDD322
:102FE00022C322E475F001022066F0902E35E0FF46
:102FF000F422C2AFEFF45215D2AF2274FFF5F012F3
:10300000207C45F02212315E121C1E121CB4121CD0
:103010005A9003BEE06401700201CA7FFF1219A832
:103020009005DC1223487E007F15122F8DBF540EB1
:103030007E007F16122F8DBFA5047F0180027F00C6
:103040009003BCEFF0640170549005DC125AFB7AD7
:103050000579E2740231569005E2E0FEA3E0FF90AC
:1030600005DC12233F712FFAE92407F9E43AFA90BC
:1030700005DF122348E92408F9E43AFEAF017A0596
:1030800079E2F1E8F0313E9005E2E064057004A3D6
:10309000E0643260081219AD9003BCEFF09003BCFD
:1030A000E070277E007F10C006C3741F9410FE746A
:1030B000389400902FA4F0A3CEF07B007A00790022
:1030C000D0067136E4FFFE1219B2121B3D121A9897
:1030D000121A16306205755001802D12590D121901
:1030E00076D1A0FE4FFDA3E0FC4DFDA3E0FB4D60BB
:1030F0000BEE5FFFEC5FFFEB5FF47002D1549003C7
:10310000C3E065509003B7F0E4902EEDF0902EEB05
:10311000F0A3F002180775FF0275E40475E4017569
:10312000E40222E075F005A42411F9742B35F0FEB9
:10313000AF017B017A2D796C902FF87405F0902FF8
:10314000F5122348E4FCFDC007902FF5F1DA125A7E
:1031500001D007022E9D7B01902FF8F080E07B01CB
:103160007A2E793A7D017F03121C467A2E79437FAD
:1031700008F1CC7A2E79407F0971157A2E793E7F3D
:103180000B7115902E3ED1256006BEFF16BFFF13B2
:10319000711C5002800471258009902E3EE4F0A33A
:1031A0007440F0711C50028008902E3B7403F08034
:1031B00006902E3B7402F0902E3AE012245531DA3C
:1031C0000431E51431ED1531F517320B303213347B
:1031D000321B363223370000320075FF015330EFC7
:1031E0008530FD804775FF015331EF800E75FF017B
:1031F0005331DF800675FF0153317F8531C9802C43
:1032000075FF015332DF8532CA802175FF015333C8
:10321000FE801675FF015333EF800E75FF015333A7
:10322000BF800675FF0153337F8533CB122D737F2B
:10323000117107E4FF122B55122BC4902E38740223
:10324000F0902E3CE0247F6009047016710D740A22
:103250008007122F0A710D7458F0902E3B7403F002
:103260007125902E3DE0F460026104902E40E0FE56
:10327000A3E0FF64104E7006902E3D740EF0EF64D4
:10328000204E7006902E3D740FF0EF64404E700695
:10329000902E3D7410F0EF64804E7006902E3D74B9
:1032A00011F0E4B5070AEEB40106902E3D7412F059
:1032B000E4B5070AEEB40206902E3D7413F0E4B5AF
:1032C000070AEEB40406902E3D7414F0E4B5070A24
:1032D000EEB40806902E3D7415F0E4B5070AEEB47E
:1032E0001006902E3D7416F0E4B5070AEEB42006E1
:1032F000902E3D7417F0E4B5070AEEB44006902E08
:103300003D7418F0022E78EF4420F5FE227F1071F4
:1033100007902E38227B017D02021C46902E43E04E
:1033200024FE24FD22902E3E7401F0A3E4F022C37B
:10333000E99FF9EA9E22714074FFFDFC227405F0BA
:10334000902FA1122348E4FCFDC007902FA1122367
:103350003F902FA4125972D007902E531222F6904C
:103360002E57122348902E531222CE902E3FE02447
:10337000FFFD902E3EE034FF5EFEED5FFF902E5C81
:10338000EEF0A3EFF04E6067902E5C1259B3902ED2
:103390005CF0A3EFF0902E5AE0FCA3E0FDD39FEC8D
:1033A0009E5006A3ECF0A3EDF09194D109F0602EAD
:1033B000B13D1222EA122114C004C005C006C007A4
:1033C0009194E94A6005B130FF80027F007E009150
:1033D00094D13ED007D006D005D004122CFD916DBB
:1033E000E94A6005D12CFF80777E007F00807190D4
:1033F0002E5AD1256075902E3EE0FCA3E0FDD3EF60
:103400009DEE9C400A902E5CECF0A3EDF0800D90B8
:103410002E5AE0FFA3E0A3CFF0A3EFF09194D109DF
:10342000F0602EB13D1222EA122114C004C005C082
:1034300006C0079194E94A6005B130FF80027F0021
:103440007E009194D13ED007D006D005D004122C36
:10345000FD916DE94A6005D12CFF80047E007F005C
:10346000902E58EE8FF01220668084D322902E5C2E
:10347000E0FEA3E0FFC3902E5BE09FF0902E5AE0A9
:103480009EF0902E531222EAE4FCFD122114902E9D
:10349000531222F6902E5702233FEFF4045FFFE40D
:1034A000FEEF70037FFF22EFD3940F4009EFC45467
:1034B0000FFFEE4404FEEFD39403400AEF131354BE
:1034C0003FFFEE4402FEEF30E1010EAF0622AB07F4
:1034D000AA06EB241FFFE43AFEEF7805CEC313CE15
:1034E00013D8F9F9EB541F903184F0AF05B135FCD6
:1034F000AF05919FAE01EE14C39FC43354E0F9AF02
:1035000004C3EB9FFFEA9400FEE9FDC3EF9DFFEECD
:103510009400FEED600FE0FD6007C374209DFD8008
:10352000067D0080027D007C00EF2DFFEC3EFE2238
:10353000902E60E0FF919AEFC43354E022902E5C0D
:10354000E0FEA3E0FF902E60E0FD91CE902E5EEEB7
:10355000F0A3EFF0A3E0FF919AEF75F020A4FFAE87
:10356000F0E4FCFD902E5322D134122348E4902E37
:1035700078F0A304F0902E75D1257002C103D3EF2B
:103580009420EE940040047F208006902E75A3E0E6
:10359000FF902E77EFF0902E7212233F902E77E05F
:1035A000FF902D43E4F0A3EFF0902E6E1222CED1C7
:1035B000A8400E902E78E0FFA3E0FEEF4E902E780C
:1035C000F0902E77E0FFC3902E76E09FF0902E755E
:1035D000E09400F0902E6E1222EA902E77F1E1D165
:1035E0003412233FE94A6007902E77E0FF80027F84
:1035F00000902E73E48FF0122066902E79E025E083
:10360000F0A175902E78E0FF22902E5CE0FFA3E001
:10361000902E75CFF0A3EFF0902E531222CEB1680A
:10362000902E60EF22E0FEA3E0FF4E22902E5CE0A1
:10363000FEA3E022902E6E1222F6902E7222E92F27
:10364000F9EE3AFA902E5EE0FFA3E0902EF5CFF06F
:10365000A3EFF022E4FF122F92EF6037D194123BD8
:10366000025005125B4A40F47B017A0379C3123B96
:1036700002500ED1A05FFFA3E05FFFA3E05FF46004
:10368000E77F01122F927550017E007F08D194F1DF
:10369000D3D19B227B017A0379C1227404F061406B
:1036A0009003C1E0FFA3E022902D3C1222F6902D62
:1036B00040122348E4902D65F0D3902D44E09420EF
:1036C000902D43E094004001227B017A2D794590B2
:1036D0002D43125A0C902D3C1222CE122E9D902D6D
:1036E0004012233FE94A600B902D65E0F582F124FA
:1036F000FF80027F00902D65E02445F582E4342DA3
:10370000F583E06F6002C322902D65E004FFF0D3E3
:10371000902D44E09F902D43E0940050C12212234D
:103720003F1E8E82758300021F13903035F19DE598
:103730008F20E0FBF1A4E4FF90303512233F8F820D
:10374000F124F5930FEFB410EFE4FF90303812231B
:103750003F8F82F124F5940FEFB410EF22902F48A1
:10376000F19DE58F20E0FBF1A47E10902F4BF11E20
:10377000F593EE70F67E10902F48F11EF594EE70E2
:10378000F67F01F1B41258EBEF70FA7E10902F4ED5
:1037900012233F1E8E821258B9EE70F12212234876
:1037A00075FF012275FF01538F0675FF01538FF0DE
:1037B00075FF0122EFB401081258C84401F58F22A9
:1037C00075FF01E58F54F04406F58F227B017D01E2
:1037D000021C46902FA4E4F0A32212233F902FF85E
:1037E00022E4FCFDFE0221147B01902FF8740222DA
:1037F00075FF0275E404E4F5E422A24792322290B8
:103800000643EDF0900642EFF0BF0411A3E0FB7D0C
:10381000017F01113F9006427403F0800B90064334
:10382000E0FB7D01E4FF113F900642E09003BDF014
:10383000D2091219CB9003C9EEF0A3EFF0D322EB1B
:10384000600875FF0153CDFD800675FF0143CD0271
:10385000ED600553FBDF800343FB20EF600775FF3E
:103860000243E1402275FF0253E1BF229003C5E00D
:10387000FCA3E04C70059003C580BDC32275FF0218
:103880008FE322A2489235229003B7E064AA241164
:10389000FFF022AE071188EE04FEEF8EF084AFF049
:1038A0002230340D121A3EEF6007C25B121A2AC290
:1038B00034229003C51236256009CAEECAC9EFC981
:1038C00012247B2275FF02D2ADD2BD75FF02758E28
:1038D0007175510975FF02E58E546F4480F58E9025
:1038E00030721223020000000022C0E0C0F0C0834A
:1038F000C082C0D075D008C0FF75FF02E58E30E4ED
:103900003A75FF02E58E54EF4410F58E9030721236
:1039100022CE3174FC9030721222F6900000122FE9
:10392000E3E55130E0020539E551700D75510905A7
:103930004DE54D7002054C8002155175FF02E5857D
:1039400030E40875FF024385100555D0FFD0D0D074
:1039500082D083D0F0D0E032FF7E04FDFCE0F8A3FB
:10396000E0F9A3E0FAA3E0FB12212FE47B7DFAF952
:10397000F81221BAEF2401FFE43EFEE43DFDE43CF1
:1039800022902DAB1222F675FF0243E1801253B64E
:10399000F1CB902DC0122302002DC6C0E4F5FFF537
:1039A000A490120EF0A3F0902DBB7402F0125B6A8B
:1039B000FFF595EF14601314601C24027027902DFE
:1039C000AB51F7D105902DB78016902DAF51F7D19F
:1039D00005902DB8800A902DB351F7D105902DB9DF
:1039E000E0902DC4F01253A9902DC4E0700FF5FFA4
:1039F000F59675FF0175D70975F418805A90120E67
:103A0000E004F0902DBBE0125B62902DC051F7FFF7
:103A1000902DBCF1EDC312227D500A902DBC51F7C0
:103A2000FFA31222F6902DC4E0FF12522A902DBA65
:103A3000E0FFA3E0FDA251924F125357A351F7FFAD
:103A40009030411222F6902DBBE0FFB15F902DBB6C
:103A5000E051EAFF124FC6125ADA600221AD740239
:103A6000F0125B6AF595E5F45407701A902DC03199
:103A700058B1FF902DBBE0FBB1F3F5831222F6EBBA
:103A800051EAFF124FC6125ADA70D675FF037595C8
:103A900080125B5A400343F420A251925012528983
:103AA000902DC051F72420FFEE344E317AFCE4FB18
:103AB0007A04F9F83168B1FFC24E12501EE4F5FFE6
:103AC000E5BD54F84404F5BD9012137401F07E1264
:103AD0007F01E4FD8F828E83EF2D125B52FC9012EA
:103AE00013E02CF00DEDB412EB2225E025E02401CB
:103AF000F582E43412F583E0FCA3E0FDA3E0FEA32D
:103B0000E022902E92124FBD902E981223020000B8
:103B10000001902E9C7401F0F5FFE5D554C07005AE
:103B200012401A5002C322E4F5FF53967F75FF013D
:103B300075D5047F3FFED1CF75FF0143D508E4F56D
:103B4000FF5394FBF5FF53847FF5FF7598FF902E8C
:103B500096E5F4F075F49C75FF01A3E5E4F075E4D7
:103B6000257B017A2E799C124F8A902E9CE064016D
:103B700060028130F5FF902E957414F0902E9851CC
:103B8000F7FF78011222A1902E981222F6E5A730B5
:103B9000E1FB43A702902E9851F7FFE5A730E0051F
:103BA000E47B018002E4FBFAF9F8EF4BFFEE4AFEFA
:103BB000ED49FDEC48FC902E981222F6902E95E0EF
:103BC00014F070B8902E9851F7FF781012228E7B67
:103BD0006D7A4E79C6784112212FEF2439FFEE34E9
:103BE00030317AFCE4FBFA7901F81221BAEE547F05
:103BF000FEE4FDFC124AE8902E9851F7FFEB6FFFB0
:103C0000EA6EFEE8CDEFCDCCEECCECFF902E92121A
:103C10004550EF121F95902E92124550900001EDE5
:103C2000121FA790120FE030E606E4F5FF759680AC
:103C300075FF01E4F5D5902E96E0F5F475FF01A32C
:103C4000E0F5E4125278902E9CE0B40103D3800199
:103C5000C322902F981251B3EBF0902F9E7401F075
:103C6000C252D11ED1135005E5FC20E6F7D19DBF0D
:103C70000108E4F5FC75FC408007D19DBF0202D32A
:103C80002275FF0153D8EF902F99E0FF1253D3759F
:103C9000FF0153D5DF53FAFB902F98E0FF124472D7
:103CA000902F99E0902F98B4080AE051EA245231FD
:103CB00077FC8004E051EAFF124FC6902F9AE0FF94
:103CC00012542175FF0175FF03759B04D11E75FC0D
:103CD00042E5FC20E104D11340F4902F9BE0F07505
:103CE000FF03E59B20E704D11340F4E59B20E70D9B
:103CF00075FF03759B1F1253B6D252804FD10C1221
:103D00004F8A902F99E0FD90120FE05D701C902F6C
:103D100098E0FFD10C1248C490120FE0FF902F9949
:103D2000E0FEEF4E90120FF051C81250027B017A64
:103D30002F799C124F6C500FC3902F9DE0942090D0
:103D40002F9CE0940340E6D10C1251D2D1D33052D3
:103D500002815A902F9EE0B40103D38001C32290C8
:103D60003040EFF0E4A33158B1FF903040E0FBB1B8
:103D7000F3F5831222F6901210E064806074E0C3C1
:103D8000947F503AEBB1F3F583C083C08251F7FFC3
:103D9000EEC0E0EFC0E0901210E075F004A4AEF0C9
:103DA000FBCAEECAEA3395E0F9F8D0E0FFD0E0FEB6
:103DB000C3EF9BFFEE9AFEED99FDEC98802C9030BE
:103DC00040E0B1F3F583C083C082F1ED901210E0C2
:103DD000F40475F004A4FFAEF0EE3395E0FDFCEBC7
:103DE0002FFFEA3EFEE93DFDE83CFCD082D0831285
:103DF00022F62225E025E02401F582E4341222FC9B
:103E0000780102228EFF902DBC0222F67B017A2FD0
:103E1000799E2275FF03E591C330E701D3227FE845
:103E20007E03D16F75FF0343918022903180E5F4CA
:103E3000F0E0547FF5F47F827E00D16FD124D1135E
:103E40005005E5FC20E6F7305308903180E04480CF
:103E5000F5F4D11ED1135005E5FC20E6F775FF01FE
:103E6000E5D520E702C322E5F4D330E601C3229072
:103E70003076125AE37A307978124F6C50149030C1
:103E800078E0FEA3E0FF903077E09F903076E09EF0
:103E9000400A903076E0FEA3E0FFD1DC227FFA7E7C
:103EA00000D1DCD124E5FC30E604D11340F7E5FC79
:103EB00030E6037F032275FF01E5D530E6037F027C
:103EC00022E5D57F0030E7027F01227F147E00D1FA
:103ED000DCD12475FF03E59120E7FB2275FF03D3B6
:103EE000EF9402EE9400400874FE2FFF74FF3EFE34
:103EF000EFF592EE540FF59122E490307EF0A3049A
:103F0000F0E4903081F0E5FA30E1FB75FF01E5D592
:103F100030E7037F0022E4F5FF75E50875FF0153E4
:103F2000D8EFE5D530E61A75FF01903080E5DAF07C
:103F3000E4F5DA75FF01E5D630E3FB9030817401DA
:103F4000F075FF03759B0475FC4175FF03E59B301D
:103F5000E7FBE4FB75FF038B95EB51EAFF124FC6BD
:103F60000BEBB403EF75FF03759580E4F5FF758ED9
:103F7000C812500275FF0153D5FBF1E6D1CB75FF96
:103F80000143D504903081E07006F1E67FC8D1CDC1
:103F90007B017A30797F1251D290307FE090307E71
:103FA0007006E04404FF8002E0FF90307EEFF09066
:103FB000120EE0B4010675FF0143D81075FF0190A1
:103FC0003080E0F5DA90307EE0FF22125AA553DB14
:103FD0007F75FF0175D502D1CB125AA543DB8075E1
:103FE000FF01E4F5D52275FF03E4F59122E0F8A383
:103FF000E0F9A3E0FAA3E0FB22E4900578F0900555
:104000006A04F02212401A5007125427500280010D
:10401000C322C2EBA2ED9239C2EDE5F4C330E70151
:10402000D32290060B122348D24AC2EBE514600259
:104030004195E51530E202C322519D24E5124B67FC
:10404000124CE451A57137FF900559F0124AF590D2
:10405000060EEFF0E51520E06F111A40057F011202
:104060002F9290060EE0FF7B017A06790F918EE485
:10407000337004D2EB417490060EE02433125B1BC4
:10408000E0FF90060FE0D39F403ED2EB124C36A2E9
:104090003992ED90056AE06014519D24E5F9E43A07
:1040A000FA7401121F9543150471D8D32290057834
:1040B000E070137A0579787C3F7DF97464125A7246
:1040C000E4A3F01219DAC322111A5005C253123EAA
:1040D0002BF1E1E5D120E0FBE4F51051A57137C3E8
:1040E0009403E494005035519D71BD121EFAFF51A6
:1040F0009D51F7121EFA2FFFE433FED3EF9440EEEA
:10410000648094804016519D24E5F9E43AFA7402E3
:10411000121F95431504A23992EDD322519D240814
:10412000F9E43ACFE9CFF5118F12519D71BD121EFE
:10413000FAF516AE1112560F519D24B2F9E43A8BDE
:104140001CF51D891E519D51F7121EFAF51F51A530
:10415000FA122092FDACF054606037519D24D9F9D9
:10416000E43AFA121EFAFF124BFAC24A51E2121E48
:10417000FAFB7A00900579125B137D18121FC9EFC4
:104180002BFFEA3EFEEF2414FBE43EFA7D027F01A2
:10419000416351A57137900559F0751408519D245C
:1041A000B2F9E43AFA125603519D51F7121EFAFF82
:1041B000AD16F1ED900559E0640370227B01FD51CD
:1041C000B2713E50057401121F40E4F5FFF1D812A0
:1041D0001EFA2428FBE433FA7D03E4FF41639005D3
:1041E00059E06402702951B5713E400574FF121FF9
:1041F00040E4F5FFE5D25480440AF5D2121EFA24B9
:1042000014FBE433FA7D027F01714B51FE8056E4CA
:10421000FB7D0151B2713E400574FF121F40E4F571
:10422000FF51A571C47F0560027F0AEF547FFFE54F
:10423000D254804FF5D2E4F5FF43D28051E2121EF2
:10424000FAFD7C0051A571C47E0060047F0A8002E3
:104250007F05EF25E0FFEE33FEEF2DFBEE3CFA7D10
:10426000017F01714B51A5FA125A79A24A92491263
:104270004A544006A23992EDC32271D890060EE04E
:10428000FF519D24E7F9E43AFAEF121F95A2399203
:10429000EDD2EBD322A23992EDD2EBC32290060BE2
:1042A00012233FE92290060B12233FE92404F9E48C
:1042B0003A22FF710390060B12233FE924B1F9E47F
:1042C0003AFA121EFAFF90060B12233FE924D8F99E
:1042D000E43AFA121EFA2FFFE433FEEF2401FFE462
:1042E0003EFE90060B12233FE924B2F9E43AFAE9C4
:1042F0002407F9E43AFA2224D8F9E43AFA22E4FB52
:104300007D01FFE4F5FF75D102E5D120E0FBE4F586
:10431000FFF5D1EF6008E4F5FF43D2808006E4F5B5
:10432000FF53D27FEB6006E4F5FF43D104ED600656
:10433000E4F5FF43D10822FA122092540722121EFC
:10434000FAD39FEE6480F874809822900636EFF0DE
:10435000ED24FE60191460262402703BEB2402FF5A
:10436000E43AFE7C007D50121FC97D60801E71CD35
:10437000C333CE33CED8F9FF7C007D28800E71CDBB
:10438000C333CE33CED8F9FF7C007D64121FDB909F
:104390000637EEF0A3EFF0900636E0124CD6C0835D
:1043A000C0821222EA900638E02401FF900637E02E
:1043B0003400FE125A62D082D0830222F624B1F970
:1043C000E43AFA22FA122092441045F022EB24013A
:1043D000FFE43AFEEF780322E490056AF07B017A6D
:1043E0000579780219D5AF82AE837D019005F9EE8B
:1043F000F0A312596CE514707811125005C25312D3
:104400003E2B9005F9E0FEA3E08E11F512A31223D6
:104410003F90055B122348AE11AF127DAA1255D909
:10442000E4F5FF75D908F510E5155421602BE51565
:1044300030E504E4FF9172E49005FEF09005FEE0A3
:1044400004F0123EF9EF60099005FEE0C3941040BD
:10445000EB7F02121DEF5315DE900557E07F00B48D
:1044600003027F01F1C1D253123E2BD2EBA239924B
:10447000ED2275FF01E5D530E602C322E4F5FF43E6
:104480009A80EF125B62E4F5FF539A7FD32290305B
:1044900086EFF0A3124FBD75FF01123E9DEF640140
:1044A0006002C322E5F430E602C3227FE87E0312F5
:1044B0003EDC123E24B165400122C253123E2B90D5
:1044C0003086E0FF917253F4DFD253123E2B7F7897
:1044D0007E00B10D75FF0153E4BFE5E430E7FB1248
:1044E0004E4A7F8AF1D030E605B14DE4800775FF72
:1044F00001B14DE5D9121F9575FF0143E440125BF0
:104500005A400343F420B165400122D322CDEFCDC0
:10451000CCEECCB159AB94EF4B124F82CBEFCBFA30
:10452000E59130E719B15CA994E9F582EF4582FF86
:10453000EB125B03C3EF9582E5F0958340E2E591D2
:1045400020E709CEECCECFEDCF123ECF22903087C0
:10455000E0FBA3E0FAA3E0F92275FF03AF93EF7548
:10456000F010A4FF22E5F730E510E5F754C0700520
:10457000123E1340F0123FE6C322D322C0E0C0F047
:10458000C083C082C0D075D008C0FF75FF01E5D5DB
:1045900030E6047F028009E5D57F0030E7027F0125
:1045A0008F18E51864026002C154E51412245545C1
:1045B000C80145DB0246400845E60945F10A45FFCA
:1045C0000B461D0C000047A675FF0175C355151A53
:1045D000E51A6002E1A6751402E1A675FF0175C334
:1045E000F0751409E1A675FF0175C35575140AE14C
:1045F000A675FF0190056BE0F5C375140BE1A67578
:10460000FF01900558E0F5C3751401751A14900563
:104610007912597F6002E1A675140CE1A6AB1CAAC1
:104620001DA91E125603AD16AF1FF1ED51FE75FF09
:1046300000F1D843FA0475FF00F1C9751408E1A62A
:10464000C2EB751400431504124C284002E1A61277
:104650002FE3E1A6E51864016002E1A612542E40A2
:1046600002E1A6E510706D125A3F12233FE5D91200
:104670001F95125A33E090064CF01253FD124BE690
:10468000900557EFF090064CE0FFD394095002E1FB
:1046900026900557E0D39402400CEFD394AA7F00F4
:1046A00040027F01800D90064CE0D394407F004093
:1046B000027F01EF6002806E90064CE0F516124E0C
:1046C00054901215EFF075FF0090064CE0F5D97587
:1046D0001003E1A6E51064036002E1A6125A3F123E
:1046E0004B5CE5D9121F9575FF00900557E0C39408
:1046F00003E5D350055402FF80035401FFEF602B04
:1047000030E111C3900565E094FF900564E094FFEB
:104710005014800FC3900567E094FF900566E09405
:10472000FF5003122FE3124BAE807BC253123E2B7D
:1047300075FF00F1E4E5D120E0FBC2EB431502F187
:10474000BAA3E0FF9003C2E0FEEF6EF1B9E0900380
:10475000C1F1B3A3A3E09003C3F1B3A3A3A3E0FE0D
:104760009003C4E0FDEE6D4F6012C3900569E094C4
:10477000FF900568E094FF5003122FE3C390056398
:10478000E094FF900562E094FF5003122FE3751050
:1047900000900557E0B403081516125A33E516F0D9
:1047A0009003C0E516F0D0FFD0D0D082D083D0F0F7
:1047B000D0E032FEE0FDEE6D4FFF85128285118361
:1047C00022917243FA04E4F5FF53D1FD43D1012253
:1047D000FEB10D90120FE022E5D254804414F5D2C0
:1047E00022E4F5FFE5D154FE4402F5D122E4F5FFC1
:1047F0008FD4F5FFCFEDCF8FD522AF14EFC360017B
:10480000D322EFC3940E500590055AEFF022E5171E
:10481000540FFF22E517C394F0501F5317F0113DBA
:10482000FE740FC39F4005EE940E400543170D80A4
:1048300003EF4217E517540FFF227F0022E517C44C
:10484000540FFEEF90286D932E22113DFFC3940E5E
:1048500040027F0DEF90284F93FF22EF30E303AF2C
:104860001322AD1B203A04EE30E00BE517C394F0A1
:10487000502011958018E5196006FDE4F5198012A5
:10488000E517C394F0500BE517540FFF6004114A6D
:10489000AD07AF052290055AE0FDFFC3740E11BDB0
:1048A000EFC4F8540FC868FFEEC454F048FEE51793
:1048B00054F0C31243427F005002AF05229FFFE431
:1048C0009400FE22903082EDF0901211E0F4600529
:1048D000A3E0B4FF0C9030847418F0A37413F0803C
:1048E00010901211E0903084F0901212E090308518
:1048F000F0121EFA64016002412E903082E0FE64E4
:10490000086004EEB404089030837428F0800690A8
:104910003083743AF0EF123AEAFF122259E4512F31
:10492000EF24D8FFEE343FFEED3493FDEC3416FC5B
:104930007B007A807903780012275D51E8903085FA
:10494000E0FF903084E0C311BDE4FCFD12212FECA8
:10495000C0E0EDC0E0EEC0E0EFC0E0903085E0FFE9
:10496000E4FCFDFE512FD0E0FBD0E0FAD0E0F9D01E
:10497000E0F8EB2FFBEA3EFAE93DF9E83CF890302D
:1049800083E0FFE4FCFDFE12212FEF2454FFEE3400
:104990000B12397AFCE47BA87A16F9F812275DCB62
:1049A000EFCB903082E014605D14601B24FE600C3D
:1049B00024FC707AE4F5FF75CE318006E4F5FF75CE
:1049C000CE21F5FF8BCF22E4FAE4F5FFEA2440F58F
:1049D000CEE4F5FFEAFFC3740711BD74922FF58290
:1049E00074283EF583E45137C39DF5CFE4F5FFEA23
:1049F0002448F5CEE4F5FFEA90289251372DF5CF03
:104A00000AEAB408C422E4F5FF75CE01F5FF8BCFA6
:104A1000F5FF75CE0EF5FFEB25E0F5CFE4F5FF755C
:104A2000CE0FF5FFCFEBCFEB75F003A4F5CF227BD4
:104A300064FAF9F802212F9325E0FDE433FCEB75CD
:104A4000F010A4FFAEF0121FDBCDEFCDEBFFE4C3FF
:104A500013EF13224315015315DF115B51954004E9
:104A6000E4F5142243FA045315FB3049051247C6F6
:104A7000800A7F55517E7F55517ED2EBD32275FF40
:104A800001E5D520E602C322E5FA540360FA75FF7A
:104A9000018FC3D322900634EFF0900559E0FF5107
:104AA000F5900635EFF0900559E024FD6013047091
:104AB000089006337404F0800E9006337408F0807A
:104AC000069006337402F07F01121DEF900635E068
:104AD00090063351E1E4902F9BF0123C5250EDD3FD
:104AE00022FFE0FDA3E0FB22C8ECC8C9EDC9CAEE75
:104AF000CACBEFCB22EF24FD600680007E0180024E
:104B0000E4FEAF06229003C8E0B4020D8F1B9005AF
:104B1000F6E0F513121C05D322C3229006301223AF
:104B20004890063012233FE51B7155715C71541299
:104B3000233FE92402716790063012233FE92403E2
:104B4000F9E43AFAE51371551242A8FA7154716FFB
:104B5000E4021F95E4121F959006302212233FE9CC
:104B60002401F9E43AFA22F9E43AFAE4021F951230
:104B7000233FE92405F9E43AFA22E51754F0C45436
:104B80000F2FFFC3941040027F0FEF90285D93FF1B
:104B9000227E10EE60091EEE90285D93B507F4EEBC
:104BA000C3940E40027E0DEE90284F93FF22C25315
:104BB000123E2B1247E1E5D120E0FBE4F5FF75D969
:104BC00008900557E07F00B403027F011247C1D26D
:104BD00053123E2BE4F51022E4F514022FB4C2AFB9
:104BE000EF4215D2AF22EF24FE600C24FE60058058
:104BF000007F01227F02227F0322751401751A13A0
:104C000090056BEFF09005597402F0ED9005793046
:104C1000E507E4F0A3743AF022E4F0A374E6F0228E
:104C200091285003122FE322C390055FE094FF9078
:104C3000055EE094FF22C3900561E094FF9005605B
:104C4000E094FF5003122FE322900579E0A3E0FFE8
:104C500022900610122348900613EDF0E4A3F0ED25
:104C600054FE900613F0602BE4FF122F92BF012335
:104C700090061012233F123B025018900611919E8D
:104C8000900614E02402F0900614E0FF900613E072
:104C90006F70DD7F01122F92900614E0FF22E47501
:104CA000F0020220667D029151EFC36001D322E43D
:104CB000FFFEFDFC90056C91C490057091C49005B9
:104CC000740222F61222F6E4FFFEFDFC22EF91D6DA
:104CD0001222CE0222B425E025E0246CF582E434D1
:104CE00005F583229003C1E0F4FFA3E06FFFA3E08A
:104CF0006FFFA3E06FFF64556009EF644A6004EF43
:104D0000B40A010F900558EFF022A2EB924BC2EBD0
:104D10007A05795E7B017D0CE4FF12196CA24B923F
:104D2000EB22A2EB924CC2EBEBC0E0EAC0E0E9C0A0
:104D3000E07B017A05795E902FB1122348D0E0F92B
:104D4000D0E0FAD0E0FB7F0C121999A24C92EB2232
:104D50007F017E009017FCE4935EFE7401935F4E2A
:104D600024FFB322900001740193B40007E493B4CC
:104D70001802C322D3229030DA1223489030DAD1BD
:104D8000373AFA747F121F957B017A2E79E8902FBB
:104D9000B11223489030DA12233F7F020219991290
:104DA0003E9DEF64017063D154903146EFF0D3948F
:104DB000025057902EEDE0FF903146E06F704BD1DE
:104DC0000B903147EFF07B017A3179477D01121C5E
:104DD000AA903146E024E8F582E4342EF583EFF022
:104DE000902EEDE0045401F07020902EEBE0700264
:104DF000A3E060167B017A2E79E5B1767B017A2EED
:104E000079E5902EEBD14012247F22E4FFE5F754A0
:104E1000C06002801675FF01E5D530E30DD130503A
:104E2000F4D12BEF60EFD13050EB22D14AAFD92231
:104E300075FF01E5E4332212233FE92402F9E4225D
:104E4000E0FEA3E0FFF5828E832275FF01E4F5EA20
:104E500075EAFF22E5F45418131313541FFF229030
:104E60002EEBEEF0A3EFF022EF7011ED600775FF6F
:104E70000143AE012275FF0153AEFE22EFB40110D3
:104E8000ED600775FF0143AE022275FF0153AEFDD1
:104E90002275FF02E5E630E2037F0322E5E630E318
:104EA000037F0022E5E630E1037F0422E5E67F058B
:104EB00030E0027F0122EF600775FF0253E6BF2258
:104EC00075FF0243E64022EF14600F1460142402C1
:104ED00070188B8075FF018DFD228B9075FF018D01
:104EE000C9228BA075FF018DCA22AF038FB075FF59
:104EF00001AF058FCB22902F92122348EF1460113F
:104F00001460182402701EF130E580F136E5FD8052
:104F10001CF130E590F136E5C98012F130E5A0F1E1
:104F200036E5CA8008F130E5B0F136E5CB021F95D1
:104F3000902F9502233F121F9575FF01902F92022B
:104F4000233FE4F5FFAF9122E4F5FFAF922243FB4C
:104F50001075FF0243E640EF600D75FF02E5E120AA
:104F6000E7FB43FB0D800343FB0E80FE124559AD6A
:104F700094EF4DF1828FF01220F5E591C330E701F7
:104F8000D32224FBFFE5F034FF229030DDF1BD7F1A
:104F9000017C127D01E4FE8D828C83ED2EF582E48E
:104FA0003CF583E02FFF0EEEB412EC901213E06F8D
:104FB000600A9030DD124550E4121F9522EBF0A3F9
:104FC000EAF0A3E9F02290307A1222F675FF019000
:104FD000307AA3E0FDA3A3E4FFFEE4FC78101222E4
:104FE0008E8FE190307AA3A3E0FEA3E4FFE4FDFC02
:104FF000780812228E8FE290307AA3A3A3E0FF8F6D
:10500000E322E4F5FF75C2E17F1E1247D030E707C7
:10501000E4F5FF75C2A122E4F5FF75C28122902E4E
:105020000F1222F6E4F5FF75BB0575BB8575FF0110
:1050300075D502204E087F3FFE123ECF110275FF4C
:105040000143D520304E0201E0E4F5FF538EF743D3
:105050008E077D04E4F5FF8DBCF5FF43B102E5B199
:1050600030E2FBE4F5FFAFDFEFFEACDEECFBEBFF85
:10507000ED25E0240DF582E4342EF5833107F5FFAC
:10508000F5FF53B1FD0DEDB40CCA902E0F123AF797
:10509000FF780912228EA33107FDED25E02417F5D4
:1050A00082E4342EF583E0C313FAA3E013FB11FA74
:1050B00031152BFFEE3AFE11FAEEF0A3EFF0ED24DE
:1050C0000490120DF0EDC394075015CFEDCF0DEF06
:1050D00011FB310E902E14E09F902E13E09E50BADB
:1050E000E4F5FF758EC8F5FF90120DE0F5BCE4F510
:1050F000FF75BB8075FF01F5D522ED25E02415F580
:1051000082E4342EF58322EEF0A3EFF0E422E0FEF9
:10511000A3E0FFC322E0C313FEA3E0132290308A72
:1051200031B0EBF03199AC00AD01AE02AF03C00677
:10513000C00790308A3115FBAA06E4F9F8D007D0F1
:1051400006D31222677E0050047F0180027F00C0D8
:1051500006C0073199D0E02FFFD0E03E90308AF0B2
:10516000A3EFF053ECFC90308AE0FCA3E0FDEC549C
:105170000342EC75FF02EDF5AF75ED0275ED04A38A
:10518000E0600543EC08800353ECF790308DE0605D
:105190000443EC042253ECFB2290308AE0FEA3E0AF
:1051A000FBAA06E4F9F87F807E387D01FC02275DCA
:1051B000EEF0A3EFF0A3EDF0A322C2ACE4F543F5CB
:1051C00042F541F53FF540F53E7B017D01311DD2B1
:1051D000AC22C24D75FF03759B1F75FF0390120F24
:1051E000E020E71BE59A540FC394024012E044808C
:1051F000F0E4F5FF75C2A143FC0475FF03D24DE551
:10520000FC30E609E59A540FC3940540CDE5FC3027
:10521000E611E4121F9575FC80F5FC75FC40E5FC79
:1052200020E6FB304D03123AC822EF30E00E43F483
:1052300001E4F5FF43A404F5FF759624EF30E10E79
:1052400043F401E4F5FF43A408F5FF759624EF301D
:10525000E20943F402E4F5FF75961EEF30E30943DB
:10526000F404E4F5FF75961075FF01EF5403600434
:1052700075D7122275D72D22E4F5FF7584E6F5FF68
:10528000439404F5FF75981422E4F5FF75933F7578
:10529000FF03759A405178E4F5FF759C93F5FF750F
:1052A000A1A3F5FF758531F5FF758628E5FA543021
:1052B0004480F5FA75FF0175E74A75FF0275DF490D
:1052C00075FF0143D30475FF0153D367E4F5FF5322
:1052D000E6BF75FF0175D825F5FF75B503F5FF75B8
:1052E000B215F5FF75BA02F5FF75AFB3F5FF75CDD1
:1052F0000AF5FF75CB08F5FF75CA12F5FF75BF0EED
:10530000F5FF75CC96F5FFF5BDF5FF75C281F5FF8C
:1053100075AEE1F5FF75DA55F5FF75F580F5FF75AA
:10532000E903F5FF75E933F5FF75972A75FF0175F8
:105330009B42759CA4759D29759E48759F2475A1F7
:105340001275A312759AF820500CF5FF43968090C1
:10535000120FE04440F022CCEFCCCFEDCF74017EB1
:1053600000C8EFC8088005C333CE33CED8F9FFCDCF
:10537000ECCDEF5D601B304F1875FF0175DCAD752E
:10538000FF0175DDCDE4F5FF759A74F5FF75948422
:105390002275FF0175DC5375FF0175DD33E4F5FF00
:1053A000759A14F5FF7594042275FF0175E465750F
:1053B000FF0175D64722E5FA30E1FB75FC8075FFE9
:1053C0000153D5EFE4F5FC75FC40123FE6E5FC2007
:1053D000E6FB2275FF01E5D530E602C32253FACF82
:1053E000EFB4080543FA308012EFB4040543FA2005
:1053F0008009EFB4020543FA108000D322E5F75488
:1054000006FFBF06037F0822E5F75406FFBF04032B
:105410007F0422E5F75406FFBF02037F02227F01CB
:105420002275FF018FDA22E5F754E024FF22E5F729
:1054300054C024FF22EF600775FF0243E610227577
:10544000FF0253E6EF2275ED0422C0E0C0F0C083F6
:10545000C082C0D075D000C000C001C002C003C06F
:1054600004C005C006C007C0FFB139EF60279146F0
:1054700091D8E53EC394204003753E00E542C394B5
:1054800020500FAE3E053E74C52EB145EFF00542EB
:105490008003754220B133EF6021B12FE543D394EF
:1054A000004018E54194204003754100AF4105419B
:1054B00074E52FB127E0FF91DB1543D0FFD007D073
:1054C00006D005D004D003D002D001D000D0D0D077
:1054D00082D083D0F0D0E032AFEF228FEF22903134
:1054E000A5EFF0E543C394204005122F3380F4E587
:1054F0003FC394204003E4F53FC2ACB13FEF700DD1
:10550000E54370099031A5E0FF91DB80129031A551
:10551000E0FFAE3F053F74E52EB127EFF00543D223
:10552000AC7F012291DE22F582E4342CF5832275D2
:10553000ED0222E5ED5402FF22E5ED5404FF22E5E1
:10554000ED5401FF22F582E4342CF58322C2ACB184
:105550003FEF7004E54360047F0180027F00D2AC1E
:1055600022E540C394204003E4F540AF4005407479
:10557000C52FB145E0FFC2ACE542D394004002150F
:1055800042D2AC22E5ED30E2FB75ED04AFEF22E54F
:10559000ED20E0FB8FEF22EF600443EC042253EC9C
:1055A000FB22EF600443EC082253ECF722902E37E5
:1055B000E0121F95902E3CE0900001121FA7902E44
:1055C0003DE0900002021FA7E4FF022D65902E39F6
:1055D000E0FF22E4902E39F022E4F5FF75D102E5D8
:1055E000D120E0FBE4F5D1F5FFEFB1FAEE540F4224
:1055F000D6E4F5FFCFEDCF8FD422F5D7E4F5FF53F6
:10560000D6F022E4F5FFE9B1FAEA540F42D622E4DB
:10561000F5FFEFF5D8E4F5FF53D60FEE540FC4F8BD
:1056200054F0C8E4C4540F4842D622E4F5FF8FD4A6
:1056300022E4F5FFE5D1540133333354F8FFE4F5A8
:10564000FFE5D354074FFF22EFB40109D2AD75FF38
:105650000143AE4022C2AD75FF0153AEBF2275C8F3
:105660000122E5C85402FF75C80222E5C85404FFB0
:1056700022E5C85401FF22EF6004902F44F090050A
:1056800037E0FF90052712233F1219E9900537EF05
:10569000F0604D20284A902F42E0C330E501D392BC
:1056A0002C902F4512233FF10A902F43E09005BC28
:1056B000F0902F41E09005BDF0A37456F0A37477ED
:1056C000F0900537E0FBD1EDEF7021902F4474028C
:1056D000F0902F3FE0FEA3E0F5828E837F028009E9
:1056E000902F44E0902F3FD1F412247F22AD50E45C
:1056F000FF021C82FFE0FCA3E0FDF5828C8322E028
:1057000090293EF07B017A29793C9005B902234823
:10571000902E4412596C902E4F7403F0902E4CE052
:105720005437F0E0FE5420902F42F0902E4DE0FDD3
:10573000A3E0902F3FCDF0A3EDF0125839902F4504
:10574000122348902E4BE0902F43F0902E451223C9
:105750003F900527122348EE4420902F41F0E4901B
:105760002F44F0C228F549902E4512233FAF49122D
:1057700019E98F49EF602A7D03121BB040E9902E92
:105780004BE0D3941940037F0022AF49121BAB506A
:1057900008902E4F7401F08008902E4F7402F08014
:1057A000C6902E4BE0D3948240037F00227F0212EA
:1057B0001C23902E50122348EA494B6062902E44DD
:1057C000E0FF902E5012233FE924B6F9E43AFAEFB5
:1057D000121F95902E4CE0FE30E01DE4900537F04E
:1057E000125822EE6401A3F0A37456F07477125895
:1057F0002B902E4FE0FF801F902E4FE0FF1258227B
:10580000902E4CE09005A2F0902F3FE0FDA3E09099
:1058100005A3CDF0ED112B7D02121C787F01227FB4
:105820000022902E4BE09005A1F022A3F0902E5084
:1058300012233F9005A5122348902E4802233FC013
:1058400003C002C001902EDE12233F902E48122387
:1058500048902EE1E0902E4BF0902EE2E0902E4CFE
:10586000F0902EE3E0FFA3E0902E4DCFF0A3EFF0F9
:10587000D001D002D003AF50025710021A02E4FF49
:105880003032037402FF22200005D215021AE8C349
:1058900022D322AF4222C2ACC374209543FFD2ACC4
:1058A0002290314312379DE4FF90314312233F8F02
:1058B0008211B90FEFB410F122758300E593021F36
:1058C000A711C84408F58F2275FF01E58F54F62211
:1058D00075FF01E58F5408FF22EFB4010775FF0142
:1058E00043AE202275FF0153AEDF2275FF01E58F25
:1058F0005401FF22EFB4010775FF01439120227587
:10590000FF015391DF22902E06E0540F227B007A94
:10591000007950902FFC1223480B7A0379C122E9B9
:10592000240BF9E43AFA22240AF9E43CFA121EFAAA
:10593000C4540F22EF54F84402FFEE8FF00220F51A
:10594000FDEF4DFFE5F08FF00220F512233FEF024F
:105950001F95A3F0E4A3F0A3F02212233FE924BD96
:10596000F9E43AFA222409F9E43AFA22EFF0A30220
:105970002348E0FFA3E0902E5ACFF0A3EFF022746B
:10598000FFF5F012206645F0227F02122FF29003FD
:10599000BFE09003C7F09003BF04F0C394022290CD
:1059A00003C7E0FD75F0AA9003CB122333AF82AE9C
:1059B00083EF22E0FEA3E0FFC3902E3FE09FFF9025
:1059C0002E3EE09EFE229003C9E0FEA3E0FF1219E6
:1059D000D0D3EF94C8EE9400227B017A057921227E
:1059E000902C780222F6AF017B017A30793B223A83
:1059F000FAE924FFF9EA34FF22F07B017A297940A1
:105A000022E0FF902EFEE4F0A3EFF022E0FFA3E0FF
:105A1000902EFECFF0A3EFF022FF8D828C83022424
:105A20007FE0FFA302233FE9242DF9E43AFA7D0445
:105A3000E4FF22E5122407F582E43511F58322758F
:105A4000FF01F5EA75EAFF90055B22E92420F9E4FD
:105A50003AFA22F0902A1E7401F02212235DE92402
:105A60000922E4FCFD022114E9242CF9E43AFA7439
:105A700040227B01902FC7F022122092FFAEF0222D
:105A80007A0579537F0422240CF9E43AFA2275F05E
:105A900005A424F3F9740022122348021EFA7407A5
:105AA000F0E4A3F02275FF01438E1075FF01222F51
:105AB000F9EA3EFA021EFAFF7B01E4902FCDF022B4
:105AC0007B017A30793E7F0222740775F0D0022084
:105AD000F5E924FEF9EA34FFFA22902DBBE0FF1429
:105AE000F0EF22EEF0A3EFF07B0122F0A3F0A3F0A1
:105AF000A3F022E92406F9E43AFA2212233FAE0287
:105B0000AF01222DF582EA3CF583227438F0A374AC
:105B10001FF022E0FEA3E0FF7C0022F582E43405C2
:105B2000F58322902F22F0A3EFF022FF54F0C4540B
:105B30000FFE227401F0AE04AF0522AA06A90702E7
:105B4000247BAF03EAF0A3EFF0229003C1E0C394FB
:105B5000C022F582E43EF583E02290120EE0D39459
:105B6000012233333354F8F5F42275FF03902DBB33
:105B7000E022FFFFFFFFFFFFFFFFFFFFFFFFFFFF31
:105B8000FFFFFFFFFFFFFFFFFFFFFFFFFFFFFFFF25
:105B9000FFFFFFFFFFFFFFFFFFFFFFFFFFFFFFFF15
:105BA000FFFFFFFFFFFFFFFFFFFFFFFFFFFFFFFF05
:105BB000FFFFFFFFFFFFFFFFFFFFFFFFFFFFFFFFF5
:107F7000FFFFFFFFFFFFFFFFFFFFFFFFFFFF02000D
:107F8000022B162FCF020503022FD12FFF0033043F
:107F900005320230043806080705053202380B386E
:107FA000190013FF0532FFFFFFFFFFFFFFFFFFFF79
:107FB000FFFFFFFFFFFFFFFF7FC6744B28CC3EC6CD
:107FC00000000308C72EFFFFFFFFFFFFFFFFFFFFBB
:107FD000FFFFFFFFFFFFFFFFFFFFFFFFFFFFFFFFB1
:107FE000FFFFFFFFFFFFFFFFFFFFFFFFFFFFFFFFA1
:107FF000FFFFFFFFFFFFFFFFFFFFFFFFFFFFFFFF91
:10800000EF547024F0602624F0603C24F060522489
:1080100030706730550B117E8002C333D8FC42802C
:1080200022117E8002C333D8FCF452802230550BDB
:10803000117E8002C333D8FC429022117E8002C39D
:1080400033D8FCF452902230550B117E8002C3339A
:10805000D8FC42A022117E8002C333D8FCF452A087
:108060002230550B117E8002C333D8FC42B022115E
:108070007E8002C333D8FCF452B02275FF01EF5466
:1080800007FF7401A8070822EF547024F06017243A
:10809000F0601E24F060252430702B117B8002C319
:1080A00033D8FC42FD22117B8002C333D8FC42C985
:1080B00022117B8002C333D8FC42CA22117B80028A
:1080C000C333D8FC42CB22EF547024F0601824F064
:1080D000602024F060282430702F117B8002C3338D
:1080E000D8FCF452FD22117B8002C333D8FCF45239
:1080F000C922117B8002C333D8FCF452CA22117BFF
:108100008002C333D8FCF452CB229030FEEEF0A3B1
:10811000EFF0A3EDF0E0FF14F0EF7002C32212F3D2
:1081200004122F8DAD07305D10903100E0117F807B
:1081300002C333D8FC4DFD800F903100E0117F80E9
:1081400002C333D8FCF45DFD12F304022F539029CF
:1081500098E0FF90318CEFF0E547B55003D38001F4
:10816000C3500990318C12B88430E70F7E1F7FCA4C
:1081700090318CE0FDD25D310AC21A902935E07051
:108180000A0412EE7A12DC8212887D22903195EF79
:10819000F0C003C002C001A801AC02AD03D001D001
:1081A00002D0037E007F13121ED4902997E0122480
:1081B0005581DC01828D0284E40384F90484710515
