:020000040000FA
:101800000225A31A021A07227FB8EF9018139390AB
:101810001900730A20364CE57AFF22EFF57A221B75
:10182000EC1BF60274BC1BB51BC92202386C1C2DC4
:101830001C371C3C1C411C461C4B1C551C5F1C646B
:101840001C821C8712211BE40227E6026579C2D59F
:10185000E830E70FB2D5E4C39BFBE49AFAE499F9C8
:10186000E498F8EC30E717B2D5121884122007E498
:10187000C39BFBE49AFAE499F9E498F880031220F8
:101880000730D50DE4C39FFFE49EFEE49DFDE49C7C
:10189000FC227895E4F6D8FD9000007F007E10E4ED
:1018A000F0A3DFFCDEFA904FFFA3E583C394204052
:1018B00011FEAF829020000E0FE48002F0A3DFFC47
:1018C000DEFA1219200225B522323F241E16110E0F
:1018D0000B09070504030201F0C8A791776760466A
:1018E000383532302422201400010102020303049F
:0F18F00004050506060707822D1C16131110109C
:0118FF00FFE9
:10190000C07A7419C0E0C082C083757A0AE5FF54BA
:10191000CF4490F5FF22C07A7419C0E0C082C08322
:10192000757A20E5FF54CF4490F5FF22C07A7419F0
:10193000C0E0C082C083757A36E5FF54CF44A0F57D
:10194000FF22C07A7419C0E0C082C083757A4CE56A
:10195000FF54CF44B0F5FF22908000211690824BB7
:10196000211690808F21169080D221169082EC2132
:101970001690A00D211690A025211690A0362116B4
:1019800090A807211690A816211690B00B2116904A
:10199000B00E211690B7FD2116908230211690824C
:1019A000E5211690C1082116909E3E211690C15A3D
:1019B000211690C133211690C05B211690C1DD2104
:1019C000169082332116908119211690C7F52116A1
:1019D00090B936211690B053211690B77521169004
:1019E000C82D211690CFEA2116908137211690B389
:1019F000E6211690CC17211690D156211690B39C53
:101A0000211690D275211690B7DE211690A73221AB
:101A10001690C531211690A26C211690D3B02116D4
:101A200090CF272116909FED211690D43E2116903D
:101A3000CF36211690CF80211690CA43211690935D
:101A40002A211690D441211690AD7B211690AFEF3C
:101A5000211690CBD2211690CC7D211690CBAC21B3
:101A60001690D516211690D534211690D54D2116F5
:101A700090D690211690CB85211690CA5B211690A6
:101A8000AA1D211690AD33211690CC50211690D668
:101A9000C5211690B0CC211690BE5E211690C4FCD4
:101AA000211690BFB2211690C3FF211690C3732157
:101AB0001690D740211690B185211690C970211635
:101AC00090B8E2211690A82F211690D5FF211690EC
:101AD000D5E8211690D69E211690B8D6211690B83A
:101AE000DC211690B949211690CCF9211690CCB57D
:101AF000211690D7A2211690B550211690CB2C21FB
:101B00001690D7B1211690AEA2211690CD062116BF
:101B100090837F2116909354211690A6442116900D
:101B2000A3A2211690A2382116909339211690CAAB
:101B300090211690AFE4211690936C211690C593D6
:101B4000211690ACAA211690B093211690ABD52106
:101B50001690AFF5211690AF2D211690D7F72116CC
:101B600090CDB6211690D80E211690AECF211690AA
:101B7000D8112116908134211690D859211690CD74
:101B8000A0211690BD1E211690BDEA211690BDFB26
:101B9000211690A7FC211690A6A7211690A1BB2183
:101BA0001690C89C211690C901211690D960211663
:101BB000909CBE211690D9192116909EC221169094
:101BC000DA332116909788211690DB6C211690DB72
:101BD00079211690DBA5211690DBF4211690DC39D3
:101BE000211690DC57211690DCAB211690DD8D215B
:101BF0001690DE8F211690DE3B211690BA532116E7
:101C000090BC37211690BA6C211690BCCF2116904B
:101C1000DE85211690DD83211690BCB121169087B8
:101C2000FE21429088F7214290894E21429086649D
:101C30002142908BEF2142908C73214290873D216D
:101C400042908CA42142908CD321429084802142E6
:101C5000908C8D2142908CF221429081A72142905C
:101C60008D3B2142908D762142908DCE2142908DE8
:101C7000FE214290883B2142908C012142908E822D
:101C80002142908F612142908312214290821D2136
:101C9000429088DF2142908F3D2142908ED3214295
:101CA000908FBA21429090402142908040214290F2
:101CB00080E8214290908321429090B72142908009
:101CC0000021429099A2212C9099AC212C9099B698
:101CD000212C909A10212C9099C0212C909A31217E
:101CE0002C909989212C909A43212C9093EA212CB5
:101CF0009099CA212C9099D4212C9099DE212C9076
:101D000099E8212C9099F2212C9099FC212C909A01
:101D10001C212C909A06212C909A59212C909A6380
:101D2000212C909AA2212C909AD3212C9080A4212E
:101D30002C909B61212C909B62212C909655212CFC
:101D40009094E1212C90981F212C9095E9212C90C2
:101D50009B93212C00BB010689828A83E0225002DA
:101D6000E722BBFE02E32289828A83E49322BB013D
:101D70000CE58229F582E5833AF583E0225006E9F5
:101D80002582F8E622BBFE06E92582F8E222E582FA
:101D900029F582E5833AF583E49322BB0109898220
:101DA0008A83F8E028F022500327F722BBFE05F8CB
:101DB000E328F3228A838982F8E4932822BB010F67
:101DC000F8E58229F582E5833AF583E028F0225090
:101DD00009C58229F8E58226F622BBFE09C58229BB
:101DE000F8E22582F222F8EA2583F583E993282296
:101DF000BB010689828A83F0225002F722BBFE01D2
:101E0000F322F8BB010DE58229F582E5833AF583DB
:101E1000E8F0225006E92582C8F622BBFE05E92536
:101E200082C8F222EF8DF0A4A8F0CF8CF0A428CEC7
:101E30008DF0A42EFE22BC000BBE0029EF8DF08495
:101E4000FFADF022E4CCF875F008EF2FFFEE33FE83
:101E5000EC33FCEE9DEC984005FCEE9DFE0FD5F0BA
:101E6000E9E4CEFD22EDF8F5F0EE8420D21CFEADC3
:101E7000F075F008EF2FFFED33FD4007985006D5C1
:101E8000F0F222C398FD0FD5F0EA22C2D5EC30E77C
:101E900009B2D5E4C39DFDE49CFCEE30E715B2D554
:101EA000E4C39FFFE49EFE121E36C3E49DFDE49C46
:101EB000FC8003121E3630D507C3E49FFFE49EFE6C
:101EC00022C5F0F8A3E028F0C5F0F8E5821582708D
:101ED000021583E038F022A3F8E0C5F025F0F0E524
:101EE00082158270021583E0C838F0E822BB010A2F
:101EF00089828A83E0F5F0A3E022500687F009E7A3
:101F00001922BBFE07E3F5F009E3192289828A83CF
:101F1000E493F5F074019322BB010789828A83025E
:101F20001EC1500B09C5F027F7C5F01937F722BBC2
:101F3000FE0D09F8E325F0F3C5F019E338F322F8B4
:101F400089828A8374019325F0C5F0F8E4933822DE
:101F5000BB010A89828A83F0E5F0A3F0225006F7DC
:101F600009A7F01922BBFE06F3E5F009F31922EFE9
:101F70002BFFEE3AFEED39FDEC38FC22E88FF0A4A1
:101F8000CC8BF0A42CFCE98EF0A42CFC8AF0EDA400
:101F90002CFCEA8EF0A4CDA8F08BF0A42DCC382533
:101FA000F0FDE98FF0A42CCD35F0FCEB8EF0A4FE13
:101FB000A9F0EB8FF0A4CFC5F02ECD39FEE43CFCA8
:101FC000EAA42DCE35F0FDE43CFC2275F0087582C4
:101FD00000EF2FFFEE33FECD33CDCC33CCC58233B3
:101FE000C5829BED9AEC99E58298400CF582EE9BB8
:101FF000FEED9AFDEC99FC0FD5F0D6E4CEFBE4CDD6
:10200000FAE4CCF9A88222B800C1B90059BA002D6F
:10201000EC8BF084CFCECDFCE5F0CBF97818EF2F28
:10202000FFEE33FEED33FDEC33FCEB33FB10D70357
:10203000994004EB99FB0FD8E5E4F9FA227818EF00
:102040002FFFEE33FEED33FDEC33FCC933C910D75F
:10205000059BE99A4007EC9BFCE99AF90FD8E0E46C
:10206000C9FAE4CCFB2275F010EF2FFFEE33FEED42
:1020700033FDCC33CCC833C810D7079BEC9AE89912
:10208000400AED9BFDEC9AFCE899F80FD5F0DAE4F4
:10209000CDFBE4CCFAE4C8F922EF5BFFEE5AFEED8B
:1020A00059FDEC58FC22C3E49FFFE49EFEE49DFD35
:1020B000E49CFC22EB9FF5F0EA9E42F0E99D42F0A1
:1020C000EC6480C864809845F022EB9FF5F0EA9EAE
:1020D00042F0E99D42F0E89C45F022E8600FECC335
:1020E00013FCED13FDEE13FEEF13FFD8F122E860B1
:1020F0000FEFC333FFEE33FEED33FDEC33FCD8F1CD
:1021000022BB010789828A830221435005E9F80234
:102110002318BBFE05E9F802232422E0FCA3E0FD1E
:10212000A3E0FEA3E0FF22E493FC740193FD74029C
:1021300093FE740393FF22E0F8A3E0F9A3E0FAA36F
:10214000E0FB22ECF0A3EDF0A3EEF0A3EFF022A869
:10215000828583F0D083D0821221661221661221FB
:1021600066122166E473E493A3C583C5F0C583C8F2
:10217000C582C8F0A3C583C5F0C583C8C582C8227F
:10218000A42582F582E5F03583F58322E6FB08E697
:10219000FA08E6F922EBF608EAF608E9F622E0FB8F
:1021A000A3E0FAA3E0F922F8E0FBA3A3E0F925F00D
:1021B000F0E582158270021583E0FA38F022EBF028
:1021C000A3EAF0A3E9F022BB010789828A830221F6
:1021D0009E5005E9F802218CBBFE05E9F802233088
:1021E00089828A83022342BB011A89828A83D0F0C2
:1021F000D0E0F8D0E0F9D0E0FAD0E0FBE8C0E0C0F1
:10220000F00221BE5016E9F8D083D082D0E0F9D098
:10221000E0FAD0E0FBC082C083022195BBFE16E944
:10222000F8D083D082D0E0F9D0E0FAD0E0FBC082D1
:10223000C08302233922BB010DE58229F582E583A3
:102240003AF58302219E5007E92582F802218CBBD2
:10225000FE07E92582F8022330E58229F582E5832D
:102260003AF583022342BB0120E58229F582E5830A
:102270003AF583D0F0D0E0F8D0E0F9D0E0FAD0E041
:10228000FBE8C0E0C0F00221BE5018E92582F8D07A
:1022900083D082D0E0F9D0E0FAD0E0FBC082C083E6
:1022A000022195BBFE18E92582F8D083D082D0E0C8
:1022B000F9D0E0FAD0E0FBC082C08302233922D0FB
:1022C00083D082F8E4937012740193700DA3A393EA
:1022D000F8740193F5828883E4737402936860EF65
:1022E000A3A3A380DF8A838982E473EC8EF0A4CC5D
:1022F000C5F0CCCDF8EFA4CEC5F02DFDE43CFCE854
:10230000A42EC8C5F03DFDE43CFCEFA4FFE5F02899
:10231000FEE43DFDE43CFC22ECF608EDF608EEF6AA
:1023200008EFF622ECF208EDF208EEF208EFF222E6
:10233000E2FB08E2FA08E2F922EBF208EAF208E925
:10234000F222E493FB740193FA740293F922412A76
:10235000BC004102B200C131C133E0080200005AA2
:10236000654E7359730000E00102001554E001024C
:102370000016A5E0E8022568FEFEFEFEFEFEFEFE5B
:10238000FEFEFEFEFEFEFEFEFEFEFEFEFEFEFEFE6D
:10239000FEFEFEFEFEFEFEFEFEFEFEFEFEFEFEFE5D
:1023A000FEFEFEFEFEFEFEFEFEFEFEFEFEFEFEFE4D
:1023B000FEFEFEFEFEFEFEFEFEFEFEFEFEFEFEFE3D
:1023C000FEFEFEFEFEFEFEFEFEFEFEFEFEFEFEFE2D
:1023D000FEFEFEFEFEFEFEFEFEFEFEFEFEFEFEFE1D
:1023E000FEFEFEFEFEFEFEFEFEFEFEFEFEFEFEFE0D
:1023F000FEFEFEFEFEFEFEFEFEFEFEFEFEFEFEFEFD
:10240000FEFEFEFEFEFEFEFEFEFEFEFEFEFEFEFEEC
:10241000FEFEFEFEFEFEFEFEFEFEFEFEFEFEFEFEDC
:10242000FEFEFEFEFEFEFEFEFEFEFEFEFEFEFEFECC
:10243000FEFEFEFEFEFEFEFEFEFEFEFEFEFEFEFEBC
:10244000FEFEFEFEFEFEFEFEFEFEFEFEFEFEFEFEAC
:10245000FEFEFEFEFEFEFEFEFEFEFEFEFEFEFEFE9C
:10246000E001022650FF4104150601140041041446
:102470000141041301C13A011A00011700C13D4195
:10248000270E05C14443261200000041262300C147
:102490002C013000C128C129C12A412E1300C15F7F
:1024A000432CC4000000412CC300412CC700C134A0
:1024B000C136412A6F00017900C126C124412A6139
:1024C00000412A6E0060282487042D0000000100CE
:1024D00001FE81FF88CF1F0000FB9F7DA067008069
:1024E00080008086000000E87300800F000060001C
:1024F00000014D00014F0001530001520001500046
:10250000014B01014E02014C0141243300C145C180
:1025100046015B9601570F412E1E00E00C027FF42E
:102520000000000000020009042D04360090234E34
:10253000E47E0193700122A3FF543F30E509541F4C
:10254000FEE493A360010ECF54E0B4E03AEFFAEE5C
:10255000F9E493FBA3E493FEA3E493FFA3E493FDC8
:10256000C083C082C001C002C006C00712199ED03D
:1025700007D006D002D001D082D083A30FEF700124
:102580000EDADAD9D880A954C025E060105005A32E
:10259000DFFD809CA3A3A3DFFDDEFB8093A3A3DF6D
:1025A000FD808D75819575FF03759E0212192002BD
:1025B000318A0218C890234EE47E019360F4A3FF91
:1025C000543F30E509541FFEE493A360010ECF543D
:1025D000E0B4E00EEFFAEEF9A3A3A3A3DAFDD9FB72
:1025E00080D654C025E0604B5026E493A3F85407EE
:1025F000240CC8C333C4540F4420C8834004F45689
:10260000800146F6DFE480B001020408102040801B
:10261000E493A3FAE493A3F8E493A3C8C582C8CAD9
:10262000C583CAF0A3C8C582C8CAC583CADFE9DEAC
:10263000E78085E493A3F8E493A34003F68001F2D6
:1026400008DFF40225B893261A431A481A4D1A5285
:102650001A571A5C1A611A661A6B1A701A751A7A66
:102660001A891A8E1A981AA21AE31AE81AED1AF29F
:102670001AF71AFC1B011B061B151B1F1B331B38EB
:102680001B471B4C1B831B881B8D1CC31CC81CCDEC
:102690001CD21CD71CDC1CE11CE61CEB1CF01CF53E
:1026A0001CFA1CFF1D041D091D0E1D131D181D1DE8
:1026B0001D221D27000DFA20000DDC700000000017
:1026C000020C00013F3F3F0404045A2D5761766518
:1026D00020342E353400182A582A5842377562C1E2
:1026E0007F011228BF902AB4E051BF270704270FAB
:1026F00014271415271917272930272E3427333686
:10270000273837000027215362EF856280802F53DE
:1027100063EF80085363DF800353637F856390809A
:102720001D5364DF8564A080155365FE800D5365DD
:10273000EF80085365BF800353657F8565B07F0CCC
:10274000DFFE22D1E57FD7F1E67FFFF1E6F1589079
:102750002AAFEFF07FFFF1E6E5C820E2FBAFEB2206
:102760007F011228BF902DF97401F0902DF9E060DF
:1027700031F1EEF154902DF9EFF0122802F143906F
:102780002AB0EFF0122802902DF9E0540112796F6F
:1027900060D9A3E0F460D4EF30E7D0E4902DF9F0F5
:1027A00080C9D1E57F9FF1E6F154902AB1F15290B2
:1027B0002AB6F152902AB7EFF01228BB902AAFE068
:1027C000F4601BA3E0F46016902AB6E0FD541F24C9
:1027D0000FA3F0EDC41354074480902AB6F02231C1
:1027E0001B780811DBE4E5C820E2FB8FEB22D1E582
:1027F0007F0580F27F011228BFD247D1E57F061204
:1028000027E6122FDFEF70FA902AB6E0F4600A9004
:102810002DF87406F0117E70FC902AB4E01222BFED
:10282000283C04284414284915284E17285E3028CF
:102830006334286836286D370000285643621085B7
:102840006280802F436310800843632080034363CA
:1028500080856390801D4364208564A08015436556
:1028600001800D4365108008436540800343658007
:102870008565B0902DF8740CF0117E70FC22902DBF
:10288000F8E014F0E022902DFAEFF0902ABDE06419
:102890000270241226E0902DFAE07FAB60027FB92F
:1028A0001227E61102902DFAE0902ABCF070047F06
:1028B0001EDFFEE4FF11BF221227E61102E4FFEF44
:1028C000B4010443FE202253FEDF227F0111BF30FA
:1028D00047161227EE122754902DFBEFF0110290AD
:1028E0002DFBE020E002C247304719122743902A0F
:1028F000B0EF12796F600BA3E0F46006EF30E702EF
:10290000C2471102E4FF11BFA247E433FF22517D09
:1029100011CBEF6004519F80F71227F41226E57F58
:10292000011227E67F031227E61102E4FF80909050
:102930002CD5122143517D11CBEF6004519F80F7BC
:10294000518C600B902CD512211B78101227E3902C
:102950002CD51227DF902CD5121844122754902C16
:10296000D9EFF011BB902CD9E0FF22902CDA122184
:1029700043902CDA12211B312F902CDEE06F603A4D
:10298000517D11CBEF6004519F80F71227F412267E
:10299000E5902AB2E0FF5195600B902CDA12211BD2
:1029A00078101227E3902CDA1227DF902CDA121815
:1029B00044902CDEE0FF11B8D322C322902B9F124B
:1029C0002143902BA31221BE517D11CBEF60045106
:1029D0009F80F7518C600B902B9F12211B78101257
:1029E00027E3902B9F1227DF902B9F121844902BE8
:1029F000A6F1556014122754902BA3F1F2902BA44A
:102A0000E475F001121EC180E51102E4FF01BF90E0
:102A10002B96122143902B9A1221BE517D11CBEFA0
:102A20006004519F80F71227F41226E5902AB2E045
:102A3000FF5195600B902B9612211B78101227E303
:102A4000902B961227DF902B9612211BE480239067
:102A50002B9DF1556021902B9A12219EEA494B60E3
:102A60000F902B9AE475F0011221A7121D558001D9
:102A7000E4FF1227E680D81102E4FF01BF75FF02D0
:102A8000E5E430E10675E40675E403227F0111BF39
:102A90001226E57F031227E6902AB5E0640222E5BC
:102AA0001530E20EE51520E509E51530E0047F015B
:102AB000F123227A2A79B47F031277F67A2A79BD34
:102AC0007D017F08121C237A2A79BA7F09D1017A05
:102AD0002A79B87F0BD101902AB8E0FEA3E0FF4E1F
:102AE0006006BEFF1CBFFF19902ABDE024FD6003F5
:102AF000047005D108F08009902AB8E4F0A374406E
:102B0000F0902ABDE024FD6003047008902AB5749B
:102B100003F08006902AB57402F0902AB4E01222E5
:102B2000BF2B3D042B48142B50152B58172B6E3000
:102B30002B76342B7E362B863700002B6375FF01F6
:102B4000535EEF855EFD804775FF01535FEF800E9A
:102B500075FF01535FDF800675FF01535F7F855F5F
:102B6000C9802C75FF015360DF8560CA802175FF25
:102B7000015361FE801675FF015361EF800E75FFF2
:102B8000015361BF800675FF0153617F8561CB11E1
:102B9000027F119167E4FF1186122760902AB274B8
:102BA00002F0902AB6E0247F6009047016916D74DB
:102BB0000A80069185916D7458F0902AB57403F0DF
:102BC000D108F0902AB7E0F460028165902ABAE05B
:102BD000FEA3E0FF64104E7006902AB7740EF0EF6B
:102BE00064204E7006902AB7740FF0EF64404E7068
:102BF00006902AB77410F0EF64804E7006902AB7E2
:102C00007411F0E4B5070AEEB40106902AB7741205
:102C1000F0E4B5070AEEB40206902AB77413F0E4A4
:102C2000B5070AEEB40406902AB77414F0E4B507A9
:102C30000AEEB40806902AB77415F0E4B5070AEE58
:102C4000B41006902AB77416F0E4B5070AEEB42063
:102C500006902AB77417F0E4B5070AEEB440069060
:102C60002AB77418F0210EEF4420F5FE227F109150
:102C700067902AB2227E1F7FC8AB05E4FCFD902C32
:102C8000DEEBF0216B902AAFE020E0161226E07F09
:102C90003D1227E67F2A1227E67F801227E67FA6CD
:102CA00011B822902E1FEFF0E56BC3942040045121
:102CB0009F80F5E567C394204003E4F567C2ACF15B
:102CC000EBEF700DE56B7009902E1FE0FFF1D580E2
:102CD00013902E1FE0FFAE67056774BD2E1275625C
:102CE000EFF0056BD2AC7F0122902B1B1221439099
:102CF0002B1F1221BEB1F2902B22123058902B1BA9
:102D000012211BF15F5002A1AC902AB9E024FFFF11
:102D1000902AB8E034FFFEE4FCFD902B1B12213713
:102D2000122099902B24EEF0A3EFF04E6032B1F810
:102D3000C3902AB9E09FFF902AB8E09EFE902B2412
:102D4000F0A3EFF0902B221278EC9E5003126997BB
:102D5000B1AEE94A6004B1F880457E007F00803F53
:102D6000902B22E0FEA3E0FF4E603F902AB8E0FCEB
:102D7000A3E0FDD3EF9DEE9C400A902B24ECF0A342
:102D8000EDF0800D902B22E0FFA3E0A3CFF0A3EFA6
:102D9000F0B1AEE94A6004B1F880047E007F009093
:102DA0002B20EE8FF0121EC180B6D322C322902BAF
:102DB0001F12219E902B24E0FFA3E0902B9DCFF0CB
:102DC000A3EFF0902B1B12211B510F902B24E0FE40
:102DD000A3E0FFC3902B23E09FF0902B22E09EF016
:102DE000902B1B122137E4FCFD121F6F902B1B123E
:102DF0002143902B1F02219E902B24E0FEA3E0FF95
:102E0000227B017D02021C23902AB87401F0A3E406
:102E100022517D11CBEF6004519F80F722E541756F
:102E2000F016A424E9F9741F35F0FEAF01E4FCFDAF
:102E3000212F51B3121BFBF1E51219807E007F1583
:102E4000D12DBF540B7E007F16D12DEF64A56010ED
:102E50007E007F10C006127799D006D1A812252DCA
:102E6000121B29121A93121A11305F047572012273
:102E70001277BD12198FF14DFE4FFDA3E0FC4DFD01
:102E8000A3E0FB4D600BEE5FFFEC5FFFEB5FF470C8
:102E900002D1C3E572540324B6F582E43402F5830B
:102EA000E065729002B1F022902C211221BEE4FC68
:102EB000FDC007902C2112219E902C24127809D05D
:102EC0000781E9E4FFF123EF6037F146F10212795F
:102ED0003F40F77B017A0279B8F102F14D5FFFA321
:102EE000E05FFFA3E05FF460EA7F01F12375720108
:102EF0007E007F08F146902C24E4F0A37404F0D106
:102F0000A82290043B1221BEC24AE4FFF123BF0174
:102F10000B90043B12219E12548A924A7F01F123A6
:102F2000A24A22EF600D9002B4123389E4FD1233FD
:102F30009880103031037F0022121C19126511E4B1
:102F400033FF227F01227B017A0279B6229002B6FA
:102F5000E0FFA3E02274FFF5F0121ED745F02290A7
:102F600029DD1221439029E11221BEE4902A04F0C8
:102F7000D39029E5E0941E9029E4E09400400122DA
:102F80007B017A2979E69029E41278889029DD126C
:102F9000211B31BC9029E112219EE94A600C902A44
:102FA00004E0F582127631FF80027F00902A04E06F
:102FB00024E6F582E43429F583E06F6002C32290B1
:102FC0002A04E004FFF0D39029E5E09F9029E4E093
:102FD000940050C0228FEF2291A322E4FF01BFE5AD
:102FE000C85404FF22E49002B0F022E5ED5401FF42
:102FF00022FF12219EEF021DF0902AB1E0121DF077
:10300000902AB6E0900001121E02902AB7E09000CC
:1030100002021E02902C867405F0902C831221BEB1
:10302000E4FCFDC007902C8312219E902C86E0FFCB
:10303000902BA6E4F0A3EFF0D0070229BC902C2837
:103040001221BEE4FCFDC007902C2812219E902C7A
:103050002B1158D007022F5FE0FFA3E09029E4CFA7
:10306000F0A3EFF022E4F97D0CAC0109EC9026CA44
:1030700093FC0FEFAA0670010E14F5828A83ECF020
:10308000DDE77F01228F828E83E4F0A37404119820
:1030900074361198A3E4F022F08F828E83A3A322CA
:1030A00075FF0275E40475E40175E4022275FF0200
:1030B00075E404E4F5E422A248923122900442ED42
:1030C000F0900441EFF0BF0411A3E0FB7D017F010C
:1030D00011FC9004417403F0800B900442E0FB7DEE
:1030E00001E4FF11FC900441E09002B2F0D2091219
:1030F00019C69002BDEEF0A3EFF0D322EB60087585
:10310000FF0153CDFD800675FF0143CD02ED600543
:1031100053FBDF800343FB20EF600775FF0243E1B1
:10312000402275FF0253E1BF2275FF028FE322A206
:10313000499233229002B1E064AA2411FFF022AE3A
:10314000073134EE04FEEF8EF084AFF0223134EF1D
:10315000C4540F6FFEEFC41354076EFEEFC4131375
:103160001354016E5403FF2230320D121A39EF60EE
:1031700007C258121A25C232902774E0600B121C45
:103180000AEF6005E4902774F02275FF0275E404ED
:10319000E4F5E4121892126AD39002B3EFF09012A1
:1031A00000E0B47A14901214E0B49C0D9002B3E0E5
:1031B000FF64056004EFB4032EE49002BCF09002BB
:1031C000BCE0FFC394405013E42FF582E43412F5C1
:1031D00083E4F09002BCE004F080E3901200747A83
:1031E000F0901214749CF0121C287B017A12791052
:1031F0007D017F01121C237A1279117F211277F64B
:103200007A1279127D017F22121C23121BE2126AAC
:10321000D3121BDD9002B3EFF01264DE121BD890C4
:1032200002B3E0FF121D36EF24FFB3925F75FF0279
:1032300053E6BF123850121BE7122E32205F0C12D9
:103240001D3B7B017A267935121AA77F01122F23A5
:10325000D2AF305F7B12197B1219B7121D31121CCD
:103260001E40F29002B2E06043121C0AEF70051299
:1032700078324038E51470FCE51520E5031265113D
:1032800012198AEF70FA126A985005126A84500572
:103290007F011228869002B2E0B40204E4FF8009A4
:1032A0009002B2E0B403057F01126B9A121C05E58F
:1032B0001530E1A11268ED4002E4F0E51520E509C2
:1032C0009002B471897D0171987186124081808568
:1032D00031689002B2E06049201903200943121CB2
:1032E0000AEF70051278324038E51470FCE51520BD
:1032F000E50312651112198AEF70FA126A985005E7
:10330000126A8450057F011228869002B2E0B4024E
:1033100004E4FF80099002B2E0B403057F01126B60
:103320009A9002B2E0600C201909300906200203CD
:10333000121A7F12197B1219B7121D2C9002B0E0DD
:103340007005121C0580151264D5FF9002B0E0FED6
:10335000C3EF9EC394064002E4F0D2AD121807E515
:103360001530E11A1268ED4002E4F0E51520E50998
:103370009002B471897D0171987186124081121B8F
:10338000BA12381241D09002BCE075F0AA9002BF88
:10339000122180AF82AE8322900435EEF0A3EFF0CD
:1033A000E51470721265015004C2519117900435F2
:1033B000E0FEA3E08E11F512AE11AF127DAA126BE2
:1033C000B8E4F5FF75D908F510E5155421602CE532
:1033D0001530E505E4FF1266E4E4900437F090044C
:1033E00037E004F0126DCAEF6009900437E0C3942F
:1033F0001040EB7F02121D4F5315DE900413E07F47
:1034000000B403027F011266E41266A6D25191173E
:10341000D2EBA23992ED22902DFCE5F4F0E0547F3E
:10342000F5F47F827E00F1ED12567D5005E5FC201B
:10343000E6F6305108902DFCE04480F5F47FE87EFC
:1034400003F1ED12567D5005E5FC20E6F675FF010F
:10345000E5D520E702C322E5F4D330E601C322908C
:103460000426F1F3C2EBE5146002C11BE51530E25E
:1034700002C3221265095004C2519117126548E532
:10348000D120E0FBE4F510900427E05407C3940337
:10349000E49400502290042FE0FF90042BE02FFFD3
:1034A000E433FED3EF9440EE6480948040094315EA
:1034B00004A23992EDD32290042C12219ECFE9CFA1
:1034C0008A118F1290042FE0F516AE11126BE29064
:1034D000042812219E8B1C8A1D891E90042BE0F566
:1034E0001F900426E0FCA3E0FD546060329004309D
:1034F000E0FF126916900428D126FB7A009004247C
:10350000E0FEA3E0FF7C007D17121E24EF2BFFEAF4
:103510003EFEEF2414FBE43EFA7D027F01C10290DF
:103520000426A3E05407900414F0751408900428AE
:1035300012219E1266BF90042BE0FFAD161269AAFD
:10354000900414E06403702E7B01FDF1D7D12612A4
:103550004FD598500A900428F1E27401121D9BE4A3
:10356000F5FF1278F5900428D1262428FBE433FADD
:103570007D03E4FFC102900414E064027028F1D4DA
:10358000D126124FD598400A900428F1E274FF1218
:103590001D9B12699E900428D1262414FBE433FA63
:1035A0007D027F01805CE4F1D4D126124FD5984092
:1035B0000A900428F1E274FF121D9BE4F5FFF1CCA0
:1035C00044104E7F0560027F0AEF547FFFE5D2541E
:1035D000804FF5D2E4F5FF43D280900428D126FD38
:1035E0007C00F1CC44104E7E0060047F0A80027F94
:1035F00005EF25E0FFEE33FEEF2DFBEE3CFA7D01FB
:103600007F011269D0F1CCFF1266CC4006A239923C
:10361000EDC322A23992EDD2EBD322A23992EDD2A0
:10362000EBC322902B3C12219EE92407F9E43AFADD
:10363000021D55F10024B7D12CFF30E777540F64F9
:10364000017071F10024B6D12C65727067201C6482
:10365000902CC704F0F10024BBD12C30E33AF100E8
:1036600024BCD12C902CC4124FAD24BD124F7054E9
:103670000F7025F1002FF9EE3AFAE924BED12C544F
:10368000606015F10024BCD12CC4540F24041278BE
:10369000FE7D6E7C00024800E4902779F0F1002462
:1036A000BCD12CC4540F75F03EA4FDACF07E587F05
:1036B0002A02405EF10024B7D12C20E736F1002425
:1036C000BAD12CFF7D01121B42F10024B7D12CFF8F
:1036D00020E42030E709F10024BBD12C20E414F1D0
:1036E0000024BAD12CFFF10024B2F9E43AFCAD0178
:1036F000121A161247F87F01021BF18FF0121F50A9
:10370000902CC412219EE922902CE9F1F6F1004A96
:10371000C36001D35022E924BCD12CC4540FFF90C4
:103720002CE9E0B50712F10024BAD12CFF902CEA65
:103730001247BCD12C6F6002C322E4902CEDF090B4
:103740002CE9E0FF902CEDE0FEC39F5026902CEA80
:1037500012219E124681EEFF7E0029124F76FDF166
:103760000024BD124F706D6002C322902CEDE00466
:10377000F080CCD322E4902774F0EF604E90279332
:10378000E020E047A3E0C454F04405902793F0A361
:10379000E0FF54F0FEEF24FE540F4EF0EEC4540F41
:1037A0002402FE12795FF10024BAD12CFDF100242D
:1037B000B6D12CFBC00312467A902AD01221BE90BB
:1037C0002AD3EE12787AD00312477A22900426E0A8
:1037D000FEA3E022FB7D01FF126961900428229084
:1037E0002B3C12219EE92407F9E43AFA22126C1BC1
:1037F0000256B6EEF0A3EFF0A30221BE9002BAE0AB
:10380000FCA3E04C700A9002BAEEF0A3EFF0D322D2
:10381000C3229002BAE0FEA3E0FF4E6009CAEECADE
:10382000C9EFC91222E522EFB40109D2AD75FF013B
:1038300043AE4022C2AD75FF0153AEBF2275C80131
:1038400022E5C85402FF75C80222E5C85401FF22D0
:1038500075FF02D2ADD2BD75FF02758E7175730909
:1038600075FF02E58E546F4480F58E22C0E0C0F0F3
:10387000C083C082C0D075D008C0FF75FF02E58E3E
:1038800030E42C75FF02E58E54EF4410F58E900065
:1038900000E004F0E57330E0020531E573700E7569
:1038A000730990294C75F001121EC18002157375C1
:1038B000FF02E58530E40875FF024385100574D0EA
:1038C000FFD0D0D082D083D0F0D0E032902D5B12E8
:1038D00021BE7F01122F23F11A24DA310E45F06048
:1038E00023902D5B12219EC003C002C001F11A2457
:1038F000DA310EFFAEF0F58285F083D001D002D030
:10390000031222E922902AF212219EE92404F9E40A
:103910003AFA021EED1237004AC36001D34002A1F9
:103920000BE924B712362CFF7B017A2D79611257EF
:10393000FF301D16123700240212362C30E50BE43E
:10394000902710F090270FF0617812370024DF12D3
:10395000362C640260024115123700240312362C03
:1039600020E40E12370024BA12362CFF121A2080DF
:1039700030123700240312362C54EF121DF0123788
:10398000002406310EFFAEF01237002404B179EFA7
:1039900054076402C37001D3B115902D61E04F81CB
:1039A000FA12370024BA12362CFDAF72121A0750E1
:1039B00064123700124CF212370024B712362C3042
:1039C000E723540F6401701D121D5530E7111237A3
:1039D0000024BB12362C30E4067E007F0180137E6B
:1039E000007F00800D12370024B712362C5410FFD0
:1039F0007E00EF4E600B123700310C54F84403D1B7
:103A0000F6123700310C54076402C37001D3B115AC
:103A1000EF440181FA123700240212362C20E20210
:103A2000617812370024DF12362CFFC3940350054F
:103A3000E490276DF0EFD3940340026122902D6152
:103A4000E0B40109C25612370024BA8007C25612E8
:103A5000370024BD12362C902DD0F01219F81237F1
:103A60000024B612362C6572704212370024B71249
:103A7000362C30E737123700310C127907702D12CF
:103A8000370024B912362CD394405020123700F15D
:103A900026EF54F84402FFB17DD1FE44041248964B
:103AA00012370024BB12362C4410617312370024E5
:103AB000BA12362CFF7B017A2D7962902B081221E5
:103AC000BE7A2D09124FC36059902D62E0FFC45495
:103AD000F0FE123700124FA31237001247C3C00383
:103AE000C002C0017B007A007990F10CD001D002B5
:103AF000D0031219A8123700310CFF902D63E0FD9E
:103B0000124F7D123700F126E41236FB124FB890A7
:103B1000270CE0B40203D38001C39237F1004404C0
:103B200081FA12370024DF12362CC3940450491254
:103B3000370024BA12362CFF902CC412219E902CF0
:103B4000317401F01261A7123700310C54F8FDE511
:103B5000F0FEED4FFFB17DEF54076402C37001D357
:103B6000B115EF440112489612370024DFF9E43A08
:103B7000FA7404121DF081FD12370024BA12362C9B
:103B8000FFE4FD121B42301D02A10612370024DFA4
:103B900012362CC394054002A106123700240312EA
:103BA000362C20E002A10612370024B612362CFF74
:103BB000C00712370024BA12362CFD123700F11359
:103BC000C003C002C00112370024B112362C902B62
:103BD000D1F0123700240212362C54034401902BEA
:103BE000D2F012370024DC310EFFE5F0127937D025
:103BF00001D002D003D007121BB0EF7002A106B1B2
:103C00000D240512362C4420B10C2414D1EEB10D34
:103C10001278C8121DF0B10D1278A91219859025DD
:103C20008212219E7405121DF0B10D1237E6740741
:103C300075F0D01236FDF1F71236FD24DCF9E43AC6
:103C4000FA741B75F0B51236FD310CAEF054F8FF66
:103C5000B17DEF4402FFB17DB10D240412362CFF7B
:103C60001237002402D1EEB10D240612362CFF7457
:103C700040C39F500D12370024B1F9E43AFA742F73
:103C800080207411D39F5010EF24EFFF12370024CF
:103C9000B1F9E43AFAEF800A12370024B1F9E43AB4
:103CA000FAE4121DF012370024B112362CFF12373D
:103CB00000F113C003C002C001B10D241CF108D0F3
:103CC00001D002D0031219A812370024B2F9E43A45
:103CD000FA7B01C003C002C001B10D1246827B0114
:103CE000F10CD001D002D0037F111219A8123700B5
:103CF000124F9A121DF0D1FE4406124896902CC421
:103D000012219E021C14E4FF121BF122FF90258257
:103D100012219EE9229237C23820372A303813E523
:103D20006E54F0FFBFF003536E0F7410256EF56EE6
:103D3000803CE56E540FFFBF0F03536EF0056EE538
:103D40006E540FC48028303813E56D54F0FFBFF077
:103D500003536D0F7410256DF56D8012E56D540FD2
:103D6000FFBF0F03536DF0056DE56D540FC454F0A4
:103D7000FF22FF12219EE924DCF9E43AFAEE8FF0EB
:103D8000021F50902AE9127800902AEFD1D1E9243D
:103D900002D1EEEF7E0030E1047F0880027F00D187
:103DA000D3E92404B179902AEEE0FF74A9C39F50AF
:103DB0000374A9F0D1CEF112C003C002C001902A51
:103DC000EB12219EF10CD001D002D0031219A8D120
:103DD000CEE924B1D1EE902AF0E0FEA3E0A3B172C7
:103DE000D1D3F1F6121F50902AE9E0FC902AF5F0A9
:103DF000D1D9FE6402603CD1D3E924BA12362CF545
:103E00006CB4FF0B902AF5E054F84401F08024EEE6
:103E100064046006D1D9FFBF0119EC54077014D1B6
:103E2000D3902AEAE0902C31F0AF6C1261A7902A6F
:103E3000F5EFF0310554EFD1F6D1D9FFBF020C31C7
:103E4000054410FDE5F08DF0121F50301E2DEF647B
:103E5000046006D1D96406700FF12DBF0203D38030
:103E600001C39237D238800DF12DBF0203D38001F8
:103E7000C39237C238B119EE4F800C902AEAE0FFA6
:103E8000902835E01250F6902AEAF0D21E902AEAE5
:103E9000D1D1E924B7D1EE540F121DF0121C0AEF54
:103EA0006005E490276DF0902AF5D1D1F125E48FDB
:103EB000F0121F50902AEAD1D112489D3105D1D27B
:103EC000E92406F9E43AFAD1F7D1D3021C14902A76
:103ED000EEE0FF902AF202219E902AEAE0540F229F
:103EE000FA121D55FF902B3C12219EE92408F9E49B
:103EF0003AFAEF021DF0FFE5F08FF0021F50D237C3
:103F0000D238B119EF222409F9E43AFA902C4D0283
:103F100021BEE92408F9E43AFA22902D5B12219E91
:103F2000E92212219EE92404F9E43AFA22902AEACD
:103F3000E0FE902AF5E05407FF22902A9F1221BE4E
:103F4000902AA2EDF0A312610012362C30E502D2C5
:103F5000217F02121C00902AAB1247CA7002E1E7CF
:103F6000902AAB1261A012362C4408121DF0902A40
:103F7000A6E0FEA3E0FFF1EDE924E0B179902AA8E4
:103F800012219EC003C002C001F1EDE924E2F9E470
:103F90003AFA1221E7902AA312219E121D55FBC066
:103FA00003902A9F12219E902A911221BE902AA24C
:103FB000E0902A94F0902AA312610012362C902AE5
:103FC00095F0E4A3F0A3F0F1ED902A981221BED071
:103FD00003AD72E4FF124CFD902AAEEFF060037F58
:103FE0000122F1ED121C0F1250FF7F0022902AAB2C
:103FF00002219E12219EE924DAF9E43AFA741B7533
:10400000F0F622902DC4EEF0A3EFF0123700123933
:104010000C5407FF64026005EF6403701611552508
:10402000E0FBEC33FAEDAE047803C333CE33CED8E5
:10403000F9801C1155AE047803C333CE33CED8F9C2
:10404000FBAA06EDAE047805C333CE33CED8F92BE8
:10405000FFEE3AFE22902DC4E0FCA3E0FD22902D5D
:10406000C6EEF0A3EFF0902CC37401F0AE04AF05E0
:104070001103AC06AD07902DC6E0FEA3E0FF0219C8
:104080006C9002B5E0FD902B501278B47887122125
:1040900095EDD394085002C120123629FFEDC39F3D
:1040A0005002C120E4788EF6900413E0902773F05C
:1040B000121A2A902B50E0FEA3E07B012405F18325
:1040C000FF540F6401705BEF30E71D902B50A3E0AD
:1040D000FF240AF183C4540FFD7C00EF240BF9E4A4
:1040E0003EFAE92DF9EC8006D1222409F9E43AFAE6
:1040F000124CC3902B571221BE902B57F1F0601D2C
:1041000064186019EF64076014EFB40315902B571F
:10411000F1E11260AE122F4612609E70057FFE1212
:104120001BBF7B007A007987125871D122240412B8
:10413000362C902787F0788EE620E202410F7F012F
:10414000121C00902B52F1CA7002410FD1297F033B
:1041500012489DD122240512362C30E40DD129E9D4
:1041600024B712362C4410121DF0D129E924B1F1E4
:10417000E8902B52123FF3121F50D129E924DCF9A9
:10418000E43AFA741875F02A121F50788FE6FFD1BE
:1041900029E924BA123EEE902B5212390854F8FF46
:1041A000902773E0FDEF4D123EF6D1222405123622
:1041B0002C30E50FD129E924B712362C4420121DEA
:1041C000F0803E788A12218C121D5564017032E90C
:1041D000240112362C64187028788DE6788AB4048D
:1041E0001112218CE9240312362CFF1268428F1A17
:1041F000800F12218CE9240212362CFF12686A8F7C
:104200001AD129121C149002B0E07003121C053060
:10421000335ED122240812362C65726053D12224D9
:104220000412362C65726048902786E0FF20E31365
:10423000788EE6FE20E439EF20E235201F32EE547E
:10424000E2702DD1894440F0F193902B55E0FF307E
:10425000E3047D008009D122240812362CFEFDD112
:1042600022240412362CFBC003F1A0D003121B1031
:10427000201F0281FCE490270FF0A3F0788EE65413
:10428000426440706DD122240912362CD121240AB7
:1042900012362CFEEFC4540FFDEE54F0FEEF54F036
:1042A0007887B5060A12218CE92404F9E4800B1200
:1042B000218CD181ED7E0029F9EE3AFA121D55FFCD
:1042C000902710EFF01DD122D1827E00E92D124FF0
:1042D0007690270FF0902CC7E07002A11BE41278B3
:1042E000FE12370024BC12362C54F0FD7C00115E07
:1042F000A11B788EE620E10261CDE4F56C12370057
:1043000024B712362CFF540F6401707DEF30E76F35
:1043100012370024D812362CFFD3940A400A1237E1
:104320000024BC12362C8004902794E0902B56F089
:10433000902B56E0FE540FFDB40F028033EFD39460
:104340000A4016123700F1C3ED75830029F9E583A1
:104350003AFA121D55F56C800D74952DF582E434F2
:1043600027F583E0F56CEE54F0FFC4540FB5050A51
:1043700012370024BA12362CF56C1264BC800A1273
:10438000370024BA12362CF56C1237004A7002A19D
:104390001BD122240412362C656C6008902786E01D
:1043A0007002A11BD256902DD0E56CF01219F8D1F5
:1043B00022240512362C30E70DD122240912362C86
:1043C000540624FF921C123633C21CA11B788EE6C1
:1043D000542264207055902CC7E07002A11BD1229A
:1043E000240412362CFF6003B4EF1A1237004A601F
:1043F00014E9240912362CB4030B90268AE0D1214B
:104400002404123EEED122240512362C30E70AD1C4
:1044100022240912362C20E40DD122240412362C39
:10442000FFF18A121A161264A6A11B788EE630E4F8
:1044300002A11B902786E030E202A11BD1222408B2
:1044400012362CF4603CF18A7B012405F9E43CFA35
:10445000121D55540FFFBF0203D38001C34023D167
:1044600022240512362CFF20E41830E70AD122243A
:104470000912362C20E40BD122240412362CFF1210
:104480001A16788EE630E30A902B5012794F7B0192
:10449000D1C4305F02A11BD189E49025B5F07887A3
:1044A00012218C121D55701AE9240112362C70123B
:1044B000D122240212362C7009D122240312362C68
:1044C00060067E007F0180047E007F00EF4E700753
:1044D0009025B5E04401F0F193902B55E0FF30E3D7
:1044E000047D008004AE72AD06D122240412362C65
:1044F000FBC003F1A0D003121B10801F902CC4122C
:10450000219EEA494B6014902CC3E0600E90277FF7
:10451000E06008121976E490277FF0788EE620E4B8
:1045200009902786E020E202C120902774E0600213
:10453000C11E902773E0F56C1260B8123F0C127820
:1045400020D122240A12362CFF540FFED122240936
:1045500012362CFD30E0241EEE7887B4FF0D1221B8
:104560008CE9240512362C4440800B12218CE9245E
:104570000512362C54BF121DF08033EFC4540FFFC8
:10458000146E7029ED30E325EFFD7C00D122D1823D
:10459000127871540F7016E9240112362C5460FF02
:1045A000600BBF2005436C208003436C400ED1227A
:1045B000240A12362C54F0FFEE540F4F121DF078DF
:1045C0008712218C123629FF740AD39F4005740A82
:1045D000121DF0121D5524F6D121123F06D17A1278
:1045E00019A8C21ED122240412362CFDD12224087F
:1045F00012362CFBC003D17A902AD01221BE7887C4
:1046000012218C12362924F6902AD3F0A37481F05B
:10461000A37437F0A37475F0D003AF6CE17AC220B5
:1046200022FF788712218CE922902B5202219EE4EE
:10463000D121240512362CFD30E5037402FF788E5B
:10464000E630E704EF4480FFED540FFDBD0506EFB3
:104650004410FF8024BD0110D122240812362CB44E
:10466000FF17EF4404FF8011D122240512362C5489
:104670000FFDBD0204EF4408FF227B017A277993E6
:1046800022E9240BF9E43AFA22D12F902B55EFF0CE
:1046900022902C871221BED122F1D9C003C002C0C2
:1046A00001902C8712219E1221E7D1222408123674
:1046B0002C541F902C8A122FF1D122240812362C50
:1046C00054E0FF22902D1B1221BE902774E060025F
:1046D000E171F172240912362C4401121DF04402DA
:1046E000121DF0902D1BF1D112362CFF540FFE90AD
:1046F0002D1EF0EF54F0121DF054F0FFEE14540F85
:104700004F121DF0121D55C4540FFF902D1B123671
:1047100026FEC39FFFC3EE9F2402902D1EF0D3946C
:10472000A2400374A2F0902D1EE0FFF172123F062A
:10473000D17A1219A8902794E054F7F012795F907B
:104740002D1BF1BC12362CFBC003D17A902AD0125B
:1047500021BE902D1EE0902AD312787AD003AD723C
:10476000F17A9002B0E07009902774E06003121CA7
:104770000522902D1B12219EE922125108902774C8
:10478000EFF022F9E43EFA021D55902B50E0FCA315
:10479000E0FD227B017A2779807D06E4FF021985FE
:1047A000788A12218C902ADE1221BE788DE6902A1A
:1047B000E1F07B017A277980A30221BE12219EE9D4
:1047C00024042224BDF9E43AFA221221BEEA494B1C
:1047D0002212219EE9240A22E92409F9E43AFA2264
:1047E000FF12219EE9240222F9E43AFAE4021DF0C4
:1047F00012219E121D55FF22E4902CC3F002197164
:10480000902CC37401F0C006C007EDAE047803C35A
:1048100033CE33CED8F9FBAA06AE04ED7805C33308
:10482000CE33CED8F92BFDEE3AFCD007D0060219D4
:104830006C7B017A2779920219D0123F25EE8FF016
:10484000021F5012390BFFAEF022902CE412219E71
:10485000902D5E1221BE902D5E30202091E8FAC08E
:1048600003C002C0017B017A287936123F0CD001C7
:10487000D002D0037F041219A8C2202291E8FAC006
:1048800003C002C001122F46123F0CD001D002D04B
:10489000037F040219A8FF902CC412219E902CE4DF
:1048A0001221BEEF540FFE91B824B812362C54F0EA
:1048B000FDEF54F0FFC4540F4D121DF0EE1460696B
:1048C00014700261A724FE700221E324FE700281AD
:1048D000132403600281A191B824B2F9E43AFAC02A
:1048E00003C002C001122F46123F0CD001D002D0EB
:1048F000037F041219A891B824B6F9E43AFAE572D4
:1049000091B591D2740391B524B812362C54F0FFAE
:10491000902835E0540F4F91B524B9F9E43AFA7470
:104920000A91B591CB7409819E114A91B891D274C4
:104930000191B5240212362C30E02320E702800AD0
:10494000902794E0540FFFBF0F0C91B824B7123694
:104950002C4440121DF091B891C47403800691B8A4
:1049600091C47401121DF091B8240212362C30E16A
:104970000C91B824B712362C4420121DF091B824A3
:104980000212362C30E70C91B824B712362C448032
:10499000121DF091B8240212362C30E70B91B82486
:1049A000BA12362CF153700C91B824BB12362C5429
:1049B000F7121DF091D991B824B812362C549FFEED
:1049C000EF54604E91B524BA12362CFF91B824D919
:1049D000123EEE7F0991B824B112362C91A291CBF0
:1049E000EF819E91B8240212362C20E60241859177
:1049F000B8240912362CF192902CE8F07404C39E6E
:104A0000500B7404F0EF540F4440121DF0902CE84A
:104A1000E02402FF91B824BBF9E43AFAC003C002D3
:104A2000C00191B82408123F08D001D002D003126F
:104A300019A891B824B112362CFF902CE8E0240379
:104A4000FDE433F1EA984036121D55FF902CE8E062
:104A5000FE2403FDC3EF9DFF91B5123F13C003C0B9
:104A600002C001EE240AFDE433FC91B82DF9EA3CC2
:104A7000123F0BD001D002D0031219A8800791B8C1
:104A800024B11247E8114A91B824B791F4448091B7
:104A9000B5240212362C902CE430E00691C0740349
:104AA000800491C07401121DF091B824BBF9E43A5E
:104AB000FAE491B524BA12362CFFD25D121B24EF12
:104AC0007002615991B824B612362C657260026189
:104AD0005991B824BB12362CFF20E07D91B82403F5
:104AE00012362C20E47391B824BBF9E43AFAEF446F
:104AF0000891B524BC12362C902CE4F1AD1247C3BA
:104B0000F183E491B524BC12362CC4540FFF91B844
:104B100024BDF170441091B524BA12362CFFC25D49
:104B2000121B24C00791D9EF1313543FFED0E04E5F
:104B3000FF91B824BC12362CC4540FFD7C0091B8F0
:104B40002DF9EC3AFAE924BEF9E43AFAEF91B512FC
:104B5000390C549F123EF6800C91B824BB12362CAF
:104B600054F7121DF091B824BB12362C30E31A9181
:104B7000B824BC12362CC4540FFF7E0091B824BD5B
:104B8000F170C4540F04FF80027F0091B824BC125E
:104B9000362CC4540F240B2FFF91B824B112362C9D
:104BA00091A291CBEF819E114A91B891D27402915A
:104BB000B5240212362C30E10C91B824B712362CF1
:104BC0004420121DF091B824BAF9E43AFA741D9108
:104BD000B524BBF9E43AFAC003C002C00190277BB8
:104BE00012219E123F0CD001D002D0037F1D12195A
:104BF000A891B891C47401121DF07F2691B891CB91
:104C0000EF91B524B112362CFEEF042EFF91B8912E
:104C1000E0819E91B824B812362C540F902CE7F006
:104C200091B8240212362C20E645114A91B891D24F
:104C3000740591B5240212362C30E10C91B824B7DA
:104C400012362C4420121DF091B824B812362C5480
:104C5000F0FF902CE7E04F91B5240212362C30E0A3
:104C60001B91B824B712362C4440121DF0800D91D0
:104C7000B824B1F9E43AFA74FF121D9B91B891C4BB
:104C8000740191B591CB741191B524B112362CFFFA
:104C900091B824D812362C2F04FF91B891E0121D40
:104CA000F022FEEF042EFE902CE412219EE924B99E
:104CB000F9E43AFAEE121DF0902CE412219EE9225A
:104CC00012219EE92401F9E43AFA2224D8F9E43ABF
:104CD000FA2224B7F9E43AFA22C25DAF72021B2429
:104CE00024B9F9E43AFAEF2212219EE924B2F9E458
:104CF0003A2224DFF9E43AFA7401021DF0902A8F77
:104D0000EDF0A3EBF0902A9C7401F0902A9EEFF056
:104D1000902A95E0FE54C0703C902A94E0FDD39414
:104D20009F40037F0022902A90E0B4FF09EDD394C6
:104D30003640037F002230210C902A94E0D3942E39
:104D400040037F0022EE20E40C902A94E0D3949755
:104D500040037F0022902A8FF14924B6123EEE9044
:104D60002A90F14924BA123EEEF14B24DF1247E8B3
:104D7000302130C221EFF4601E121B15EF60189035
:104D80002A90E0FF121B1AEF5407C39403402890A7
:104D90002A90E0F1537020F14B2403F9E43AFA74BD
:104DA000018011902A95E030E60D902A9C7404F061
:104DB000F14BF19A121DF0902A95E05490706E908C
:104DC0002A9CE064017066902A90E0FF902A981275
:104DD000219E121A1B504EF14B24BC12362C54F05B
:104DE0006006902A9C7404F0902A98123908546046
:104DF000600CF14B240312362C4410121DF0F14BC1
:104E000024DFF9E43AFA7402121DF0902A9EE0546D
:104E100098F0E0FF902A981239085467FEEF4E9000
:104E20002A9EF08008F1635004F14B91F2902A9091
:104E3000E0FDB4FF07902A95E054FAF090270CE0CB
:104E4000902A9BF18AAF05121A024002F15B902A68
:104E50009BE090270CF0F14B24DF12362C6002C14E
:104E6000FA902A9CE064016002C1FAF1635002C129
:104E7000F6902A95E054846404707790276DF0F1E1
:104E80004B24BA12362CFF7B017A2A799D902B088D
:104E90001221BE7A2A799BF1C3605FF14BF1B89081
:104EA0002A9DE0FFC454F0FEF14BF1A3F14B1247F1
:104EB000C3C003C002C0017B007A007990123F0C8E
:104EC000D001D002D0031219A8902A98123908FFF5
:104ED000902A9BE0FDF17DF14B123F26E48FF0120A
:104EE0001F50902A9C7404F0902A9BE0902A9EF018
:104EF0008008F15B8004F14B91F2F14B24DF123614
:104F00002C70057404121DF0902A9EE0FF902A9CDC
:104F1000E0FD902A94E0902AEEF0902A95E0902A05
:104F2000EFF0902A96E0FBA3E0902AF0CBF0A3EB01
:104F3000F0902A9812219E902AF21221BE902A9176
:104F400012219E123D837F0122E0FF902A981221B8
:104F50009EE922FFC25D121B24EF22902A95E054A5
:104F6000FBF022902A8FE0FFA3E0FD021A07240B3A
:104F7000F9E43AFAE92FF9EE3AFA021D55EF54F83E
:104F80004DFF22E92FF9EE3AFA22F090270C740136
:104F9000F022FF54F0C4540FFE2224DFF9E43AFA61
:104FA00074052224BCF9E43AFAEE021DF0C4540F51
:104FB000FF7E0012219EE92224DFF9E43AFA74030D
:104FC000021DF0902B0B1221BE1B7A0079907D01FF
:104FD000121A0CEF22FF90042FE0FD90042BE02D1D
:104FE000FDE433FCED2401FDE43CFCD3EF9DEC64D7
:104FF00080F8748022902AF81221BE902AFF74064D
:10500000F0902AFBE0FE7411D39E40030250EA7434
:10501000409E500201EA7F02121C00902B001247B2
:10502000CA700201EA902AFFE0301E0DFED237D28C
:1050300038123D19EE4FF0800FFF902AF811EF1251
:10504000362C11F6902AFFF0902AFCE0902B0012EB
:1050500047E0123EEE902B00123F22E475F0021260
:105060001F50902B00124CE8FAC003C002C0019000
:105070002AF812219E123F0CD001D002D0037F11DA
:105080001219A8902AFBE024EFFF902B0012219E1A
:10509000E924B1123EEE902B0012219E123F12C065
:1050A00003C002C001902AF812219EE92411123F88
:1050B00008D001D002D0031219A8902B00123FF3A0
:1050C000121F50902AFDE0FEA3E0902B00123D72CB
:1050D000D21E902AFFE0FFA312219E12489D902B22
:1050E0000012219E121C147F0122D21E7F00221268
:1050F000219EE9240622540FC454F0FEEF4E22C232
:1051000021D21E22AD72E4FF902ACD31BD7F021262
:105110001C00902AD71247CA605A902ACDE0FFA3FC
:10512000E0FD902AD012219E902A911221BE902A51
:10513000D3E0902A94F0902AD4E0902A95F0902A17
:10514000D5E0FBA3E0902A96CBF0A3EBF0902AD712
:1051500012219E902A981221BE902ACFE0FB124C79
:10516000FD902ADAEFF060037F0122902AD7122106
:105170009E121C0F11FF7F0022902BE81221BE907F
:105180002BECE05437F030E502D221902BECE044D8
:1051900020FEF0C21DAB07C003902BE812219E90A9
:1051A0002AD01221BE902BEBE0902AD3F0A3EEF090
:1051B000902BED12789CD0032104EEF0A3EFF0A326
:1051C000EDF0A3EBF022902C3B31BD902C4174010B
:1051D000F0C2507FE87E031237EDD17D5005E5FC2B
:1051E00020E6F7D188BF0108E4F5FC75FC40800794
:1051F000D188BF0202D32275FF0153D8EF902C3C17
:10520000E0FF12737C75FF0153D5DF53FAFB902C3E
:105210003BE0FF1266E4902C3CE0902C3BB4080984
:10522000E051E62452917F8004E051E6FF126EA522
:10523000902C3DE0FF1273F675FF0175FF03759B1F
:10524000047FE87E031237ED75FC42E5FC20E104A3
:10525000D17D40F4902C3EE0F075FF03E59B20E704
:1052600004D17D40F4E59B20E70D75FF03759B1F7E
:1052700012735FD250805B7B017A2C7941126FF4FC
:10528000902C3CE0FD90120FE05D7020902C3BE0F4
:10529000FF7B017A2C79411271C490120FE0FF90CC
:1052A0002C3CE0FEEF4E90120FF09142126CB47B5A
:1052B000017A2C793F126C48500FC3902C40E09437
:1052C00020902C3FE0940340E67B017A2C79411238
:1052D0006F9BF19830500221CB902C41E0B4010338
:1052E000D38001C322EB25E025E02401F582E434DC
:1052F00012F583E0FCA3E0FDA3E0FEA3E022902AE8
:105300004612214375FF0243E18012735FF1A190C1
:105310002A5B12214F002DC6C0E4F5FFF5A49012C0
:105320000EF0A3F0902A567402F0F1E2FFF595EF2B
:1053300014601314601C24027027902A4651F3D184
:1053400076902A528016902A4A51F3D176902A53A9
:10535000800A902A4E51F3D176902A54E0902A5F29
:10536000F01271B7902A5FE0700FF5FFF59675FFA8
:105370000175D70975F418805A90120EE004F09068
:105380002A56E0127957902A5B51F3FF902A57F181
:10539000F3C31220CA500A902A5751F3FFA31221D7
:1053A00043902A5FE0FF127038902A55E0FFA3E097
:1053B000FDA24F924D127165A351F3FF902CEF1295
:1053C0002143902A56E0FFB1D6902A56E051E6FFDD
:1053D000126EA5F1EA6002612A7402F0F1E2F5951D
:1053E000E5F45407701A902A5B916078011220DB73
:1053F000902A56E0FBD16812214351E5FF126EA5B9
:10540000F1EA70D875FF03759580F1DA400343F433
:1054100020A24F924E127097902A5B51F32420FFE6
:10542000EE344E9182E4FB7A04F9F891707801121F
:1054300020DBC24C126CCFE4F5FFE5BD54F8440408
:10544000F5BD9012137401F07E127F01E4FDEF2D83
:10545000127947FC901213E02CF00DEDB412EF22FC
:10546000FF7E04FDFCE0F8A3E0F9A3E0FAA3E0FB73
:10547000121F7CE47B7DFAF9F8122007EF2401FF6C
:10548000E43EFEE43DFDE43CFC22902B2612702F0E
:10549000902B2C12214F00000001902B307401F052
:1054A000F5FFE5D554C070051265095002C322E42A
:1054B000F5FF53967F75FF0175D504F19175FF01D6
:1054C00043D508E4F5FF5394FBF5FF53847FF5FFC4
:1054D0007598FF902B2AE5F4F075F49C75FF01A3F5
:1054E000E5E4F075E4257B017A2B7930126FF490B6
:1054F0002B30E064016002A1B4F5FF902B297414F5
:10550000F0902B2C51F3FF78011220EE902B2C12EF
:105510002143E5A730E1FB43A702902B2C51F3FF79
:10552000E5A730E005E47B018002E4FBFAF9F8EF3F
:105530004BFFEE4AFEED49FDEC48FC902B2C12216E
:1055400043902B29E014F070B8902B2C51F3FF7886
:10555000101220DB7B6D7A4E79C67841121F7CEFEA
:105560002439FFEE34309182E4FBFA7901F81220FD
:1055700007EE547FFEE4FDFC127352902B2C51F386
:10558000FFEB6FFFEA6EFEE8CDEFCDCCEECCECFF8B
:10559000902B26127026EF121DF0902B26127026EB
:1055A000900001ED121E0290120FE030E606E4F5C5
:1055B000FF75968075FF01E4F5D5902B2AE0F5F490
:1055C00075FF01A3E0F5E4127086902B30E0B40182
:1055D00003D38001C322902CEEEFF0E4A391607816
:1055E000011220DB902CEEE0FBD1681221439012D7
:1055F00010E0FF64806070EFC3947F5038EBD16897
:10560000C083C08251F3FFEEC0E0EFC0E090121003
:10561000E075F004A4AEF0FBCAEECAEA3395E0F9F7
:10562000F8D0E0FFD0E0FEC3EF9BFFEE9AFEED99CD
:10563000FDEC98802A902CEEE0D168C083C082F106
:10564000F3901210E0F40475F004A4FFAEF0EE3312
:1056500095E0FDFCEB2FFFEA3EFEE93DFDE83CFC5A
:10566000D082D0831221432225E025E02401F58257
:10567000E43412F58322FF902A5702214375FF0379
:10568000E591C330E701D3227FFAD1B2E5FC30E6E1
:1056900004D17D40F7E5FC30E6037F032275FF016E
:1056A000E5D530E6037F0222E5D57F0030E7027FB3
:1056B00001227E00F17475FF034391802275FF0182
:1056C000E5D520E702C322C2521273B1203B02E1AA
:1056D0006253F4DF902D67E0FF1266E475FF01432B
:1056E000D810303C0543F440800353F4BFE4F5FF89
:1056F00053F5F0902D68E0FAA3E0FBEA42F5EBF5F4
:10570000F6D2521273B17FC8D1B2E4F5FFE593200F
:10571000E604D17D40F4303C59E5F430E3047D28C3
:105720008010E5F430E2047D288007E5F430E102E2
:105730007D28F1D37F28D1B2D17D40FC7F78D1B2D2
:10574000D17D502EF1CC50F81273FCEFC39D50F078
:10575000F1CC50ECE5F720E5E7C2521273B1F1D37A
:1057600080DE53F4BFF1DA400943F42075FF0153A2
:10577000D8EFD32275FF03D3EF9402EE94004008D4
:1057800074FE2FFF74FF3EFEEFF592EE540FF5917D
:10579000227F3FFEF174D1B675FF03E59120E7FB50
:1057A0002275FF01438E1075FF0153DB7F75FF01EA
:1057B00075D5027F14D1B2F19875FF01438E107533
:1057C000FF0143DB8075FF01E4F5D52275FF01E59C
:1057D000E4332275FF03E4F5912290120EE0D39496
:1057E000012275FF03902A56E022902A56E0FF140A
:1057F000F0EF22E0F8A3E0F9A3E0FAA3E0FB22EF48
:10580000540F24FE601614601714601824037019D6
:10581000EF30E7047404800E7401800A740280067D
:10582000740380027405121DF022902779E0D3944E
:10583000004008E014F0D3940050061247F81239E3
:105840001522E4902774F0221169601890277AE0FD
:10585000FEEF6E600F902774E0600C902835E054E6
:10586000BFB50603D38001C322902835E0FF540F53
:1058700022902B3C1221BE1221C7902B431221BE35
:105880001237DFE4121DF0C21F902786F0902B43E1
:1058900012219E123F0C1260BA7F041219A8205FD9
:1058A00017122F461260B27A27797512609E60082F
:1058B0001236234480121DF012362330E77D300665
:1058C00029201877126090240512362C20E76C12DC
:1058D00060901247D9E9240112362C6403705C12DF
:1058E00060901260A51260987051E5436403604BAC
:1058F000E543B40109902689E0C39402403D302974
:105900000E126090240512362C540F6405602C1280
:105910006090240512362C20E702E1A41260902446
:105920000A12362C12608A124682E92FF9EE1260B2
:10593000A9122F4612609E6002E1A4126090240614
:1059400012362C540FFF902773E07E00B402027EC3
:1059500080EF4E902835F01237004A6047E924B7AF
:1059600012362CFF7B017A2B793F1257FF1237003A
:1059700012390C5407FF12370024B812362C540F7A
:10598000FE902B3FE0540FFDBD04047D4080027D5E
:1059900000EE4DFEEF7F00B402027F80EE4F9027B5
:1059A0007AF0800690277A74FFF012609024051236
:1059B000362CFF540F24FE7002C1CA147002E16F2E
:1059C00024FE7002E19924046002E1A4902B4312AA
:1059D0003626FE740AD39E40061237DFE4802FEF8E
:1059E00020E702C168902835E04440F0126090241E
:1059F0000A12362CC4540F902B40F0600CE0FFD3F9
:105A000094045005740B9E40081237DF7480021D09
:105A1000F0126090240912362C30E12530E32290F8
:105A20002B43123626FDEF240DFFE433FEC3ED12A7
:105A30007829500D126090240912362C54F7121D4B
:105A4000F0126090240912362C902B4330E352124E
:105A500047D112362C12608A124F6EFFC4540F29A0
:105A6000F9EE3AFA124CC3C003C002C00112619DA4
:105A7000F9E43AFA1221E7126090240A12362CC493
:105A8000540FFFFD7C00126090124682127871C4A0
:105A9000540FFE902B43123626C39FC39E24F380DF
:105AA000311247D112362C12608A124682124F836D
:105AB000C003C002C00112619DF9E43AFA1221E765
:105AC000126090240A12362C12790F12362624F412
:105AD000C39FFF902B3C1250EF123EEE12609024B9
:105AE0000912362CFF30E10712362344208009EFDB
:105AF00030E2081236234440121DF0126090240850
:105B000012362C657260028107126090240A1236E8
:105B10002C540FFF902B40E06F600261B09027740F
:105B2000E06002A1B5126090240512362C902B3C47
:105B300030E607123626440D800512362644091237
:105B40001DF01260901246827E00E92F12784D12ED
:105B50003EE012362330E702A1B512609024051210
:105B6000362C20E702A1B5126090240A12362CC40C
:105B7000540FFF126090124F6ED394014002A1B5F2
:105B8000E9240112362C64036002A1B5126090244E
:105B90000A12362CC4540FFF126090124682124F24
:105BA00083E92403123F087B01127820D220A1B59B
:105BB000126090240A12362C540F640F6002A1B5B3
:105BC000126090240512362C30E608123623440465
:105BD000121DF01148501B126090240A12362C122C
:105BE000790F12219E1237085008123623440112F1
:105BF0001DF0126090240B12362CFF902B3C1221CA
:105C00009E123F12EFA128126090240A12362CFF38
:105C1000540FFDEFC4540FFCEDC39C4002A12D12A4
:105C20006090124682ED7E0029124F766572600206
:105C3000A12D126090240912362C30E069114850D1
:105C4000091236231277ED7405F0EC14902B43B54E
:105C500005051247BC801112219E124681ED7E007F
:105C600029F9EE3AFAE9240112362C123EE4ED60ED
:105C700002A100126090240912362C20E302A10038
:105C8000126090240A12362C12608A124F6E540F42
:105C9000706EE9240112362C5418606412362344C5
:105CA00004121DF0805AED902B4370081247BCF986
:105CB000E43A800D12219E124681ED7E0029127871
:105CC0004D123EE0EC146D702F12609024091236D4
:105CD0002C30E324126090240A12362C12608A12AF
:105CE0004F6E540F7012E9240112362C5460600874
:105CF0001236234404121DF0EC14B5050312796723
:105D0000902774E06008902786E07002A1B51260C9
:105D100090240512362C902B3C30E6071236264490
:105D20001480051236264410121DF0A1B5126090A1
:105D3000240A12362C540FFD114850791260902419
:105D40000912362C30E033ED2402540FFD1260901E
:105D5000240A12362CC4540FFFEDC39F5057126013
:105D600090124682ED7E0029124F766572704612BF
:105D700036231277ED7401F0803BEDC39402403579
:105D8000126090124682ED24FEFFE434FFFEE92FFC
:105D9000F9EA3EFA121D55B572091236231277ED53
:105DA0007401F0126090240A12362CFFC4540FB50F
:105DB0000503127967126090240412362C65726014
:105DC000271237004A607712370024B21260AE12F1
:105DD0006098706A12370024B612362CFF12609059
:105DE000240412362C6F70561148505212609024C1
:105DF0000A12362CFF540FFE1237004A6040E92485
:105E0000BA12362CFD126090240812362C6D702EBA
:105E1000126090240912362C30E016EFC4540F247F
:105E2000FE540F6E70181236231277ED7403F08053
:105E30000DEEB401091236231277ED7401F0203310
:105E400002E1A4123623FF6002E1A4126090240A4A
:105E500012362CFEC4540FFDEE540F6D7002E1A4F7
:105E60001237DFEF4480E1941260901247D9C003EB
:105E7000C002C00112619DF9E43AFA1221E7902BA9
:105E80004312362624F6FF902B3C1250EF123EEEC2
:105E9000126090240812362CFF65726006EFF460E1
:105EA00002E1A41236234401121DF0126090240472
:105EB00012362C123EE4126090240512362C20E695
:105EC00002E1A41236234404E194126090240812E3
:105ED000362C541F12608D1247D9124F83C003C055
:105EE00002C00112619DF9E43AFA1221E7126090B2
:105EF000240812362C541FFF902B4312362624F60A
:105F0000C39FFF902B3C1250EF123EEE1260902484
:105F10000812362C54E0FDE572D39D5002E1A41224
:105F20001D55541F75F008A42D12792FD3E5721258
:105F300078295070126090240812362C54E0FFC368
:105F4000E5729F14FF1260901247D9EF1313135498
:105F50001F29127873FEEF5407FF7401A807088009
:105F600002C333D8FC5E603C123623440180251204
:105F700036234402121DF01169600990277AE0541B
:105F8000BF6F7020126090240812362CB572151263
:105F900036234401121DF0800B902B3C12219E12DF
:105FA0001BC4921F126090240512362CFF540F64FC
:105FB000016003026081EF902B4330E7121247D15A
:105FC00012362C12608A124F6E902B42F0801412FF
:105FD000219EE9240912362C902B42F0A312219E17
:105FE0001247D8E9240112362C902B41F0123623A7
:105FF000FFAE4320060DEE64036008EE640160030B
:10600000026081EF546364017077902B42E0D39477
:1060100001506630066B902B41E0FE64086062EE32
:1060200064096004EEB40404EF30E755902B41E0BE
:1060300064037045EF30E74930180A119011A5113B
:10604000BA119E603C11901247D9E9240412362CF3
:10605000FF11901247D9E9240312362C4FFF1190FB
:106060001247D9E9240512362C4FFF11901247D957
:10607000E9240612362C4F600812362354EA121D0A
:10608000F012362330E002D21F22C4540FFF7E00EC
:10609000902B4312219EE922902B4312219E7F04D4
:1060A0001219ADEF222409F9E43AFAE92403F9E4DC
:1060B0003AFA902C540221BED2207B017A277975BE
:1060C00022E94A600789828A831222E922902BA85A
:1060D0001221BE902BAC1247F0902BEBEDF0902BE1
:1060E000AC310012362C902BECF0902BAF31079096
:1060F0002BA812219E125179EF7F0060027F0122AE
:1061000012219EE9240122E0FDA3E0902BEDCDF0C9
:10611000A3EDF022902BF01221BE902BEFEFF012A6
:106120001B9250037F0022902BEFE0FFA312219ED1
:10613000902BF3E0902BEBF0902BF4E0902BECF015
:10614000902BF53107025179902C8D1221BE902CA5
:106150009012219E7D05E4FF121985902C8D31004F
:1061600012362CFF902C90122FF2902C90124CC0D3
:10617000E4121DF0902C8D12219EE9240512362C7C
:10618000FF902C9031A0123EEE902C8D1247BC1245
:10619000362CFF902C90123F22EF021DF0902B3CEA
:1061A00012219EE9240322902C2E1221BE902C2D28
:1061B000EFF065726074E57264EF606EE0FF64EFAB
:1061C0006068121B15EF6062902C2DE0FFAD72121B
:1061D0001B9C902C32EFF0902C2DE0FFD25D121B17
:1061E00024902C31E0540F64017061EF605E51A780
:1061F00024DF12362CB4020D902C2E31A012362C36
:106200004410121DF0EF5460FFBF20047F20800275
:106210007F40EF4402902C32F051A724BA12362C62
:10622000FF51A724D9123EEE8022902C2DE0FF656D
:10623000726013902787E0FEEFB5060A902773E09F
:10624000902C32F08006902C327401F0902C32E0C9
:1062500054076401604B902C31E0540F640470418A
:10626000902C33F051A724BC12362CC4540FFF904D
:106270002C33E0FEC39F502951A71247C3EE7E0086
:1062800029124F76FF902C32E05407FD121B9740E5
:1062900008902C327401F08008902C33E004F080D8
:1062A000C3902C32E0FF22902C2E12219EE9221264
:1062B00037004A600BE9240212362C30E502D21D69
:1062C00022EF600490283AF090278BE0FF90277B24
:1062D00012219E1219E490278BEFF0604E201D4B87
:1062E000902788E0C330E501D3922190283B12210A
:1062F0009E902AD01221BE902789E0902AD3F09058
:10630000277E71387462F0A374C1F090278BE0FB94
:10631000125104EF702190283A7402F0902771E036
:10632000FEA3E0F5828E837F02800990283AE090F8
:106330002771713F1222E922E0902AD4F0A322FFB4
:10634000E0FCA3E0FDF5828C8322C003C002C00103
:10635000902B4912219E902AC21221BE902B4CE014
:10636000902AC5F0902B4DE0902AC6F0902B4EE07D
:10637000FFA3E0902AC7CFF0A3EFF0D001D002D066
:1063800003AF72902ABE1237F6902AC97403F090B8
:106390002AC6E05437F0E0FE5420902788F0902A77
:1063A000C7E0FDA3E0902771CDF0A3EDF0919790A9
:1063B000283B1221BE902AC5E0902789F0902ABF81
:1063C00012219E90277B1221BEEE442090277EF062
:1063D000E490283AF0C21DF56C902ABF12219EAFBE
:1063E0006C1219E48F6CEF602A7D03121B9740E951
:1063F000902AC5E0D3941940037F0022AF6C121B92
:10640000925008902AC97401F08008902AC9740239
:10641000F080C6902AC5E0D3948240037F00227F9B
:1064200002121C00902ACA1247CA605A902ABEE083
:10643000FF902ACA12219EE924B6123EEE902AC687
:10644000E0FE30E01BE490278BF0919DEE6401A309
:10645000F0A37462F074C19189902AC9E0FF801E94
:10646000902AC9E0FF919D902AC6E0902AEFF09013
:106470002771E0FDA3E0902AF0CDF0ED91897D0237
:10648000123D837F01227F0022A3F0902ACA1221AD
:106490009E902AF21221BE902AC202219E902AC505
:1064A000E0902AEEF02212370024BA12362CFF7D3B
:1064B00001121B421247F87F01021BF1902786E070
:1064C00030E11191D59002B0F0E0D394F94003741B
:1064D000F9F0D2AD22C2AD90294CE0A3E022E490C5
:1064E000278AF0C21DC220902774F0D21E22B10963
:1064F000500691FA50028001C322E5F754E024FFD0
:1065000022C2EBA2ED9239C2EDE5F4C330E701D32C
:1065100022E5147027B1015005C2511234171273CD
:106520005F7F08121D4FB148E5D120E0FB431520E5
:106530005315FEE4F510A23992EDD322C322E4F5FF
:106540001480CEC251123417E4F5FFE5D154FE4455
:1065500002F5D122B143E5D120E0FBE4F5FF75D986
:1065600008900413E07F00B403027F01D1E4D1A6B8
:10657000D251123417E4F51022C0E0C0F0C083C03D
:1065800082C0D075D008C0FF1256888F18E51864F5
:10659000027052E51424F8604224076002C1999009
:1065A0000424127816702AAB1CAA1DA91ED1BFADF7
:1065B00016AF1F1269AAE4FB7D01FF12696175FF26
:1065C000001278F543FA0475FF00D1AC751408C1C8
:1065D0009943FA0475FF00D1ACC199C2EB75140060
:1065E000431504C199E51864016002C19912749DB4
:1065F0004002C199E5107054D1B3E0900447F01205
:1066000073D2126902900413EFF0900447E0FFD3B5
:1066100094094056900413E0D39402400CEFD394B5
:10662000AA7F0040027F01800D900447E0D3944090
:106630007F0040027F01EF6002802F900447E0FF5F
:10664000F51675FF008FD9751003804DE5106403B2
:106650007047F5FF900413E0C39403E5D35005544D
:1066600002FF80035401FFEF6004B154802BC2513C
:1066700012341775FF00B14BE5D120E0FBC2EB43AC
:106680001502751000900413E0B403071516D1B37A
:10669000E516F09002B5E516F0D0FFD0D0D082D04C
:1066A00083D0F0D0E03243FA04E4F5FF53D1FD4348
:1066B000D10122E5122407F582E43511F58322E4A5
:1066C000F5FFE9126BD9EA540F42D6224315015364
:1066D00015DFF1001268874004E4F514225315FB1E
:1066E000D1A6D32275FF01E5D530E602C322E4F539
:1066F000FF439A80EF127957E4F5FF539A7FD32234
:10670000EF30E303AF1322AD1B203A04EE30E00B71
:10671000E517C394F05021F13B8018E51A6006FD9F
:10672000E4F51A8013E517C394F0500CE517540FE5
:10673000FF6005126842AD07AF0522900415E0FD29
:10674000FFC3740E9FFFE49400FEEFC4F8540FC81B
:1067500068FFEEC454F048FEE51754F0C3127829E0
:106760007F005002AF0522902D2FEFF0A312702F63
:1067700075FF01125688EF64016002C322E5F43010
:10678000E602C3227FE87E031257741256B61274D3
:1067900082400122C251123417902D2FE0FFD1E424
:1067A00053F4DFD2511234177F787E00126C697572
:1067B000FF0153E4BFE5E430E7FB75FF01E4F5EAD0
:1067C00075EAFF7F8A126DC230E606127023E480FC
:1067D0000875FF01127023E5D9121DF075FF014302
:1067E000E4401257DA400343F4201274824001223D
:1067F000D322AF14EFC36001D322EFC3940E500530
:10680000900415EFF022E517540FFF22E517C3940B
:10681000F0501F5317F01135FE740FC39F4005EE63
:10682000940E400543170D8003EF4217E517540FF0
:10683000FF227F0022E517C4540FFEEF9018E89363
:106840002E221135FFC3940E40027F0DEF9018CA1F
:1068500093FF22E51754F0C4540F2FFFC394104048
:10686000027F0FEF9018D893FF227E10EE60091E72
:10687000EE9018D893B507F4EEC3940E40027E0D47
:10688000EE9018CA93FF22900433EFF0900414E0C6
:1068900024FD601F04700E9004347401F0900432E3
:1068A0007404F080199004347401F0900432740878
:1068B000F0800BE4900434F09004327402F07F0115
:1068C000121D4F900434E0FF900432E0FDA3E0FB82
:1068D000E4902C3EF01251C650E9D322C2AFEF42F1
:1068E00015D2AF22C2AFEFF45215D2AF227F021100
:1068F000E49002B4E09002BCF09002B404F0C394BF
:106900000222EF24FE600C24FE600580007F01223D
:106910007F02227F03229004383195751401E4FB35
:10692000FDFF31617B017A0479161266BFE4FD7FB9
:106930000231AA319E9004167455F0900438E0900C
:106940000417F09004147402F090043AE0900424C8
:1069500030E507E4F0A3743CF022E4F0A374F0F017
:1069600022E4F5FF75D102E5D120E0FBE4F5FFF567
:10697000D1EF6008E4F5FF43D2808006E4F5FF53D1
:10698000D27FEB6006E4F5FF43D104ED6006E4F549
:10699000FF43D10822EFF0A3ECF0A3EDF022E4F5E1
:1069A000FFE5D25480440AF5D222E4F5FF8FD4F5F6
:1069B000FFCFEDCF8FD522E51520E508126543E521
:1069C000D120E0FBE4F51022900424E0A3E0FF22B4
:1069D00090043EEFF0ED24FE60191460262402704E
:1069E0003BEB2402FFE43AFE7C007D50121E247D26
:1069F00060801E5144C333CE33CED8F9FF7C007D76
:106A000028800E5144C333CE33CED8F9FF7C007DAD
:106A100064121E3690043FEEF0A3EFF090043EE0C7
:106A2000514FC083C082122137900440E02401FFFF
:106A300090043FE03400FEE4FCFD121F6FD082D0D2
:106A400083022143EB2401FFE43AFEEF7803222581
:106A5000E025E02418F582E43404F58322EF514F59
:106A600012211B022101E4FFFEFDFC900418517B62
:106A700090041C517B900420022143122143E4FF27
:106A8000FEFDFC227F017E009017FCE4935EFE7405
:106A900001935F4E24FFB322900001740193B40070
:106AA00007E493B41802C322D322EF7011ED6007FC
:106AB00075FF0143AE012275FF0153AEFE22EFB414
:106AC0000110ED600775FF0143AE022275FF01530F
:106AD000AEFD2275FF02E5E630E2037F0322E5E624
:106AE00030E3037F0022E5E630E1037F0422E5E6A0
:106AF0007F0530E0027F0122EF600775FF0253E659
:106B0000BF2275FF0243E64022EF14600F146014A9
:106B1000240270188B8075FF018DFD228B9075FF0C
:106B2000018DC9228BA075FF018DCA22AF038FB0E2
:106B300075FF01AF058FCB22902C351221BEEF14CB
:106B4000601414601E24027027717EE58071841227
:106B5000219EE5FD8025717EE590718412219EE5E0
:106B6000C98018717EE5A0718412219EE5CA800B50
:106B7000717EE5B0718412219EE5CB021DF0902C50
:106B80003802219E121DF075FF01902C3522E4F58C
:106B9000FFAF9122E4F5FFAF922243FB1075FF0295
:106BA00043E640EF600D75FF02E5E120E7FB43FBA4
:106BB0000D800343FB0E80FEE4F5FF75D102E5D1A5
:106BC00020E0FBE4F5D1F5FFEF71D9EE540F42D68A
:106BD000E4F5FFCFEDCF8FD422F5D7E4F5FF53D600
:106BE000F022E4F5FFEFF5D8E4F5FF53D60FEE54AD
:106BF0000FC4F854F0C8E4C4540F4842D622E4F558
:106C0000FF8FD422E4F5FFE5D1540133333354F838
:106C1000FFE4F5FFE5D354074FFF22902D1FF17BD2
:106C20007A2D792191485014902D21E0FEA3E0FFA8
:106C3000902D20E09F902D1FE09E400B902D1FE097
:106C4000FEA3E0FF12577422915DAD94EF4D91AC1D
:106C50008FF0121F50E591C330E701D32275FF0377
:106C6000AF93EF75F010A4FF22CDEFCDCCEECC9119
:106C70005DAB94EF4B91ACCBEFCBFAE59130E71DD8
:106C80009160A994E9F582EF4582FFEB2DF582EA48
:106C90003CF583C3EF9582E5F0958340DEE59120D6
:106CA000E709CEECCECFEDCF1257942224FBFFE5BF
:106CB000F034FF22E4F5FF75C2E17F1EB1C230E778
:106CC00007E4F5FF75C2A122E4F5FF75C2812290A9
:106CD0002A78122143E4F5FF75BB0575BB8575FF66
:106CE0000175D502204C0512579191B475FF0143EF
:106CF000D520304C02A19CE4F5FF538EF7438E075C
:106D00007D04E4F5FF8DBCF5FF43B102E5B130E24F
:106D1000FBE4F5FFAFDFEFFEACDEECFBEBFFED25B8
:106D2000E02476F582E4342AF583EEF0A3EFF0E474
:106D3000F5FFF5FF53B1FD0DEDB40CC6902A7812A6
:106D400052F3FF78091220DBA3EEF0A3EFF0E4FD8D
:106D5000ED25E02480F582E4342AF583E0C313FABC
:106D6000A3E013FBEDB1B6D1E12BFFEE3AFEEDB19E
:106D7000B6EEF0A3EFF0ED240490120DF0EDC39405
:106D8000075019CFEDCF0DEFB1B6E0FEA3E0FFC382
:106D9000902A7DE09F902A7CE09E50B4E4F5FF7538
:106DA0008EC8F5FF90120DE0F5BCE4F5FF75BB80D1
:106DB00075FF01F5D52225E0247EF582E4342AF51D
:106DC0008322FE916990120FE022E4902D27F0A318
:106DD00004F0E4902D2AF0E5FA30E1FB75FF01E5BF
:106DE000D530E7037F0022E4F5FF75E50875FF0164
:106DF00053D8EFE5D530E61A75FF01902D29E5DA75
:106E0000F0E4F5DA75FF01E5D630E3FB902D2A7446
:106E100001F075FF03759B0475FC4175FF03E59B4D
:106E200030E7FBE4FB75FF038B951252E5FFD1A51C
:106E30000BEBB403F075FF03759580E4F5FF758ED9
:106E4000C891B475FF0153D5FB1257D37F14125666
:106E5000B212579875FF0143D504902D2AE0700BAC
:106E60001257D37FC81256B21257987B017A2D79E8
:106E700028F19B902D28E0902D277006E04404FF18
:106E80008002E0FF902D27EFF090120EE0B4010693
:106E900075FF0143D81075FF01902D29E0F5DA90B8
:106EA0002D27E0FF22902D2312214375FF01902D05
:106EB00023A3E0FDA3A3E4FFFEE4FC78101220DB93
:106EC0008FE1902D23A3A3E0FEA3E4FFE4FDFC7873
:106ED000081220DB8FE2902D23A3A3A3E0FF8FE312
:106EE00022E0C313FEA3E01322902D571251BAF1F2
:106EF00064AC00AD01AE02AF03C006C007902D57D1
:106F0000D1E1FBAA06E4F9F8D007D006D31220B4E9
:106F10007E0050047F0180027F00C006C007F1643C
:106F2000D0E02FFFD0E03E902D57F0A3EFF053ECD0
:106F3000FC902D57E0FCA3E0FDEC540342EC75FF00
:106F400002EDF5AF75ED0275ED04A3E0600543ECCD
:106F500008800353ECF7902D5AE0600443EC0422C0
:106F600053ECFB22902D57E0FEA3E0FBAA06E4F9C8
:106F7000F87F807E387D01FC02184EEEF0A3EFF022
:106F80007B0122C2ACE4F56BF56AF569F567F5683B
:106F9000F5667B017D01D1E9D2AC22C24B75FF03BE
:106FA000759B1F75FF0390120FE0FF20E71BE59A0A
:106FB000540FC394024012EF4480F0E4F5FF75C211
:106FC000A143FC0475FF03D24BE5FC30E609E59ACA
:106FD000540FC3940540CCE5FC30E611E4121DF0DB
:106FE00075FC80F5FC75FC40E5FC20E6FB304B03AE
:106FF00012544222902D6412702F7F017C127D0169
:10700000E4FEED2EF582E43CF583E02FFF0EEEB4B6
:1070100012F0901213E06F6009902D641126E412B3
:107020001DF022902D30E0FBA3E0FAA3E0F922EB63
:10703000F0A3EAF0A3E9F022EF30E00E43F401E41C
:10704000F5FF43A404F5FF759624EF30E10E43F4F9
:1070500001E4F5FF43A408F5FF759624EF30E2093B
:1070600043F402E4F5FF75961EEF30E30943F404A0
:10707000E4F5FF75961075FF01EF5403600475D7B2
:10708000122275D72D22E4F5FF7584E6F5FF4394AF
:1070900004F5FF75981422E4F5FF75933F75FF031F
:1070A000759A401186E4F5FF759C93F5FF75A1A3D1
:1070B000F5FF758531F5FF758628E5FA5430448073
:1070C000F5FA75FF0175E74A75FF0275DF4975FF2F
:1070D0000143D30475FF0153D367E4F5FF53E6BFC3
:1070E00075FF0175D825F5FF75B503F5FF75B21568
:1070F000F5FF75BA02F5FF75AFB3F5FF75CD0AF56B
:10710000FF75CB08F5FF75CA12F5FF75BF0EF5FFC9
:1071100075CC96F5FFF5BDF5FF75C281F5FF75AE2F
:10712000E1F5FF75DA55F5FF75F580F5FF75E903B3
:10713000F5FF75E933F5FF75972A75FF01759B42D9
:10714000759CA4759D29759E48759F2475A112751F
:10715000A312759AF8204E0CF5FF43968090120FFB
:10716000E04440F022CCEFCCCFEDCF74017E00C8DC
:10717000EFC8088005C333CE33CED8F9FFCDECCDB0
:10718000EF5D601B304D1875FF0175DCAD75FF01BB
:1071900075DDCDE4F5FF759A74F5FF75948422755D
:1071A000FF0175DC5375FF0175DD33E4F5FF759A5A
:1071B00014F5FF7594042275FF0175E46575FF01F0
:1071C00075D64722902D2BEDF0901211E0FEF46061
:1071D00006A3E0FDB4FF0C902D2D7418F0A37413DA
:1071E000F08008902D2DEEF0A3EDF0121D556401F6
:1071F0006002612C902D2BE0FE64086004EEB40464
:1072000008902D2C7428F08006902D2C743AF0EF05
:107210001252E6FF1220A6E4712DEF24D8FFEE34BF
:107220003FFEED3493FDEC3416FC7B007A8079034D
:10723000780012184E7152902D2EE0FF902D2DE007
:10724000C39FFFE49400FEE4FCFD121F7CECC0E051
:10725000EDC0E0EEC0E0EFC0E0902D2EE0FFE4FCDA
:10726000FDFE712DD0E0FBD0E0FAD0E0F9D0E0F8DF
:10727000EB2FFBEA3EFAE93DF9E83CF8902D2CE0D3
:10728000FFE4FCFDFE121F7CEF2454FFEE340B12D2
:107290005482E47BA87A16F9F812184ECBEFCB9003
:1072A0002D2BE014606114601B24FE600C24FC7024
:1072B0007BE4F5FF75CE318006E4F5FF75CE21F550
:1072C000FF8BCF22E4FAE4F5FFEA2440F5CEE4F5A3
