:020000040000FA
:101800000225A31A021A07227FB8EF9018139390AB
:101810001900730A20364CE57AFF22EFF57A221B75
:10182000EC1BF602746F1BB51BC9220248441C2D29
:101830001C371C3C1C411C461C4B1C551C5F1C646B
:0A1840001C821C877F01228FEF221B
:01184A00FF9E
:10184B000264BBC2D5E830E70FB2D5E4C39BFBE41F
:10185B009AFAE499F9E498F8EC30E717B2D5121834
:10186B0084122007E4C39BFBE49AFAE499F9E49809
:10187B00F8800312200730D50DE4C39FFFE49EFED2
:10188B00E49DFDE49CFC227895E4F6D8FD900000E5
:10189B007F007E10E4F0A3DFFCDEFA904FFFA3E5A0
:1018AB0083C394204011FEAF829020000E0FE48082
:1018BB0002F0A3DFFCDEFA1219200225B522323F1B
:1018CB00241E16110E0B09070504030201F0C8A70D
:1018DB00917767604638353230242220140001019D
:1018EB00020203030404050506060707822D1C16D6
:0418FB0013111010A5
:0118FF00FFE9
:10190000C07A7419C0E0C082C083757A0AE5FF54BA
:10191000CF4490F5FF22C07A7419C0E0C082C08322
:10192000757A20E5FF54CF4490F5FF22C07A7419F0
:10193000C0E0C082C083757A36E5FF54CF44A0F57D
:10194000FF22C07A7419C0E0C082C083757A4CE56A
:10195000FF54CF44B0F5FF22908000211690824BB7
:10196000211690808F21169080D221169082EC2132
:101970001690A010211690A027211690A0382116AD
:1019800090A803211690A812211690B0022116905B
:10199000B005211690BFED2116908230211690825D
:1019A000E5211690C8202116909E39211690C87204
:1019B000211690C84B211690BC03211690C8F02127
:1019C000169082332116908119211690CA4C211647
:1019D00090C702211690B04A211690B76A2116903E
:1019E000CA84211690CAB22116908137211690B36D
:1019F000DC211690C5D9211690C3E5211690B3932A
:101A0000211690CBB0211690B7D4211690A735217E
:101A10001690C38B211690A26F211690CCEB211645
:101A200090CD882116909FF7211690CE4B211690CD
:101A3000CD97211690CDE1211690CE4E2116909390
:101A40002A211690CFE7211690AD77211690CFF579
:101A5000211690CFFC211690D0DE211690D0612166
:101A60001690D215211690D233211690D24C211601
:101A700090D332211690D07E211690CE66211690FA
:101A8000AA1A211690AD2F211690C71E211690D3A9
:101A900067211690B0C3211690BB61211690BFD864
:101AA000211690BB5F211690B897211690B9D721C7
:101AB0001690C7CE211690B17B211690CF472116E4
:101AC00090BCD4211690A82B211690D2FF211690FD
:101AD000D2E8211690D340211690C67E211690C6DA
:101AE000E5211690BEF1211690D502211690D57AE7
:101AF000211690D649211690B545211690BE732126
:101B00001690D658211690AE9E211690C5E6211645
:101B100090837F2116909354211690A6472116900A
:101B2000A3A5211690A23B2116909339211690CEA1
:101B30009B211690D69E211690936C211690C16B16
:101B4000211690ACA6211690B08A211690ABD12117
:101B50001690D6AB211690AF29211690D6C2211629
:101B600090D116211690D6D9211690AECB21169081
:101B7000D6DC2116908134211690D724211690C6E8
:101B8000D9211690BD5A211690BDDB211690BDAB10
:101B9000211690A7F8211690A6AA211690A1BE2181
:101BA0001690D484211690D434211690D82B211667
:101BB000909CBA211690D7E42116909EBD211690D4
:101BC000C9D52116909784211690D8CB211690D88C
:101BD000F6211690D906211690D955211690D99A3A
:101BE000211690D9B8211690DA21211690DB032115
:101BF0001690DC05211690DBB1211690C70D211639
:101C000090DC5F211690DCCB211690DED12116905E
:101C1000DBFB211690DAF9211690DEAD21169089B2
:101C200002214290893D2142908A552142908CDECA
:101C3000214290821C2142908CFD21429086862177
:101C400042908D2E2142908D5D21429084EF214261
:101C5000908D172142908D7C21429081A721429046
:101C60008DC52142908E152142908E592142908F30
:101C7000F121429089902142908F8E2142908EAF27
:101C80002142909050214290822E214290839B21AC
:101C900042908A352142908F6A2142908F002142E2
:101CA00090909F2142909125214290804021429026
:101CB00080E8214290916921429086F221429080F1
:101CC000002142909995212C9099AE212C9099B8A1
:101CD000212C909A1C212C9099C2212C909A3D2164
:101CE0002C9099CC212C909A4F212C9093EA212C66
:101CF0009099D6212C9099E0212C9099EA212C9052
:101D000099F4212C9099FE212C909A08212C909ADC
:101D100028212C909A12212C909A65212C909A6F50
:101D2000212C909AAE212C909ADF212C9080A42116
:101D30002C909B6D212C909B6E212C909655212CE4
:101D40009094E1212C909818212C9095E9212C90C9
:101D50009B91212C00BB010689828A83E0225002DC
:101D6000E722BBFE02E32289828A83E49322BB013D
:101D70000CE58229F582E5833AF583E0225006E9F5
:101D80002582F8E622BBFE06E92582F8E222E582FA
:101D900029F582E5833AF583E49322BB0109898220
:101DA0008A83F8E028F022500327F722BBFE05F8CB
:101DB000E328F3228A838982F8E4932822BB010F67
:101DC000F8E58229F582E5833AF583E028F0225090
:101DD00009C58229F8E58226F622BBFE09C58229BB
:101DE000F8E22582F222F8EA2583F583E993282296
:101DF000BB010689828A83F0225002F722BBFE01D2
:101E0000F322F8BB010DE58229F582E5833AF583DB
:101E1000E8F0225006E92582C8F622BBFE05E92536
:101E200082C8F222EF8DF0A4A8F0CF8CF0A428CEC7
:101E30008DF0A42EFE22BC000BBE0029EF8DF08495
:101E4000FFADF022E4CCF875F008EF2FFFEE33FE83
:101E5000EC33FCEE9DEC984005FCEE9DFE0FD5F0BA
:101E6000E9E4CEFD22EDF8F5F0EE8420D21CFEADC3
:101E7000F075F008EF2FFFED33FD4007985006D5C1
:101E8000F0F222C398FD0FD5F0EA22C2D5EC30E77C
:101E900009B2D5E4C39DFDE49CFCEE30E715B2D554
:101EA000E4C39FFFE49EFE121E36C3E49DFDE49C46
:101EB000FC8003121E3630D507C3E49FFFE49EFE6C
:101EC00022C5F0F8A3E028F0C5F0F8E5821582708D
:101ED000021583E038F022A3F8E0C5F025F0F0E524
:101EE00082158270021583E0C838F0E822BB010A2F
:101EF00089828A83E0F5F0A3E022500687F009E7A3
:101F00001922BBFE07E3F5F009E3192289828A83CF
:101F1000E493F5F074019322BB010789828A83025E
:101F20001EC1500B09C5F027F7C5F01937F722BBC2
:101F3000FE0D09F8E325F0F3C5F019E338F322F8B4
:101F400089828A8374019325F0C5F0F8E4933822DE
:101F5000BB010A89828A83F0E5F0A3F0225006F7DC
:101F600009A7F01922BBFE06F3E5F009F31922EFE9
:101F70002BFFEE3AFEED39FDEC38FC22E88FF0A4A1
:101F8000CC8BF0A42CFCE98EF0A42CFC8AF0EDA400
:101F90002CFCEA8EF0A4CDA8F08BF0A42DCC382533
:101FA000F0FDE98FF0A42CCD35F0FCEB8EF0A4FE13
:101FB000A9F0EB8FF0A4CFC5F02ECD39FEE43CFCA8
:101FC000EAA42DCE35F0FDE43CFC2275F0087582C4
:101FD00000EF2FFFEE33FECD33CDCC33CCC58233B3
:101FE000C5829BED9AEC99E58298400CF582EE9BB8
:101FF000FEED9AFDEC99FC0FD5F0D6E4CEFBE4CDD6
:10200000FAE4CCF9A88222B800C1B90059BA002D6F
:10201000EC8BF084CFCECDFCE5F0CBF97818EF2F28
:10202000FFEE33FEED33FDEC33FCEB33FB10D70357
:10203000994004EB99FB0FD8E5E4F9FA227818EF00
:102040002FFFEE33FEED33FDEC33FCC933C910D75F
:10205000059BE99A4007EC9BFCE99AF90FD8E0E46C
:10206000C9FAE4CCFB2275F010EF2FFFEE33FEED42
:1020700033FDCC33CCC833C810D7079BEC9AE89912
:10208000400AED9BFDEC9AFCE899F80FD5F0DAE4F4
:10209000CDFBE4CCFAE4C8F922EF5BFFEE5AFEED8B
:1020A00059FDEC58FC22C3E49FFFE49EFEE49DFD35
:1020B000E49CFC22EB9FF5F0EA9E42F0E99D42F0A1
:1020C000EC6480C864809845F022EB9FF5F0EA9EAE
:1020D00042F0E99D42F0E89C45F022E8600FECC335
:1020E00013FCED13FDEE13FEEF13FFD8F122E860B1
:1020F0000FEFC333FFEE33FEED33FDEC33FCD8F1CD
:1021000022BB010789828A830221435005E9F80234
:102110002318BBFE05E9F802232422E0FCA3E0FD1E
:10212000A3E0FEA3E0FF22E493FC740193FD74029C
:1021300093FE740393FF22E0F8A3E0F9A3E0FAA36F
:10214000E0FB22ECF0A3EDF0A3EEF0A3EFF022A869
:10215000828583F0D083D0821221661221661221FB
:1021600066122166E473E493A3C583C5F0C583C8F2
:10217000C582C8F0A3C583C5F0C583C8C582C8227F
:10218000A42582F582E5F03583F58322E6FB08E697
:10219000FA08E6F922EBF608EAF608E9F622E0FB8F
:1021A000A3E0FAA3E0F922F8E0FBA3A3E0F925F00D
:1021B000F0E582158270021583E0FA38F022EBF028
:1021C000A3EAF0A3E9F022BB010789828A830221F6
:1021D0009E5005E9F802218CBBFE05E9F802233088
:1021E00089828A83022342BB011A89828A83D0F0C2
:1021F000D0E0F8D0E0F9D0E0FAD0E0FBE8C0E0C0F1
:10220000F00221BE5016E9F8D083D082D0E0F9D098
:10221000E0FAD0E0FBC082C083022195BBFE16E944
:10222000F8D083D082D0E0F9D0E0FAD0E0FBC082D1
:10223000C08302233922BB010DE58229F582E583A3
:102240003AF58302219E5007E92582F802218CBBD2
:10225000FE07E92582F8022330E58229F582E5832D
:102260003AF583022342BB0120E58229F582E5830A
:102270003AF583D0F0D0E0F8D0E0F9D0E0FAD0E041
:10228000FBE8C0E0C0F00221BE5018E92582F8D07A
:1022900083D082D0E0F9D0E0FAD0E0FBC082C083E6
:1022A000022195BBFE18E92582F8D083D082D0E0C8
:1022B000F9D0E0FAD0E0FBC082C08302233922D0FB
:1022C00083D082F8E4937012740193700DA3A393EA
:1022D000F8740193F5828883E4737402936860EF65
:1022E000A3A3A380DF8A838982E473EC8EF0A4CC5D
:1022F000C5F0CCCDF8EFA4CEC5F02DFDE43CFCE854
:10230000A42EC8C5F03DFDE43CFCEFA4FFE5F02899
:10231000FEE43DFDE43CFC22ECF608EDF608EEF6AA
:1023200008EFF622ECF208EDF208EEF208EFF222E6
:10233000E2FB08E2FA08E2F922EBF208EAF208E925
:10234000F222E493FB740193FA740293F92241029E
:10235000B200C131C133E0080200005A654E735922
:10236000730000E00102001554E001020016A5E030
:10237000E8022568FEFEFEFEFEFEFEFEFEFEFEFEFE
:10238000FEFEFEFEFEFEFEFEFEFEFEFEFEFEFEFE6D
:10239000FEFEFEFEFEFEFEFEFEFEFEFEFEFEFEFE5D
:1023A000FEFEFEFEFEFEFEFEFEFEFEFEFEFEFEFE4D
:1023B000FEFEFEFEFEFEFEFEFEFEFEFEFEFEFEFE3D
:1023C000FEFEFEFEFEFEFEFEFEFEFEFEFEFEFEFE2D
:1023D000FEFEFEFEFEFEFEFEFEFEFEFEFEFEFEFE1D
:1023E000FEFEFEFEFEFEFEFEFEFEFEFEFEFEFEFE0D
:1023F000FEFEFEFEFEFEFEFEFEFEFEFEFEFEFEFEFD
:10240000FEFEFEFEFEFEFEFEFEFEFEFEFEFEFEFEEC
:10241000FEFEFEFEFEFEFEFEFEFEFEFEFEFEFEFEDC
:10242000FEFEFEFEFEFEFEFEFEFEFEFEFEFEFEFECC
:10243000FEFEFEFEFEFEFEFEFEFEFEFEFEFEFEFEBC
:10244000FEFEFEFEFEFEFEFEFEFEFEFEFEFEFEFEAC
:10245000FEFEFEFEFEFEFEFEFEFEFEFEE00102268B
:1024600050FF4104150601140041041401410413F6
:1024700001C13A011A00011700412ACB00C13D41B8
:10248000270E05C14443261200000041262300C147
:102490002C013000C128C129C12A412E1300C15F7F
:1024A000432CC4000000412CC300412CC700C134A0
:1024B000C136412A6F00017900C126C124412A6139
:1024C00000412A6E0060282487042D0000000100CE
:1024D00001FE81FF88CF1F0000FB9F7DA067008069
:1024E00080008086000000E87300800F000060001C
:1024F00000014D00014F0001530001520001500046
:10250000014B01014E02014C0141243300C145C180
:1025100046015B9601570F412E1D00E00C027FF42F
:102520000000000000020009042D04360090234E34
:10253000E47E0193700122A3FF543F30E509541F4C
:10254000FEE493A360010ECF54E0B4E03AEFFAEE5C
:10255000F9E493FBA3E493FEA3E493FFA3E493FDC8
:10256000C083C082C001C002C006C00712199ED03D
:1025700007D006D002D001D082D083A30FEF700124
:102580000EDADAD9D880A954C025E060105005A32E
:10259000DFFD809CA3A3A3DFFDDEFB8093A3A3DF6D
:1025A000FD808D75819575FF03759E0212192002BD
:1025B00040550218C890234EE47E019360F4A3FFB7
:1025C000543F30E509541FFEE493A360010ECF543D
:1025D000E0B4E00EEFFAEEF9A3A3A3A3DAFDD9FB72
:1025E00080D654C025E0604B5026E493A3F85407EE
:1025F000240CC8C333C4540F4420C8834004F45689
:10260000800146F6DFE480B001020408102040801B
:10261000E493A3FAE493A3F8E493A3C8C582C8CAD9
:10262000C583CAF0A3C8C582C8CAC583CADFE9DEAC
:10263000E78085E493A3F8E493A34003F68001F2D6
:1026400008DFF40225B893261A431A481A4D1A5285
:102650001A571A5C1A611A661A6B1A701A751A7A66
:102660001A891A8E1A981AA21AE31AE81AED1AF29F
:102670001AF71AFC1B011B061B151B1F1B331B38EB
:102680001B471B4C1B831B881B8D1CC31CC81CCDEC
:102690001CD21CD71CDC1CE11CE61CEB1CF01CF53E
:1026A0001CFA1CFF1D041D091D0E1D131D181D1DE8
:1026B0001D221D27000DFA20000DDC700000000017
:1026C000020C00013F3F3F0404045A2D5761766518
:1026D00020342E353400182A498550234D8B6058FC
:1026E000E4F97D0CAC0109EC9026CA93FC0FEFAA2B
:1026F0000670010E14F5828A83ECF0DDE7021844BF
:102700008F828E83E4F0A37404F1137436F113A363
:10271000E4F022F08F828E83A3A322122B5B121B84
:10272000FB12611D1219807E007F15F1A5BF540BAD
:102730007E007F16F1A5EF64A560107E007F10C0BB
:1027400006127711D006122F84B12D121B29121AEE
:1027500093121A11305F0475720122127735121923
:102760008F12795AFE4FFDA3E0FC4DFDA3E0FB4D17
:10277000600BEE5FFFEC5FFFEB5FF47003123071F4
:10278000E572540324B6F582E43402F583E0657201
:102790009002B1F022E54175F016A424E9F9741F06
:1027A00035F0FEAF01E4FCFD902CE4314312280F1C
:1027B00012296BEF6005122D4F80F5122B1860095E
:1027C000902CE4311B7810F1E8902CE4F1E4902C8B
:1027D000E4F1F3122880902CE8EFF0122A35902CC7
:1027E000E8E0FF22311B780811DBE4E5C820E2FBBA
:1027F0008FEB22311BE480F375FF0275E40475E46E
:102800000175E4022275FF0275E404E4F5E4227523
:10281000FF02E5E430E10675E40675E40322902B3F
:10282000A8122143902BAC1221BE110F316BEF6027
:1028300004B14F80F77118600B902BA812211B7800
:10284000101227E8902BA81227E4902BA81227F348
:10285000902BAFF16E60101180902BAC124FA490B2
:102860002BAD1248A080E931B7E4FF4139310C7F2C
:10287000D71227EB7FFF1227EB1185902ABEEFF0CE
:102880007FFF1227EBE5C820E2FBAFEB227F01516F
:1028900039902DF97401F0902DF9E0602ED1C3111B
:1028A00080902DF9EFF031B7116D902ABFEFF03124
:1028B000B7902DF9E05401F15C60DCA3E0F460D73F
:1028C000EF30E7D3E4902DF9F080CC310C7F9F12EC
:1028D00027EB1180902AC0117E902AC5117E902A84
:1028E000C6EFF05135902ABEE0F4601BA3E0F4601F
:1028F00016902AC5E0FD541F240FA3F0EDC4135415
:10290000074480902AC5F0227F015139902AC3E004
:102910001222BF292F04293714293C1529411729D0
:102920005130295634295B36296037000029495334
:1029300062EF856280802F5363EF80085363DF80EE
:102940000353637F856390801D5364DF8564A0809B
:10295000155365FE800D5365EF80085365BF8003F6
:1029600053657F8565B07F0CDFFE227F01513930D2
:102970004A14D1C31180902DFBEFF031B7902DFB9D
:10298000E020E002C24A304A17116D902ABFEFF1F1
:102990005C600BA3E0F46006EF30E702C24A31B797
:1029A000E4FF5139A24AE433FF227F015139D24A70
:1029B000310C7F061227EBF1E5EF70FB902AC5E0A2
:1029C000F4600A902DF87406F0D1CA70FC902AC306
:1029D000E01222BF29F00429F81429FD152A021754
:1029E0002A12302A17342A1C362A213700002A0AD4
:1029F000436210856280802F436310800843632008
:102A00008003436380856390801D4364208564A0B8
:102A10008015436501800D43651080084365408043
:102A2000034365808565B0902DF8740CF0D1CA70B1
:102A3000FC221227EB31B7E4FFEFB4010443FE2080
:102A40002253FEDF22110F316BEF6004B14F80F78C
:102A500031AA310C7F011227EB7F031227EB31B72C
:102A6000E4FF80D5902CE9122143902CE912211B20
:102A70001227A8902CEDE06F6038110F316BEF60DA
:102A800004B14F80F731AA310C902AC1E0FF7120C8
:102A9000600B902CE912211B78101227E8902CE98A
:102AA0001227E4902CE91227F3902CEDE0FF51322D
:102AB000D322C322902B9F122143902BA31221BE1D
:102AC000110F316BEF6004B14F80F731AA310C90D8
:102AD0002AC1E0FF7120600B902B9F12211B781000
:102AE0001227E8902B9F1227E4902B9F12211BE4C2
:102AF000801B902BA6F16E6019902BA312219EEAE9
:102B0000494B6007902BA3F1648001E4FF1227EB8F
:102B100080E031B7E4FF41397F015139310C7F0347
:102B20001227EB902AC4E0640222902DFAEFF09075
:102B30002ACCE0640270233108902DFAE07FAB606C
:102B4000027FB91227EB31B7902DFAE0902ACBF033
:102B500070047F1EDFFEE4FF5139227A2A79C37F99
:102B6000031277837A2A79CC7F081278D37A2A796C
:102B7000C97D027F09121C237B017A2A79C77D0255
:102B80007F0B121C23902AC7E0FEA3E0FF4E6006D5
:102B9000BEFF1CBFFF19902ACCE024FD6003047027
:102BA00005D1D2F08009902AC7E4F0A37440F090D8
:102BB0002ACCE024FD6003047008902AC47403F05A
:102BC0008006902AC47402F0902AC3E01222BF2B20
:102BD000EB042BF6142BFE152C06172C1C302C2482
:102BE000342C2C362C343700002C1175FF01535E29
:102BF000EF855EFD804775FF01535FEF800E75FF27
:102C000001535FDF800675FF01535F7F855FC980D9
:102C10002C75FF015360DF8560CA802175FF015369
:102C200061FE801675FF015361EF800E75FF015341
:102C300061BF800675FF0153617F8561CB31B77F2E
:102C400011B131E4FF712A118D902AC17402F09004
:102C50002AC5E0247F6009047016B137740A800623
:102C6000B114B1377458F0902AC47403F0D1D2F083
:102C7000902AC6E0F46002A112902AC9E0FEA3E007
:102C8000FF64104E7006902AC6740EF0EF64204E5A
:102C90007006902AC6740FF0EF64404E7006902ABA
:102CA000C67410F0EF64804E7006902AC67411F05E
:102CB000E4B5070AEEB40106902AC67412F0E4B532
:102CC000070AEEB40206902AC67413F0E4B5070AA8
:102CD000EEB40406902AC67414F0E4B5070AEEB404
:102CE0000806902AC67415F0E4B5070AEEB410067B
:102CF000902AC67416F0E4B5070AEEB42006902AAE
:102D0000C67417F0E4B5070AEEB44006902AC674FC
:102D100018F04145902ABEE020E01531087F3D12B1
:102D200027EB7F2A1227EB7F801227EB7FA65132F9
:102D300022EF4420F5FE227F10B131902AC1227E7D
:102D40001F7FC8AB05E4FCFD902CEDEBF04164E582
:102D50001530E20FE51520E50AE51530E0057F01A5
:102D60001230D322902E1EEFF0E56BC39420400466
:102D7000B14F80F5E567C394204003E4F567C2AC2A
:102D8000F1EBEF700EE56B700A902E1EE0FF12184B
:102D9000478013902E1EE0FFAE67056774BD2E12AC
:102DA0007515EFF0056BD2AC7F0122902B1B122121
:102DB00043902B1F1221BED1B4902B22126A919006
:102DC0002B1B12211BD1E75002C16E902AC8E024B0
:102DD000FFFF902AC7E034FFFEE4FCFD902B1B129E
:102DE0002137122099902B24EEF0A3EFF04E6032A1
:102DF000D1BAC3902AC8E09FFF902AC7E09EFE90F8
:102E00002B24F0A3EFF0902B221278A79E500312F0
:102E10007855D170E94A6004D1BA80457E007F00C0
:102E2000803F902B22E0FEA3E0FF4E603F902AC738
:102E3000E0FCA3E0FDD3EF9DEE9C400A902B24EC38
:102E4000F0A3EDF0800D902B22E0FFA3E0A3CFF0E4
:102E5000A3EFF0D170E94A6004D1BA80047E007F0C
:102E600000902B20EE8FF0121EC180B6D322C32219
:102E7000902B1F12219E902B24E0FFA3E0902BA605
:102E8000CFF0A3EFF0902B1B12211B51B4902B24F9
:102E9000E0FEA3E0FFC3902B23E09FF0902B22E005
:102EA0009EF0902B1B122137E4FCFD121F6F902B1C
:102EB0001B122143902B1F02219E902B24E0FEA386
:102EC000E0FF22310C7F050227EB902DF8E014F093
:102ED000E022902AC77401F0A3E422110F316BEFB6
:102EE0006004B14F80F7229029DD1221439029E13F
:102EF0001221BEE4902A04F0D39029E5E0941E90BC
:102F000029E4E094004001227B017A2979E69029A6
:102F1000E412780C9029DD12211B111E9029E11278
:102F2000219EE94A600B902A04E0F582F17EFF8041
:102F3000027F00902A04E024E6F582E43429F58338
:102F4000E06F6002C322902A04E004FFF0D39029CE
:102F5000E5E09F9029E4E0940050C122F0902ABE61
:102F6000E0FFF422E475F0011221A7021D5574FF61
:102F7000F5F0121ED745F02212219E1E8E82758317
:102F800000021D6E902C2F1221BEE4FCFDC00790A4
:102F90002C2F12219E902C32127796D007A1AB9045
:102FA0002CCFF1F1E58F20E0FB127615538FF075F1
:102FB000FF01E4FF902CCF12219E8F82F17EF593CA
:102FC0000FEFB410EFE4FF902CD212219E8F82F10C
:102FD0007EF5940FEFB410EF22A247923122B16434
:102FE00022E4FF4139E5C85404FF22E5ED5401FF16
:102FF000221221BE75FF0122900442EDF09004419F
:10300000EFF0BF0412A3E0FB7D017F011230399085
:1030100004417403F0800B900442E0FB7D01E4FF67
:103020001139900441E09002B2F0D2091219C69011
:1030300002BDEEF0A3EFF0D322EB600875FF015361
:10304000CDFD800675FF0143CD02ED600553FBDF2A
:10305000800343FB20EF600775FF0243E1402275C8
:10306000FF0253E1BF2275FF028FE322A248923391
:1030700022E4FF11D3EF603911F611B212792B401F
:10308000F77B017A0279B811B212795A5FFFA3E097
:103090005FFFA3E05FF460E97F0111D37572017EE9
:1030A000007F0811F6902C32E4F0A37404F0122F84
:1030B000842290043B1221BEC249E4FF11D3BF0118
:1030C0000B90043B12219E12465592497F0111D369
:1030D000A24922EF600D9002B412424EE4FD12426A
:1030E0005D80103031037F0022121C1912431FE44F
:1030F00033FF227F01227B017A0279B622FF902CD6
:10310000C412219E902CDA1221BEEF540FFEB11290
:1031100024B8B12354F0FDEF54F0FFC4540F4D1206
:103120001DF0EE146069147002810324FE700241E8
:103130004424FE700281712403600281FBB11224D9
:10314000B2F9E43AFAC003C002C00111F6123DD947
:10315000D001D002D0037F041219A8B11224B6F90D
:10316000E43AFAE572B10F1278277403B10F24B86C
:10317000B12354F0FF902835E0540F4FB10F24B91C
:10318000F9E43AFA740AB10F1277ED740981F81272
:1031900049E6B1121278277401B10F2402B123302D
:1031A000E02320E702800A902794E0540FFFBF0F2E
:1031B0000BB11224B7B1234440121DF0B112124FCB
:1031C000F174038007B112124FF17401121DF0B1B6
:1031D000122402B12330E10BB11224B7B1234420F1
:1031E000121DF0B1122402B12330E70BB11224B743
:1031F000B1234480121DF0B1122402B12330E70B39
:10320000B11224BAB1231278E3700BB11224BBB10E
:103210002354F7121DF0127953B11224B8B123547C
:103220009FFEEF54604EB10F24BAB123FFB11224B8
:10323000D9123DC47F09B11224B1B12391FC127798
:10324000EDEF81F8B1122402B12320E60241E5B18D
:10325000122409B12312791B902CDEF07404C39E52
:10326000500B7404F0EF540F4440121DF0902CDE0C
:10327000E02402FFB11224BBF9E43AFAC003C00211
:10328000C001B1122408123DD5D001D002D00312E2
:1032900019A8B11224B1B123FF902CDEE02403FD64
:1032A000E43312644A984036121D55FF902CDEE03C
:1032B000FE2403FDC3EF9DFFB10F123FDBC003C02F
:1032C00002C001EE240AFDE433FCB1122DF9EA3C00
:1032D000123DD8D001D002D0031219A88007B11234
:1032E00024B1125F071249E6B11224B7127767447E
:1032F00080B10F2402B123902CDA30E007124FED99
:1033000074038005124FED7401121DF0B11224BB3D
:10331000F9E43AFAE4B10F24BAB123FFD25D121BEB
:1033200024EF700261B8B11224B6B1236572600255
:1033300061B8B11224BBB123FF20E07CB112240399
:10334000B12320E473B11224BBF9E43AFAEF440844
:10335000B10F24BCB123902CDA127706123FED1284
:103360007820E4B10F24BCB123C4540FFFB1122460
:10337000BD124F874410B10F24BAB123FFC25D12B2
:103380001B24C007127953EF1313543FFED0E04EB5
:10339000FFB11224BCB123C4540FFD7C00B1122D27
:1033A000F9EC3AFAE924BEF9E43AFAEFB10F12392E
:1033B000E8549F125E6F800BB11224BBB12354F707
:1033C000121DF0B11224BBB12330E31AB11224BC98
:1033D000B123C4540FFF7E00B11224BD124F87C425
:1033E000540F04FF80027F00B11224BCB123C454E7
:1033F0000F240B2FFFB11224B1B12391FC1277EDF2
:10340000EF81F81249E6B1121278277402B10F2445
:1034100002B12330E10BB11224B7B1234420121DB5
:10342000F0B11224BAF9E43AFA741DB10F24BBF9D1
:10343000E43AFAC003C002C00190277B12219E1219
:103440003DD9D001D002D0037F1D1219A8B11212AC
:103450004FF17401121DF07F26B1121277EDEFB11A
:103460000F24B1B123FEEF042EFFB1121278CB81ED
:10347000F8B11224B8B123540F902CDDF0B112240E
:1034800002B12320E6421249E6B1121278277405F0
:10349000B10F2402B12330E10BB11224B7B12344A0
:1034A00020121DF0B11224B8B12354F0FF902CDD8E
:1034B000E04FB10F2402B12330E01AB11224B7B1AA
:1034C000234440121DF0800DB11224B1F9E43AFA00
:1034D00074FF121D9BB112124FF17401B10F1277DC
:1034E000ED7411B10F24B1B123FFB11224D8B1236F
:1034F0002F04FFB1121278CB121DF022FEEF042E22
:10350000FE902CDA12219EE924B9F9E43AFAEE127F
:103510001DF0902CDA12219EE922902B3C12219E64
:10352000E92407F9E43AFA021D55B1F724B7B123AB
:10353000FF30E777540F64017071B1F724B6B123FF
:1035400065727067201C64902CC704F0B1F724BB2F
:10355000B12330E33AB1F724BCB123902CC41277E5
:103560000624BD124F87540F7025B1F72FF9EE3A9C
:10357000FAE924BEB12354606015B1F724BCB1232D
:10358000C4540F2404125F297D6E7C0002499CE420
:10359000902779F0B1F724BCB123C4540F75F03EE5
:1035A000A4FDACF07E497F85024945B1F724B7B14F
:1035B0002320E736B1F724BAB123FF7D01121B4265
:1035C000B1F724B7B123FF20E42030E709B1F72495
:1035D000BBB12320E414B1F724BAB123FFB1F7241F
:1035E000B2F9E43AFCAD01121A161249687F0102E1
:1035F0001BF18FF0121F50902CC412219EE922B1B2
:10360000F74AC36001D340030239D7E924B7B12395
:10361000FF7B017A2D7961124FF8301D15B1F72427
:1036200002B12330E50CE4902710F090270FF00250
:103630003843B1F724DFB12364026002C1F1B1F76E
:103640002403B12320E40CB1F724BAB123FF121AEA
:10365000208030B1F72403B12354EF121DF0B1F7ED
:1036600024061239EAFFAEF0B1F72404123DACEFA4
:1036700054076402C37001D3124A3C902D61E04F9D
:103680000239C6B1F724BAB123FDAF72121A07503E
:1036900060B1F7127765B1F724B7B12330E7215451
:1036A0000F6401701B121D5530E70FB1F724BBB139
:1036B0002330E4067E007F0180117E007F00800BB6
:1036C000B1F724B7B1235410FF7E00EF4E600CB168
:1036D000F71239E854F84403125E6FB1F71239E873
:1036E00054076402C37001D3124A3CEF440102390B
:1036F000C6B1F72402B12320E203023843B1F72414
:10370000DFB123FFC394035005E490276DF0EFD39E
:1037100094034002E1F0902D61E0B40108C256B17B
:10372000F724BA8006C256B1F724BDB123902DD03C
:10373000F01219F8B1F724B6B1236572703EB1F7F3
:1037400024B7B12330E735B1F71239E81278DB70CE
:103750002BB1F724B9B123D394405020B1F7123FD5
:10376000E6EF54F84402FF123DB0124A99440411A6
:10377000FDB1F724BBB123441002383EB1F724BA9F
:10378000B123FF7B017A2D7962902B081221BE7A3A
:103790002D091277D46059902D62E0FFC454F0FED9
:1037A000B1F7127770B1F7123FEDC003C002C0014C
:1037B0007B007A007990123DD9D001D002D003125B
:1037C00019A8B1F71239E8FF902D63E0FD125FF3FD
:1037D000B1F7123FE6E4B1F212785C90270CE0B446
:1037E0000203D38001C39237124A9B44040239C6B4
:1037F000B1F724DFB123C394045048B1F724BA12BF
:103800003523FF902CC412219E902C237401F0B11B
:10381000DF1235F731E854F8FDE5F0FEED4FFFB16A
:10382000B0EF54076402C37001D3124A3CEF440165
:103830001230FD1235F724DFF9E43AFA7404121D50
:10384000F021C91235F724BA123523FFE4FD121B0B
:1038500042301D0221D21235F724DF123523C394E2
:1038600005400221D21235F7240312352320E0024D
:1038700021D21235F724B6123523FFC0071235F7CF
:1038800024BA123523FD1235F7F1DBC003C002C0A4
:10389000011235F724B1123523902BD1F01235F7F0
:1038A000240212352354034401902BD2F01235F731
:1038B00024DC31EAFFE5F0127923D001D002D003F5
:1038C000D007121BB0EF700221D231D92405123576
:1038D00023442031D82414B1C431D9127883121D65
:1038E000F031D912786712198590258212219E74C1
:1038F00005121DF031D912645C740775F0D01235D1
:10390000F4125F411235F424DCF9E43AFA741B75C1
:10391000F0B51235F431E8AEF054F8FFB1B0EF4431
:1039200002FFB1B031D92404123523FF1235F72438
:1039300002B1C431D92406123523FF7440C39F500D
:103940000D1235F724B1F9E43AFA742F802074117E
:10395000D39F5010EF24EFFF1235F724B1F9E43A6A
:10396000FAEF800A1235F724B1F9E43AFAE4121DAD
:10397000F01235F724B1123523FF1235F7F1DBC011
:1039800003C002C00131D9241CB1D5D001D002D06E
:10399000031219A81235F724B2F9E43AFA7B01C0F0
:1039A00003C002C00131D9124F9C7B01B1D9D001B3
:1039B000D002D0037F111219A81235F7F1F4121DAD
:1039C000F0124A9944061230FD902CC412219E0236
:1039D0001C14E4FF121BF122FF90258212219EE9A4
:1039E00022902AF212219EE92404F9E43AFA021EF6
:1039F000ED902A8FEDF0A3EBF0902A9C7401F090EB
:103A00002A9EEFF0902A95E0FE54C0703C902A94D4
:103A1000E0FDD3949F40037F0022902A90E0B4FF02
:103A200009EDD3943640037F002230210C902A9474
:103A3000E0D3942E40037F0022EE20E40C902A94E1
:103A4000E0D3949740037F0022902A8F914024B6C0
:103A5000B1C4902A90914024BAB1C4914224DF129B
:103A60005F07302131C221EFF4601F121B15EF6098
:103A700019902A90E0FF121B1AEF5407C3940340D9
:103A800029902A90E01278E3702091422403F9E40F
:103A90003AFA74018011902A95E030E60D902A9C44
:103AA0007404F09142F1F4121DF0902A95E05490C4
:103AB000706E902A9CE064017066902A90E0FF90FE
:103AC0002A9812219E121A1B504C914224BC123586
:103AD0002354F06006902A9C7404F0902A9831E4F4
:103AE0005460600C914224031235234410121DF0DF
:103AF000914224DFF9E43AFA7402121DF0902A9EF2
:103B0000E05498F0E0FF902A9831E45467FEEF4EBD
:103B1000902A9EF0800A12784850059142127765EB
:103B2000902A90E0FDB4FF07902A95E054FAF090B7
:103B3000270CE0902A9B127872AF05121A024003FC
:103B400012794B902A9BE090270CF0914224DF12CF
:103B50003523600261F2902A9CE06401600261F208
:103B6000127848500261ED902A95E0548464047004
:103B70007790276DF0914224BA123523FF7B017AAA
:103B80002A799D902B081221BE7A2A799B1277D42C
:103B90006060914212785C902A9DE0FFC454F0FE70
:103BA00091421277709142F1EDC003C002C0017BD7
:103BB000007A007990B1D9D001D002D0031219A8AF
:103BC000902A9831E4FF902A9BE0FD125FF3914226
:103BD000F1E6E48FF0121F50902A9C7404F0902AB2
:103BE0009BE0902A9EF0800A12794B800591421248
:103BF0007765914224DF12352370057404121DF09D
:103C0000902A9EE0FF902A9CE0FD902A94E0902A62
:103C1000EEF0902A95E0902AEFF0902A96E0FBA330
:103C2000E0902AF0CBF0A3EBF0902A9812219E901E
:103C30002AF21221BE902A9112219E914A7F0122DE
:103C4000E0FF902A9812219EE922902AE912778DAE
:103C5000902AEFB19DE92402B1C4EF7E0030E10467
:103C60007F0880027F00B19FE92404B1AC902AEE66
:103C7000E0FF74A9C39F500374A9F0B19AF1DAC0B0
:103C800003C002C001902AEB12219EB1D9D001D00D
:103C900002D0031219A8B19AE924B1B1C4902AF054
:103CA000E0FEA3E0A3B1A5B19F125F40121F5090A8
:103CB0002AE9E0FC902AF5F0B1CCFE6402603BB149
:103CC0009FE924BA123523F56CB4FF0B902AF5E076
:103CD00054F84401F08023EE64046006B1CCFFBFC9
:103CE0000118EC54077013B19F902AEAE0902C233E
:103CF000F0AF6CB1DF902AF5EFF031E154EF125ED6
:103D00006FB1CCFFBF020C31E14410FDE5F08DF046
:103D1000121F50301E30EF64046006B1CC64067090
:103D20001012783BBF0203D38001C39237D2388090
:103D30000E12783BBF0203D38001C39237C2381200
:103D40004A40EE4F800C902AEAE0FF902835E012BE
:103D500078C2902AEAF0D21E902AEAB19DE924B7EF
:103D6000B1C4540F121DF0121C0AEF6005E4902735
:103D70006DF0902AF5B19DF1E5E48FF0121F50909F
:103D80002AEAB19D12310431E1B19EE92406F9E439
:103D90003AFA125E70B19F021C14902AEEE0FF9076
:103DA0002AF202219EFF12219EE924DCF9E43AFA6C
:103DB000EE8FF0021F50FA121D55FF902B3C12217E
:103DC0009EE92408F9E43AFAEF021DF0902AEAE0AD
:103DD000540F222409F9E43AFA902C4D0221BE90A6
:103DE0002C201221BE902C1FEFF065726074E572DA
:103DF00064EF606EE0FF64EF6068121B15EF6062B5
:103E0000902C1FE0FFAD72121B9C902C24EFF090C1
:103E10002C1FE0FFD25D121B24902C23E0540F6472
:103E2000017061EF605ED1DE24DF123523B4020E33
:103E3000902C20124F0F1235234410121DF0EF5416
:103E400060FFBF20047F2080027F40EF4402902C5F
:103E500024F0D1DE24BA123523FFD1DE24D9B1C437
:103E60008022902C1FE0FF65726013902787E0FE90
:103E7000EFB5060A902773E0902C24F08006902C72
:103E8000247401F0902C24E054076401604A902CC3
:103E900023E0540F64047040902C25F0D1DE24BC44
:103EA000123523C4540FFF902C25E0FEC39F5028E9
:103EB000D1DEF1EDEE7E0029124F8DFF902C24E033
:103EC0005407FD121B974008902C247401F08008C1
:103ED000902C25E004F080C4902C24E0FF22902C4C
:103EE0002012219EE922902AF81221BE902AFF7406
:103EF00006F0902AFBE0FE7411D39E4002E1D574D7
:103F0000409E5002E1D57F02121C00902B00124B04
:103F1000D77002E1D5902AFFE0301E0DFED237D2D5
:103F200038124A40EE4FF08011FF902AF81277E6DF
:103F30001235231278C2902AFFF0902AFCE0902BD1
:103F400000125EFFB1C4902B00F1E2E475F00212A2
:103F50001F50902B00124A32FAC003C002C00190D9
:103F60002AF812219EB1D9D001D002D0037F1112BC
:103F700019A8902AFBE024EFFF902B0012219EE964
:103F800024B1B1C4902B0012219EF1DAC003C0020B
:103F9000C001902AF812219EE92411B1D5D001D098
:103FA00002D0031219A8902B00125F3D121F5090EF
:103FB0002AFDE0FEA3E0902B00B1A5D21E902AFFBF
:103FC000E0FFA312219E123104902B0012219E12B9
:103FD0001C147F0122D21E7F0022E92408F9E43A52
:103FE000FA2212219EE92404F9E43AFA2224BDF9C6
:103FF000E43AFA2224DFF9E43AFA7405229002B195
:10400000E064AA2411FFF022AE07123FFDEE04FE89
:10401000EF8EF084AFF022123FFDEFC4540F6FFE1D
:10402000EFC41354076EFEEFC413131354016E5400
:1040300003FF2230320D121A39EF6007C258121AEC
:1040400025C232902774E0600B121C0AEF6005E471
:10405000902774F02275FF0275E404E4F5E4121869
:104060009212694D9002B3EFF0901200E0B47A140E
:10407000901214E0B49C0D9002B3E0FF640560045C
:10408000EFB4032EE49002BCF09002BCE0FFC394B6
:10409000405013E42FF582E43412F583E4F09002EB
:1040A000BCE004F080E3901200747AF09012147473
:1040B0009CF0121C287A1279107F011277837A12F1
:1040C00079117F211278D37A1279127D017F221221
:1040D0001C23121BE212694D121BDD9002B3EFF09C
:1040E000126123121BD89002B3E0FF121D36EF2499
:1040F000FFB3925F75FF0253E6BF124828121BE719
:1041000012271B205F0C121D3B7B017A267935128A
:104110001AA77F011230D3D2AF305F7A12197B1207
:1041200019B7121D31121C1E40F29002B2E060421B
:10413000121C0AEF70051277AD4037E51470FCE5EC
:104140001520E502711F12198AEF70FA12691250D8
:10415000051268FE50057F01122B2A9002B2E0B4CE
:104160000204E4FF80099002B2E0B403057F01126B
:104170006A14121C05E51530E1A21268074002E43A
:10418000F0E51520E5099002B4514E7D01515D51D5
:104190004B1258A2808611339002B2E06048201979
:1041A00003200942121C0AEF70051277AD4037E573
:1041B0001470FCE51520E502711F12198AEF70FAE0
:1041C00012691250051268FE50057F01122B2A90C9
:1041D00002B2E0B40204E4FF80099002B2E0B4034A
:1041E000057F01126A149002B2E0600C20190930B8
:1041F0000906200203121A7F12197B1219B7121D29
:104200002C9002B0E07005121C0580151278B9FFE1
:104210009002B0E0FEC3EF9EC394064002E4F0D2E9
:10422000AD121807E51530E11A1268074002E4F0F4
:10423000E51520E5099002B4514E7D01515D514BC9
:104240001258A2121BBA12481321969002BCE075B4
:10425000F0AA9002BF122180AF82AE832290043573
:10426000EEF0A3EFF0E514706FF1C55004C25151A8
:10427000D9900435E0FEA3E08E11F512AE11AF1215
:104280007DAA126A9EE4F5FF75D908F510E515546C
:1042900021602BE51530E504E4FFF1D5E490043707
:1042A000F0900437E004F0126D61EF60099004377C
:1042B000E0C3941040EB7F02121D4F5315DE9004B3
:1042C00013E07F00B403027F01F1D51265E4D251FF
:1042D00051D9D2EBA23992ED22902DFCE5F4F0E019
:1042E000547FF5F47F827E00714B919E5005E5FC72
:1042F00020E6F7305108902DFCE04480F5F47FE88B
:104300007E03714B919E5005E5FC20E6F775FF0199
:10431000E5D520E702C322E5F4D330E601C322E568
:10432000147026F1C55004C25151D9F1A17F081271
:104330001D4F126635E5D120E0FB4315205315FED5
:10434000E4F510A23992EDD322C3227150026685A2
:10435000902D1F12790B7A2D7921126B0150149038
:104360002D21E0FEA3E0FF902D20E09F902D1FE087
:104370009E400B902D1FE0FEA3E0FF1267432290AA
:104380002C3B126F1C902C417401F0C2507FE87ED0
:1043900003714B919E5005E5FC20E6F7126656BF6F
:1043A0000108E4F5FC75FC408008126656BF020265
:1043B000D32275FF0153D8EF902C3CE0FF12736CB1
:1043C00075FF0153D5DF53FAFB902C3BE0FFF1D58D
:1043D000902C3CE0902C3BB40809E091AA2452D1E7
:1043E0004A8004E091AAFF126E3C902C3DE0FF123F
:1043F00073C575FF0175FF03759B047FE87E03712C
:104400004B75FC42E5FC20E104919E40F4902C3E6B
:10441000E0F075FF03E59B20E704919E40F4E59BE7
:1044200020E70C75FF03759B1FF1A1D250805B7BC9
:10443000017A2C7941126D2A902C3CE0FD90120FEC
:10444000E05D7020902C3BE0FF7B017A2C794112DB
:1044500071D190120FE0FF902C3CE0FEEF4E9012D5
:104460000FF0D10D126C1C7B017A2C793F126B017D
:10447000500FC3902C40E09420902C3FE0940340D8
:10448000E67B017A2C7941126F3D1267C2305002EF
:104490006185902C41E0B40103D38001C32275FFF4
:1044A00003E591C330E701D322EB25E025E02401A9
:1044B000F582E43412F583E0FCA3E0FDA3E0FEA363
:1044C000E022902A4612214375FF0243E180F1A1C8
:1044D0001267CB902A5B12214F002DC6C0E4F5FF76
:1044E000F5A490120EF0A3F0902A567402F01279FF
:1044F0003BFFF595EF14601314601C2402702790A5
:104500002A4691B7F1BE902A528016902A4A91B756
:10451000F1BE902A53800A902A4E91B7F1BE902A9C
:1045200054E0902A5FF0127116902A5FE0700FF548
:10453000FFF59675FF0175D70975F418805B901229
:104540000EE004F0902A56E0F1F5902A5B91B7FF57
:10455000902A571271C5C31220CA500A902A579147
:10456000B7FFA3122143902A5FE0FF126F96902AB3
:1045700055E0FFA3E0FDA24F924D126FF5A391B756
:10458000FF902CEF122143902A56E0FF12712390E6
:104590002A56E091AAFF126E3C1278B0600281EEBA
:1045A0007402F012793BF595E5F45407701B902ADC
:1045B0005BD12B78011220DB902A56E0FB1271B7F9
:1045C00012214391A9FF126E3C1278B070D575FF8D
:1045D00003759580126E78400343F420A24F924EEB
:1045E000127047902A5B91B72420FFEE344ED14DD4
:1045F000E4FB7A04F9F8D13B78011220DBC24C12BB
:104600006C37E4F5FFE5BD54F84404F5BD90121392
:104610007401F07E127F01E4FDEF2D127933FC90DE
:104620001213E02CF00DEDB412EF22FF7E04FDFC1E
:10463000E0F8A3E0F9A3E0FAA3E0FB121F7CE47B1F
:104640007DFAF9F8122007EF2401FFE43EFEE43D75
:10465000FDE43CFC22902B26126D58902B2C12214D
:104660004F00000001902B307401F0F5FFE5D554A8
:10467000C07004F1CD5002C322E4F5FF53967F755C
:10468000FF0175D5041267BB75FF0143D508E4F53A
:10469000FF5394FBF5FF53847FF5FF7598FF902B34
:1046A0002AE5F4F075F49C75FF01A3E5E4F075E4E8
:1046B000257B017A2B7930126D2A902B30E0640132
:1046C0006002E17FF5FF902B297414F0902B2C9160
:1046D000B7FF78011220EE902B2C122143E5A73072
:1046E000E1FB43A702902B2C91B7FFE5A730E00533
:1046F000E47B018002E4FBFAF9F8EF4BFFEE4AFE9F
:10470000ED49FDEC48FC902B2C122143902B29E025
:1047100014F070B8902B2C91B7FF78101220DB7B2F
:104720006D7A4E79C67841121F7CEF2439FFEE3442
:1047300030D14DE4FBFA7901F8122007EE547FFEE8
:10474000E4FDFC12735F902B2C91B7FFEB6FFFEA37
:104750006EFEE8CDEFCDCCEECCECFF902B26126BAD
:10476000ECEF121DF0902B26126BEC900001ED1275
:104770001E0290120FE030E606E4F5FF7596807594
:10478000FF01E4F5D5902B2AE0F5F475FF01A3E0D5
:10479000F5E4126FE4902B30E0B40103D38001C341
:1047A00022E5FA30E1FB75FC8075FF0153D5EFE49B
:1047B000F5FC75FC401267B4E5FC20E6FB22FF9097
:1047C0002A57022143C2EBA2ED9239C2EDE5F4C3B0
:1047D00030E701D32275FF01E5D530E602C322E4BC
:1047E000F5FF439A80EFF1F5E4F5FF539A7FD3226A
:1047F000E4F514611F33333354F8F5F4229002BA10
:10480000E0FCA3E04C700A9002BAEEF0A3EFF0D304
:1048100022C3229002BAE0FEA3E0FF4E6009CAEE76
:10482000CAC9EFC91222E52275FF02D2ADD2BD7509
:10483000FF02758E7175730975FF02E58E546F4422
:1048400080F58E22C0E0C0F0C083C082C0D075D099
:1048500008C0FF75FF02E58E30E42875FF02E58E83
:1048600054EF4410F58E900000E004F0E57330E062
:10487000020531E573700A75730990294C11A18006
:1048800002157375FF02E58530E40875FF02438564
:10489000100574D0FFD0D0D082D083D0F0D0E032D9
:1048A000E475F001021EC1902D5B1221BE7F011242
:1048B00030D311E224DA1239EA45F06024902D5BFE
:1048C00012219EC003C002C00111E224DA1239EAAB
:1048D000FFAEF0F58285F083D001D002D003122222
:1048E000E922902D5B12219EE922902DC4EEF0A3C7
:1048F000EFF01235F71239E85407FF64026005EF54
:1049000064037016313C25E0FBEC33FAEDAE04781D
:1049100003C333CE33CED8F9801C313CAE047803C8
:10492000C333CE33CED8F9FBAA06EDAE047805C367
:1049300033CE33CED8F92BFFEE3AFE22902DC4E0D1
:10494000FCA3E0FD22902DC6EEF0A3EFF0902CC367
:104950007401F0AE04AF0511EAAC06AD07902DC6A8
:10496000E0FEA3E0FF02196CE4902CC3F002197181
:104970001235F724BA123523FF7D01121B4231682C
:104980007F01021BF1902779E0D394004008E014E6
:10499000F0D39400500531681235FF22902CC37477
:1049A00001F0C006C007EDAE047803C333CE33CEAA
:1049B000D8F9FBAA06AE04ED7805C333CE33CED8C2
:1049C000F92BFDEE3AFCD007D00602196C7B017A78
:1049D0002779920219D0123FE5EE8FF0021F501294
:1049E00039E7FFAEF022902CDA12219E902D5E1254
:1049F00021BE902D5E3020205132FAC003C002C08B
:104A0000017B017A287936123DD9D001D002D0033A
:104A10007F041219A8C220225132FAC003C002C07A
:104A2000011230F6123DD9D001D002D0037F04022A
:104A300019A812219EE924B2F9E43A229237C23829
:104A400020372A303813E56E54F0FFBFF003536E61
:104A50000F7410256EF56E803CE56E540FFFBF0F8E
:104A600003536EF0056EE56E540FC4802830381382
:104A7000E56D54F0FFBFF003536D0F7410256DF515
:104A80006D8012E56D540FFFBF0F03536DF0056D80
:104A9000E56D540FC454F0FF22D237D2385140EFA5
:104AA00022C221D21E22AD72E4FF902ACD126F1CC9
:104AB0007F02121C00902AD771D7605A902ACDE04D
:104AC000FFA3E0FD902AD012219E902A911221BED0
:104AD000902AD3E0902A94F0902AD4E0902A95F07E
:104AE000902AD5E0FBA3E0902A96CBF0A3EBF090C0
:104AF0002AD712219E902A981221BE902ACFE0FB3D
:104B00001239F1902ADAEFF060037F0122902AD760
:104B100012219E121C0F51A17F0022902A9F122168
:104B2000BE902AA2EDF0A371D012352330E502D257
:104B3000217F02121C00902AAB71D7700261C590D0
:104B40002AABF10F1235234408121DF0902AA6E07B
:104B5000FEA3E0FF71CAE924E0123DAC902AA8123E
:104B6000219EC003C002C00171CAE924E2F9E43AFF
:104B7000FA1221E7902AA312219E121D55FBC003B1
:104B8000902A9F12219E902A911221BE902AA2E083
:104B9000902A94F0902AA371D0123523902A95F090
:104BA000E4A3F0A3F071CA902A981221BED003ADFD
:104BB00072E4FF1239F1902AAEEFF060037F012218
:104BC00071CA121C0F51A17F0022902AAB02219EB4
:104BD00012219EE92401221221BEEA494B22902A89
:104BE000AFB17D902ABA7403F0902AB7E05437F041
:104BF000E0FE5420902788F0902AB8E0FDA3E090D2
:104C00002771CDF0A3EDF091F090283B1221BE90DA
:104C10002AB6E0902789F0902AB012219E90277B37
:104C20001221BEEE442090277EF0E490283AF0C294
:104C30001DF56C902AB012219EAF6C1219E48F6C96
:104C4000EF602A7D03121B9740E9902AB6E0D394C7
:104C50001940037F0022AF6C121B925008902ABAB1
:104C60007401F08008902ABA7402F080C6902AB6C7
:104C7000E0D3948240037F00227F02121C00902A1E
:104C8000BB71D7605A902AAFE0FF902ABB12219ED9
:104C9000E924B6123DC4902AB7E0FE30E01BE49050
:104CA000278BF091F6EE6401A3F0A37460F07458C2
:104CB00091E2902ABAE0FF801E902ABAE0FF91F6B6
:104CC000902AB7E0902AEFF0902771E0FDA3E090E2
:104CD0002AF0CDF0ED91E27D02123C4A7F01227F65
:104CE0000022A3F0902ABB12219E902AF21221BE2C
:104CF000902AB302219E902AB6E0902AEEF02290EC
:104D00002BE81221BE902BECE05437F030E502D2B4
:104D100021902BECE04420FEF0C21DAB07C00390B5
:104D20002BE812219E902AD01221BE902BEBE0900E
:104D30002AD3F0A3EEF0902BED12782ED00341A6EB
:104D4000902B961221BE902B9AB172902BEBEDF026
:104D5000902B9A71D0123523902BECF0902B9D1252
:104D60006039902B9612219E91FFEF7F0060027FA9
:104D7000012212219E121D55FF22EEF0A3EFF0A397
:104D80000221BE51AA902774EFF022E4902774F01C
:104D9000EF604E902793E020E047A3E0C454F04436
:104DA00005902793F0A3E0FF54F0FEEF24FE540F8C
:104DB0004EF0EEC4540F2402FED19D1235F724BAF2
:104DC000123523FD1235F724B6123523FBC003B18B
:104DD000E2902AD01221BE902AD3EED1A5D003B101
:104DE00083227B017A27799322902D1B1221BE907A
:104DF0002774E06002C194D195240912352344013F
:104E0000121DF04402121DF0902D1BF19412352357
:104E1000FF540FFE902D1EF0EF54F0121DF054F0D1
:104E2000FFEE14540F4F121DF0121D55C4540FFF06
:104E3000902D1B12351DFEC39FFFC3EE9F240290D1
:104E40002D1EF0D394A2400374A2F0902D1EE0FF1B
:104E5000D195123DD3B1E21219A8902794E054F7EE
:104E6000F0D19D902D1BD1B3123523FBC003B1E2CD
:104E7000902AD01221BE902D1EE0902AD3D1A5D029
:104E800003AD72B1839002B0E07009902774E060C6
:104E900003121C0522902D1B12219EE922C21E9096
:104EA0002773E0FF22F0A37481F0A37450F0A37481
:104EB00023F02212219EE9240422902C871221BE85
:104EC000902C8A12219E7D05E4FF121985902C8773
:104ED00071D0123523FF902C8AF1A4902C8AF1ED29
:104EE000E4121DF0902C8712219EE924051235232F
:104EF000FF902C8AF10F123DC4902C87D1B312354C
:104F000023FF902C8A123FE2EF021DF0902B3C12FF
:104F1000219EE9240322902CDFB17D1235F74AC38C
:104F20006001D35025E924BC123523C4540FFF90EF
:104F30002CDFE0B507141235F724BA123523FF90A1
:104F40002CE0D1B31235236F6002C322E4902CE32E
:104F5000F0902CDFE0FF902CE3E0FEC39F50249004
:104F60002CE012219EF19BEEFF7E0029F18DFD12B7
:104F700035F724BDF1876D6002C322902CE3E00475
:104F8000F080CED322240BF9E43AFAE92FF9EE3A75
:104F9000FA021D5512219EE9240A22E9240BF9E4A4
:104FA0003AFA22FF12219EEF021DF0902C8112216D
:104FB000BEF1DEF1E6C003C002C001902C811221D7
:104FC0009E1221E7F1DE2408123523541F902C8411
:104FD000F1A3F1DE240812352354E0FF22FF788785
:104FE00012218CE922E92409F9E43AFA2212219EDD
:104FF000E92401F9E43AFA22EF540F24FE60161472
:10500000601714601824037019EF30E704740480EB
:105010000E7401800A740280067403800274051203
:105020001DF022E4902774F022114A601890277A2C
:10503000E0FEEF6E600F902774E0600C902835E082
:1050400054BFB50603D38001C322902835E0FF5436
:105050000F22902B3C1221BE1221C7902B4312210C
:10506000BE126455E4121DF0C21F902786F0902BEB
:105070004312219E123DD912589B7F041219A82079
:105080005F171230F61258937A27797512587F609D
:105090000812351A4480121DF012351A30E77D309F
:1050A0000629201877125871240512352320E76C41
:1050B000125871124FE6E924011235236403705C23
:1050C0001258711258861258797051E54364036082
:1050D0004BE543B40109902689E0C39402403D307A
:1050E000290E1258712405123523540F6405602CC3
:1050F000125871240512352320E702E185125871F8
:10510000240A12352312586B124F9CE92FF9EE1224
:10511000588A1230F612587F6002E18512587124C5
:1051200006123523540FFF902773E07E00B402026D
:105130007E80EF4E902835F01235F74A6047E9241B
:10514000B7123523FF7B017A2B793F124FF81235C6
:10515000F71239E85407FF1235F724B812352354F3
:105160000FFE902B3FE0540FFDBD04047D408002F4
:105170007D00EE4DFEEF7F00B402027F80EE4F9087
:10518000277AF0800690277A74FFF0125871240570
:10519000123523FF540F24FE7002C1AB147002E1DC
:1051A0005024FE7002E17A24046002E185902B43D2
:1051B00012351DFE740AD39E4006126455E4802FFA
:1051C000EF20E702C149902835E04440F0125871C1
:1051D000240A123523C4540F902B40F0600CE0FFDA
:1051E000D394045005740B9E4008126455748002D9
:1051F0001DF0125871240912352330E12530E322C5
:10520000902B4312351DFDEF240DFFE433FEC3ED5B
:10521000125FC3500D125871240912352354F7122E
:105220001DF01258712409123523902B4330E3529C
:10523000124F9412352312586B124F85FFC4540F2E
:1052400029F9EE3AFA124FF0C003C002C001124F22
:105250000CF9E43AFA1221E7125871240A123523A4
:10526000C4540FFFFD7C00125871124F9C125F2036
:10527000C4540FFE902B4312351DC39FC39E24F3CD
:105280008031124F9412352312586B124F9C1278B2
:1052900020C003C002C001124F0CF9E43AFA1221F7
:1052A000E7125871240A1235231278EB12351D24A7
:1052B000F4C39FFF902B3C1277E6123DC412587145
:1052C0002409123523FF30E10712351A44208009E2
:1052D000EF30E20812351A4440121DF012587124C2
:1052E000081235236572600261E8125871240A12AF
:1052F0003523540FFF902B40E06F6002619190279F
:1053000074E06002A1961258712405123523902B87
:105310003C30E60712351D440D800512351D440949
:10532000121DF0125871124F9C7E00E92F1277C89F
:10533000123DB612351A30E702A1961258712405B3
:1053400012352320E702A196125871240A12352340
:10535000C4540FFF125871124F85D394014002A11B
:1053600096E9240112352364036002A19612587154
:10537000240A123523C4540FFF125871124F9C1285
:105380007820E92403123DD57B01125F17D220A1BA
:1053900096125871240A123523540F640F6002A12B
:1053A00096125871240512352330E60812351A4436
:1053B00004121DF01129501B125871240A123523B2
:1053C0001278EB12219E124F16500812351A440122
:1053D000121DF0125871240B123523FF902B3C1232
:1053E000219E123FDAEFA109125871240A123523C7
:1053F000FF540FFDEFC4540FFCEDC39C4002A10EFF
:10540000125871124F9CED7E0029124F8D6572600B
:1054100002A10E125871240912352330E0691129B6
:10542000500912351A12777A7405F0EC14902B4358
:10543000B50505124EB3801112219E124F9BED7ED1
:105440000029F9EE3AFAE92401123523123DBAEDAA
:10545000600281E1125871240912352320E3028190
:10546000E1125871240A12352312586B124F8554D9
:105470000F706EE924011235235418606412351A36
:105480004404121DF0805AED902B437008124EB365
:10549000F9E43A800D12219E124F9BED7E002912F5
:1054A00077C8123DB6EC146D702F12587124091292
:1054B000352330E324125871240A12352312586B15
:1054C000124F85540F7012E9240112352354606085
:1054D0000812351A4404121DF0EC14B505031279B4
:1054E00043902774E06008902786E07002A196122E
:1054F00058712405123523902B3C30E60712351DD8
:105500004414800512351D4410121DF0A196125846
:1055100071240A123523540FFD1129507912587144
:10552000240912352330E033ED2402540FFD1258C4
:1055300071240A123523C4540FFFEDC39F50571234
:105540005871124F9CED7E0029124F8D6572704686
:1055500012351A12777A7401F0803BEDC394024041
:1055600035125871124F9CED24FEFFE434FFFEE922
:105570002FF9EA3EFA121D55B5720912351A127743
:105580007A7401F0125871240A123523FFC4540FA3
:10559000B50503127943125871240412352365723C
:1055A00060271235F74A60771235F724B212588F08
:1055B000125879706A1235F724B6123523FF125843
:1055C0007124041235236F705611295052125871EC
:1055D000240A123523FF540FFE1235F74A6040E9C2
:1055E00024BA123523FD12587124081235236D7028
:1055F0002E125871240912352330E016EFC4540FCF
:1056000024FE540F6E701812351A12777A7403F054
:10561000800DEEB4010912351A12777A7401F02068
:105620003302E18512351AFF6002E18512587124B8
:105630000A123523FEC4540FFDEE540F6D7002E1C3
:1056400085126455EF4480E175125871124FE6C01F
:1056500003C002C001124F0CF9E43AFA1221E7909C
:105660002B4312351D24F6FF902B3C1277E6123D9A
:10567000C41258712408123523FF65726006EFF4D6
:105680006002E18512351A4401121DF0125871248E
:1056900004123523123DBA12587124051235232005
:1056A000E602E18512351A4404E1751258712408A6
:1056B000123523541F12586E124FE6127820C00381
:1056C000C002C001124F0CF9E43AFA1221E7125855
:1056D000712408123523541FFF902B4312351D24CB
:1056E000F6C39FFF902B3C1277E6123DC41258710F
:1056F000240812352354E0FDE572D39D5002E18564
:10570000121D55541F75F008A42D127913D3E5729C
:10571000125FC35070125871240812352354E0FFF1
:10572000C3E5729F14FF125871124FE6EF13131363
:10573000541F29125F22FEEF5407FF7401A80708C7
:105740008002C333D8FC5E603C12351A44018025C8
:1057500012351A4402121DF0114A600990277AE0AE
:1057600054BF6F70201258712408123523B572157A
:1057700012351A4401121DF0800B902B3C12219E11
:10578000121BC4921F1258712405123523FF540FA7
:1057900064016003025862EF902B4330E712124F0E
:1057A0009412352312586B124F85902B42F08014BF
:1057B00012219EE92409123523902B42F0A31221D5
:1057C0009E124FE5E92401123523902B41F012354A
:1057D0001AFFAE4320060DEE64036008EE6401601C
:1057E00003025862EF546364017077902B42E0D358
:1057F0009401506630066B902B41E0FE64086062B5
:10580000EE64096004EEB40404EF30E755902B41D8
:10581000E064037045EF30E74930180A11711186D2
:10582000119B117F603C1171124FE6E9240412357F
:1058300023FF1171124FE6E924031235234FFF11A4
:1058400071124FE6E924051235234FFF1171124FF3
:10585000E6E924061235234F600812351A54EA127D
:105860001DF012351A30E002D21F22C4540FFF7E01
:1058700000902B4312219EE922902B4312219E7F00
:10588000041219ADEF222409F9E43AFAE92403F9E4
:10589000E43AFA902C540221BED2207B017A277977
:1058A00075229002B5E0FD902B50F13278871221DD
:1058B00095EDD394085002C161123520FFEDC39FCE
:1058C0005002C161E4788EF6900413E0902773F0E3
:1058D000121A2A902B50E0FEA3E07B012405D16828
:1058E000FF540F6401705BEF30E71D902B50A3E075
:1058F000FF240AD168C4540FFD7C00EF240BF9E4A7
:105900003EFAE92DF9EC8007124FDE2409F9E43A5A
:10591000FA124FF0902B571221BE902B57124D7256
:10592000601B64186017EF64076012EFB4031390F4
:105930002B57F100118F1230F6117F70057FFE1288
:105940001BBF7B007A007987125052124FDE24046D
:10595000123523902787F0788EE620E20241307FCF
:1059600001121C00902B52124BD770024130D162B1
:105970007F03123104124FDE240512352330E40D6B
:10598000D162E924B71235234410121DF0D162E927
:1059900024B1F107902B52F13D121F50D162E9243E
:1059A000DCF9E43AFA741875F02A121F50788FE681
:1059B000FFD162E924BA123DC4902B521239E4544B
:1059C000F8FF902773E0FDEF4DD16F124FDE2405F5
:1059D00012352330E50FD162E924B7123523442074
:1059E000121DF0803D788A12218C121D55640170C1
:1059F00031E9240112352364187027788DE6788AFE
:105A0000B4041012218CE92403123523FFF14D8FC9
:105A10001A800F12218CE92402123523FF1261A291
:105A20008F1AD162121C149002B0E07003121C0590
:105A3000303362124FDE240812352365726056122D
:105A40004FDE24041235236572604A902786E0FFFA
:105A500020E313788EE6FE20E43BEF20E237201FA0
:105A600034EE54E2702FD1804440F0D1D6902B55C3
:105A7000E0FF30E3047D00800A124FDE2408123577
:105A800023FEFD124FDE2404123523FBC003D1E3B5
:105A9000D003121B10201F02A135E490270FF0A3A2
:105AA000F0788EE6544264407072124FDE24091280
:105AB0003523124FDD240A123523FEEFC4540FFDA7
:105AC000EE54F0FEEF54F07887B5060A12218CE907
:105AD0002404F9E4800C12218C124F9BED7E0029E6
:105AE000F9EE3AFA121D55FF902710EFF01D124FF4
:105AF000DE124F9C7E00E92D124F8D90270FF09003
:105B00002CC7E07002A154E4F1291235F724BC122D
:105B1000352354F0FD7C00124945A154788EE620CF
:105B2000E10261FAE4F56C1235F724B7123523FF70
:105B3000540F6401707DEF30E76F1235F724D812EF
:105B40003523FFD3940A400A1235F724BC123523BB
:105B50008004902794E0902B56F0902B56E0FE5452
:105B60000FFDB40F028034EFD3940A40171235F7BB
:105B7000123FEDED75830029F9E5833AFA121D55C0
:105B8000F56C800D74952DF582E43427F583E0F5EE
:105B90006CEE54F0FFC4540FB5050A1235F724BA61
:105BA000123523F56CF1D9800A1235F724BA123573
:105BB00023F56C1235F74A7002A154124FDE24040B
:105BC000123523656C6008902786E07002A154D2DC
:105BD00056902DD0E56CF01219F8124FDE24051204
:105BE000352330E70E124FDE2409123523540624E4
:105BF000FF921C12352AC21CA154788EE6542264EE
:105C000020705A902CC7E07002A154124FDE240479
:105C1000123523FF6003B4EF1B1235F74A6015E914
:105C20002409123523B4030C90268AE0124FDD2498
:105C300004123DC4124FDE240512352330E70B1247
:105C40004FDE240912352320E40E124FDE24041205
:105C50003523FFD177121A16124970A154788EE6B7
:105C600030E402A154902786E030E202A154124FA2
:105C7000DE2408123523F4603FD1777B012405F937
:105C8000E43CFA121D55540FFFBF0203D38001C339
:105C90004026124FDE2405123523FF20E41A30E798
:105CA0000B124FDE240912352320E40C124FDE24A0
:105CB00004123523FF121A16788EE630E30A902B71
:105CC00050F10F7B01124DE9305F02A154D180E405
:105CD0009025B5F0788712218C121D55701CE9248F
:105CE000011235237014124FDE2402123523700A7C
:105CF000124FDE240312352360067E007F018004EC
:105D00007E007F00EF4E70079025B5E04401F0D192
:105D1000D6902B55E0FF30E3047D008004AE72ADD9
:105D200006124FDE2404123523FBC003D1E3D00357
:105D3000121B10801F902CC412219EEA494B601444
:105D4000902CC3E0600E90277FE06008121976E483
:105D500090277FF0788EE620E409902786E020E205
:105D600002C161902774E06002C15F902773E0F583
:105D70006C1199123DD9F117124FDE240A12352306
:105D8000FF540FFE124FDE2409123523FD30E024AC
:105D90001EEE7887B4FF0D12218CE92405123523FD
:105DA0004440800B12218CE9240512352354BF1284
:105DB0001DF08034EFC4540FFF146E702AED30E3F1
:105DC00026EFFD7C00124FDE124F9CF120540F7025
:105DD00016E924011235235460FF600BBF200543F0
:105DE0006C208003436C400E124FDE240A123523D0
:105DF00054F0FFEE540F4F121DF0788712218C12D1
:105E00003520FF740AD39F4005740A121DF0121D3D
:105E10005524F6124FDD123DD3124DE21219A8C2DD
:105E20001E124FDE2404123523FD124FDE24081209
:105E30003523FBC003124DE2902AD01221BE788791
:105E400012218C12352024F6902AD3F0A37481F00D
:105E5000A3744DF0A3748BF0D003AF6C024D83C2DA
:105E60002022902B5202219EF9E43EFA021D55FF9A
:105E7000E5F08FF0021F50902B50E0FCA3E0FD22D4
:105E8000D188902B55EFF022E4124FDD2405123516
:105E900023FD30E5037402FF788EE630E704EF441B
:105EA00080FFED540FFDBD0506EF4410FF8026BDB9
:105EB0000111124FDE2408123523B4FF18EF4404F9
:105EC000FF8012124FDE2405123523540FFDBD0250
:105ED00004EF4408FF227B017A2779807D06E4FFE6
:105EE000021985788A12218C902ADE1221BE788DC3
:105EF000E6902AE1F07B017A277980A30221BEFF98
:105F000012219EE9240222F9E43AFAE4021DF0E0AB
:105F1000FEA3E0AA06F9227A2879367F040219A89E
:105F2000E92DF9EC3AFA021D55902779F07E497F68
:105F30008522EEF0A3EFF0AA06F97B012212219E42
:105F4000E924DAF9E43AFA741B75F0F622F1CCFF91
:105F5000C3940E40027F0DEF9018CA93FF22EF30DA
:105F6000E303AF1322AD1B203A04EE30E00BE5173C
:105F7000C394F05020F1988018E51A6006FDE4F50E
:105F80001A8012E517C394F0500BE517540FFF6009
:105F900004F14DAD07AF0522900415E0FDFFC37479
:105FA0000E9FFFE49400FEEFC4F8540FC868FFEEA4
:105FB000C454F048FEE51754F0C3F1C37F0050020B
:105FC000AF05229FEE6480F874809822E517C454D0
:105FD0000FFEEF9018E8932E22902786E030E11212
:105FE0001278B99002B0F0E0D394F9400374F9F05C
:105FF000D2AD22EF54F84DFF22E94A600789828A28
:10600000831222E922902BF01221BE902BEFEFF0A9
:10601000121B9250037F0022902BEFE0FFA312216E
:106020009E902BF3E0902BEBF0902BF4E0902BEC78
:10603000F0902BF51139024CFFE0FDA3E0902BED21
:10604000CDF0A3EDF0221235F74A600BE9240212DD
:10605000352330E502D21D22EF600490283AF090FB
:10606000278BE0FF90277B12219E1219E490278B4B
:10607000EFF0604E201D4B902788E0C330E501D340
:10608000922190283B12219E902AD01221BE902767
:1060900089E0902AD3F090277E11CF7460F0A3742A
:1060A00058F090278BE0FB124AA6EF702190283A17
:1060B0007402F0902771E0FEA3E0F5828E837F02E8
:1060C000800990283AE090277111D61222E922E047
:1060D000902AD4F0A322FFE0FCA3E0FDF5828C839C
:1060E00022C003C002C001902B4912219E902AB306
:1060F0001221BE902B4CE0902AB6F0902B4DE090F0
:106100002AB7F0902B4EE0FFA3E0902AB8CFF0A37F
:10611000EFF0D001D002D003AF72024BDEE4900268
:10612000B0F022E490278AF0C21DC220902774F0BC
:10613000D21E221247CD5006314050028001C322A8
:10614000E5F754E024FF22AF14EFC36001D322EF40
:10615000C3940E5005900415EFF022E517540FFF7D
:1061600022E517C394F050205317F0125FCCFE7451
:106170000FC39F4005EE940E400543170D8003EFBB
:106180004217E517540FFF227F0022E51754F0C491
:10619000540F2FFFC3941040027F0FEF9018D89335
:1061A000FF227E10EE60091EEE9018D893B507F41A
:1061B000EEC3940E40027E0DEE9018CA93FF22901B
:1061C0000433EFF0900414E024FD601F04700E907F
:1061D00004347401F09004327404F0801990043493
:1061E0007401F09004327408F0800BE4900434F0F1
:1061F0009004327402F07F01121D4F900434E0FFCE
:10620000900432E0FDA3E0FBE4902C3EF012437FCB
:1062100050E9D3224315015315DF125F5E31BF40B1
:1062200004E4F514225315FBB1E4D32290042612A2
:106230004D7AC2EBE514600261E7E51530E202C376
:10624000221247CD5005C2511242D9D135E5D12095
:10625000E0FBE4F510900427E05407C39403E494B2
:1062600000502290042FE0FF90042BE02FFFE43336
:10627000FED3EF9440EE648094804009431504A25D
:106280003992EDD32290042C12219ECFE9CF8A11AE
:106290008F1290042FE0F516AE11126AC8900428F0
:1062A00012219E8B1C8A1D891E90042BE0F51F90E5
:1062B0000426E0FCA3E0FD54606032900430E0FF6F
:1062C000916390042812351DFB7A00900424E0FEAF
:1062D000A3E0FF7C007D17121E24EF2BFFEA3EFE99
:1062E000EF2414FBE43EFA7D027F0161CF90042687
:1062F000A3E05407900414F07514089004281221A8
:106300009E91AE90042BE0FFAD16B1FD900414E019
:106310006403702E7B01FD71F212351D913598508A
:106320000A90042891587401121D9BE4F5FFD14195
:1063300090042812351D2428FBE433FA7D03E4FF82
:1063400061CF900414E06402702871EF12351D9142
:106350003598400A900428915874FF121D9BD14A29
:1063600090042812351D2414FBE433FA7D027F01CA
:10637000805DE471EF12351D913598400A90042834
:10638000915874FF121D9BE4F5FF912D44104E7F30
:106390000560027F0AEF547FFFE5D254804FF5D2AB
:1063A000E4F5FF43D28090042812351DFD7C009156
:1063B0002D44104E7E0060047F0A80027F05EF2589
:1063C000E0FFEE33FEEF2DFBEE3CFA7D017F011284
:1063D000684A912DFF51144006A23992EDC322A2C2
:1063E0003992EDD2EBD322A23992EDD2EBC322FB4C
:1063F0007D01FF71F990042822E4F5FF75D102E5D3
:10640000D120E0FBE4F5FFF5D1EF6008E4F5FF43B0
:10641000D2808006E4F5FF53D27FEB6006E4F5FFFF
:1064200043D104ED6006E4F5FF43D1082290042631
:10643000E0FEA3E022FF90042FE0FD90042BE02D6E
:10644000FDE433FCED2401FDE43CFCD3EF9DEC6462
:1064500080F8748022902B3C12219EE92407F9E4F5
:106460003AFA22900438127853751401E4FBFDFFC8
:1064700071F97B017A04791691AEE4FD7F02B1FDDA
:10648000D14A9004167455F0900438E0900417F047
:106490009004147402F090043AE090042430E5076C
:1064A000E4F0A3743CF022E4F0A374F0F022E4F5ED
:1064B000FFE9126ABFEA540F42D622C0E0C0F0C022
:1064C00083C082C0D075D008C0FFD1568F18E518A0
:1064D0006402704FE51424F8603F24076002A1D7DE
:1064E0009004241277A37027AB1CAA1DA91E91AE9D
:1064F000AD16AF1FB1FDE4FB7D01FF71F975FF0023
:10650000D14143FA0475FF00B1EA751408A1D743DD
:10651000FA0475FF00B1EAA1D7C2EB751400431568
:1065200004A1D7E51864016002A1D71274274002C4
:10653000A1D7E5107054B1F1E0900447F01273A1B7
:1065400012681D900413EFF0900447E0FFD3940904
:106550004056900413E0D39402400CEFD394AA7FEA
:106560000040027F01800D900447E0D394407F00FB
:1065700040027F01EF6002802F900447E0FFF51694
:1065800075FF008FD9751003804DE51064037047C7
:10659000F5FF900413E0C39403E5D350055402FFC4
:1065A00080035401FFEF6004D10A802BC2511242D4
:1065B000D975FF00D138E5D120E0FBC2EB431502CD
:1065C000751000900413E0B403071516B1F1E51639
:1065D000F09002B5E516F0D0FFD0D0D082D083D0B5
:1065E000F0D0E03243FA04E4F5FF53D1FD43D1018A
:1065F00022E5122407F582E43511F58322E4F5FF44
:106600008FD4F5FFCFEDCF8FD522D130E5D120E06B
:10661000FBE4F5FF75D908900413E07F00B4030292
:106620007F011247D5B1E4D2511242D9E4F51022CC
:10663000C2511242D9E4F5FFE5D154FE4402F5D12E
:1066400022E5D254804414F5D222E4F5FFE5D25479
:1066500080440AF5D2227FFAD181E5FC30E60512AA
:10666000449E40F6E5FC30E6037F032275FF01E51A
:10667000D530E6037F0222E5D57F0030E7027F01B7
:10668000227E00F14375FF034391802275FF01E5EF
:10669000D520E702C322C252F160203B02E1305311
:1066A000F4DF902D67E0FF1247D575FF0143D81046
:1066B000303C0543F440800353F4BFE4F5FF53F549
:1066C000F0902D68E0FAA3E0FBEA42F5EBF5F6D294
:1066D00052F1607FC8D181E4F5FFE59320E6051211
:1066E000449E40F3303C5AE5F430E3047D288010AA
:1066F000E5F430E2047D288007E5F430E1027D28EE
:10670000F1B47F28D18112449E40FB7F78D1811261
:10671000449E502DF18150F7F1A8EFC39D50F0F148
:106720008150ECE5F720E5E7C252F160F1B480DF7B
:1067300053F4BF126E78400943F42075FF0153D81B
:10674000EFD32275FF03D3EF9402EE940040087458
:10675000FE2FFF74FF3EFEEFF592EE540FF59122EF
:10676000AFF4EF547FF5F4305205EF4480F5F47543
:10677000FF01E5D520E702C322E5F4D330E601C3EB
:106780002275FF01E5E43322E4FFE5F754C060021F
:10679000801675FF01E5D530E30DF18150F4F1A8C5
:1067A000EF60EFF18150EB2275FF01E4F5EA75EA45
:1067B000FFAFD92275FF03E4F591227F3FFEF1433D
:1067C000D18575FF03E59120E7FB2275FF01438E1C
:1067D0001075FF0153DB7F75FF0175D5027F14D162
:1067E00081F1C275FF01438E1075FF0143DB807597
:1067F000FF01E4F5D522C2AFEF4215D2AF22C2AFFE
:10680000EFF45215D2AF227F021267FE9002B4E07D
:106810009002BCF09002B404F0C3940222EF24FE74
:10682000600C24FE600580007F01227F02227F032E
:1068300022E51520E508126630E5D120E0FBE4F5FD
:106840001022900424E0A3E0FF2290043EEFF0ED3C
:1068500024FE60191460262402703BEB2402FFE43E
:106860003AFE7C007D50121E247D60801E11BEC346
:1068700033CE33CED8F9FF7C007D28800E11BEC305
:1068800033CE33CED8F9FF7C007D64121E369004DF
:106890003FEEF0A3EFF090043EE011C9C083C08248
:1068A000122137900440E02401FF90043FE03400BF
:1068B000FEE4FCFD121F6FD082D083022143EB2443
:1068C00001FFE43AFEEF78032225E025E02418F5E5
:1068D00082E43404F58322EF11C912211B02210145
:1068E000E4FFFEFDFC90041811F590041C11F590D6
:1068F0000420022143122143E4FFFEFDFC227F011C
:106900007E009017FCE4935EFE7401935F4E24FFBB
:10691000B322900001740193B40007E493B4180209
:10692000C322D322EF7011ED600775FF0143AE0162
:106930002275FF0153AEFE22EFB40110ED60077522
:10694000FF0143AE022275FF0153AEFD2275FF0227
:10695000E5E630E2037F0322E5E630E3037F002231
:10696000E5E630E1037F0422E5E67F0530E0027FC3
:106970000122EF600775FF0253E6BF2275FF024355
:10698000E64022EF14600F146014240270188B800C
:1069900075FF018DFD228B9075FF018DC9228BA0A3
:1069A00075FF018DCA22AF038FB075FF01AF058F50
:1069B000CB22902C271221BEEF14601414601E24E9
:1069C00002702731F8E58031FE12219EE5FD802519
:1069D00031F8E59031FE12219EE5C9801831F8E5C5
:1069E000A031FE12219EE5CA800B31F8E5B031FEE0
:1069F00012219EE5CB021DF0902C2A02219E121D31
:106A0000F075FF01902C2722E4F5FFAF9122E4F509
:106A1000FFAF922243FB1075FF0243E640EF600D8B
:106A200075FF02E5E120E7FB43FB0D800343FB0E0E
:106A300080FE902AC0E0121DF0902AC5E09000016F
:106A4000121E02902AC6E0900002021E02902C92B2
:106A50007405F0902C8F1221BEE4FCFDC007902C31
:106A60008F12219E902C92E0FF902BAFE4F0A3EFC9
:106A7000F0D00702281E902C361221BEE4FCFDC087
:106A800007902C3612219E902C395191D007022E5E
:106A9000E7E0FFA3E09029E4CFF0A3EFF022E4F5D4
:106AA000FF75D102E5D120E0FBE4F5D1F5FFEF5110
:106AB000BFEE540F42D6E4F5FFCFEDCF8FD422F5D1
:106AC000D7E4F5FF53D6F022E4F5FFEFF5D8E4F56F
:106AD000FF53D60FEE540FC4F854F0C8E4C4540F5B
:106AE0004842D622E4F5FF8FD422E4F5FFE5D154E5
:106AF0000133333354F8FFE4F5FFE5D354074FFF78
:106B0000227116AD94EF4D910C8FF0121F50E5914C
:106B1000C330E701D32275FF03AF93EF75F010A4E4
:106B2000FF22CDEFCDCCEECC7116AB94EF4B910C98
:106B3000CBEFCBFAE59130E71D7119A994E9F58205
:106B4000EF4582FFEB2DF582EA3CF583C3EF95829A
:106B5000E5F0958340DEE59120E709CEECCECFED60
:106B6000CF1267BE22902D2FEFF0A3B15875FF0111
:106B7000126656EF64016002C322E5F430E602C3F8
:106B8000227FE87E0312674312668571F540012279
:106B9000C2511242D9902D2FE0FF1247D553F4DF96
:106BA000D2511242D97F787E00712275FF0153E4E1
:106BB000BFE5E430E7FB75FF01E4F5EA75EAFF7F26
:106BC0008A911430E60571E9E4800775FF0171E9E7
:106BD000E5D9121DF075FF0143E440D1784003432D
:106BE000F42071F5400122D322902D30E0FBA3E088
:106BF000FAA3E0F922E5F730E510E5F754C0700597
:106C000012449E40F01267B4C322D32224FBFFE556
:106C1000F034FF22FE712290120FE022E4F5FF759E
:106C2000C2E17F1E911430E707E4F5FF75C2A1228F
:106C3000E4F5FF75C28122902A78122143E4F5FF22
:106C400075BB0575BB8575FF0175D502204C051216
:106C500067BB911C75FF0143D520304C02A104E4B1
:106C6000F5FF538EF7438E077D04E4F5FF8DBCF5E9
:106C7000FF43B102E5B130E2FBE4F5FFAFDFEFFE29
:106C8000ACDEECFBEBFFED25E02476F582E4342A64
:106C9000F583EEF0A3EFF0E4F5FFF5FF53B1FD0D42
:106CA000EDB40CC6902A781244B7FF78091220DBA5
:106CB000A3EEF0A3EFF0E4FDED25E02480F582E4FF
:106CC000342AF583E0C313FAA3E013FBEDB11ED120
:106CD000802BFFEE3AFEEDB11EEEF0A3EFF0ED24B7
:106CE0000490120DF0EDC394075019CFEDCF0DEFC6
:106CF000B11EE0FEA3E0FFC3902A7DE09F902A7CB6
:106D0000E09E50B4E4F5FF758EC8F5FF90120DE0DB
:106D1000F5BCE4F5FF75BB8075FF01F5D52225E0D4
:106D2000247EF582E4342AF58322902D64B1587FC5
:106D3000017C127D01E4FEED2EF582E43CF583E05A
:106D40002FFF0EEEB412F0901213E06F6009902D39
:106D50006471ECE4121DF022EBF0A3EAF0A3E9F079
:106D600022E4902D27F0A304F0E4902D2AF0E5FA18
:106D700030E1FB75FF01E5D530E7037F0022E4F544
:106D8000FF75E50875FF0153D8EFE5D530E61A75B4
:106D9000FF01902D29E5DAF0E4F5DA75FF01E5D67B
:106DA00030E3FB902D2A7401F075FF03759B047589
:106DB000FC4175FF03E59B30E7FBE4FB75FF038BAC
:106DC000951244A9FFD13C0BEBB403F075FF03759A
:106DD0009580E4F5FF758EC8911C75FF0153D5FBB6
:106DE0001267B47F141266811267C275FF0143D522
:106DF00004902D2AE0700B1267B47FC812668112CE
:106E000067C27B017A2D7928F13D902D28E0902DE5
:106E1000277006E04404FF8002E0FF902D27EFF08A
:106E200090120EE0B4010675FF0143D81075FF0102
:106E3000902D29E0F5DA902D27E0FF22902D2312E6
:106E4000214375FF01902D23A3E0FDA3A3E4FFFEE2
:106E5000E4FC78101220DB8FE1902D23A3A3E0FE49
:106E6000A3E4FFE4FDFC78081220DB8FE2902D23E1
:106E7000A3A3A3E0FF8FE32290120EE0D39401229C
:106E8000E0C313FEA3E01322902D57F119F102ACD9
:106E900000AD01AE02AF03C006C007902D57D180F0
:106EA000FBAA06E4F9F8D007D006D31220B47E007E
:106EB00050047F0180027F00C006C007F102D0E0CD
:106EC0002FFFD0E03E902D57F0A3EFF053ECFC9055
:106ED0002D57E0FCA3E0FDEC540342EC75FF02EDFE
:106EE000F5AF75ED0275ED04A3E0600543EC088095
:106EF0000353ECF7902D5AE0600443EC042253EC6A
:106F0000FB22902D57E0FEA3E0FBAA06E4F9F87FF0
:106F1000807E387D01FC02184EEEF0A3EFF0A3ED69
:106F2000F0A3EBF022C2ACE4F56BF56AF569F56706
:106F3000F568F5667B017D01D188D2AC22C24B7524
:106F4000FF03759B1F75FF0390120FE0FF20E71BE7
:106F5000E59A540FC394024012EF4480F0E4F5FF29
:106F600075C2A143FC0475FF03D24BE5FC30E60972
:106F7000E59A540FC3940540CCE5FC30E611E412C9
:106F80001DF075FC80F5FC75FC40E5FC20E6FB304F
:106F90004B0312460D22EF30E00E43F401E4F5FFFF
:106FA00043A404F5FF759624EF30E10E43F401E4A9
:106FB000F5FF43A408F5FF759624EF30E20943F48A
:106FC00002E4F5FF75961EEF30E30943F404E4F59F
:106FD000FF75961075FF01EF5403600475D71222F8
:106FE00075D72D22E4F5FF7584E6F5FF439404F58B
:106FF000FF75981422CCEFCCCFEDCF74017E00C882
:10700000EFC8088005C333CE33CED8F9FFCDECCD21
:10701000EF5D601B304D1875FF0175DCAD75FF012C
:1070200075DDCDE4F5FF759A74F5FF7594842275CE
:10703000FF0175DC5375FF0175DD33E4F5FF759ACB
:1070400014F5FF75940422E4F5FF75933F75FF0373
:10705000759A40126FE4E4F5FF759C93F5FF75A1F6
:10706000A3F5FF758531F5FF758628E5FA543044A0
:1070700080F5FA75FF0175E74A75FF0275DF4975FE
:10708000FF0143D30475FF0153D367E4F5FF53E6D3
:10709000BF75FF0175D825F5FF75B503F5FF75B20E
:1070A00015F5FF75BA02F5FF75AFB3F5FF75CD0A9B
:1070B000F5FF75CB08F5FF75CA12F5FF75BF0EF524
:1070C000FF75CC96F5FFF5BDF5FF75C281F5FF752F
:1070D000AEE1F5FF75DA55F5FF75F580F5FF75E959
:1070E00003F5FF75E933F5FF75972A75FF01759B69
:1070F00042759CA4759D29759E48759F2475A112A3
:1071000075A312759AF8204E0CF5FF4396809012E5
:107110000FE04440F02275FF0175E46575FF0175CD
:10712000D64722902CEEEFF0E4A312462B78011202
:1071300020DB902CEEE0FB31B7122143901210E0DF
:10714000FF64806071EFC3947F5039EB31B7C08327
:10715000C0821244B7FFEEC0E0EFC0E0901210E032
:1071600075F004A4AEF0FBCAEECAEA3395E0F9F874
:10717000D0E0FFD0E0FEC3EF9BFFEE9AFEED99FD5D
:10718000EC98802A902CEEE031B7C083C08231C5E4
:10719000901210E0F40475F004A4FFAEF0EE339505
:1071A000E0FDFCEB2FFFEA3EFEE93DFDE83CFCD0B4
:1071B00082D0831221432225E025E02401F582E4D8
:1071C0003412F58322E0F8A3E0F9A3E0FAA3E0FB90
:1071D00022902D2BEDF0901211E0FEF46006A3E05A
:1071E000FDB4FF0C902D2D7418F0A37413F08008DB
:1071F000902D2DEEF0A3EDF0121D5564016002619B
:1072000039902D2BE0FE64086004EEB40408902D44
:107210002C7428F08006902D2C743AF0EF1244AABA
:10722000FF1220A6E4713AEF24D8FFEE343FFEEDC2
:107230003493FDEC3416FC7B007A807903780012DD
:10724000184E715F902D2EE0FF902D2DE0C39FFF13
:10725000E49400FEE4FCFD121F7CECC0E0EDC0E015
:10726000EEC0E0EFC0E0902D2EE0FFE4FCFDFE71EB
:107270003AD0E0FBD0E0FAD0E0F9D0E0F8EB2FFB19
:10728000EA3EFAE93DF9E83CF8902D2CE0FFE4FCF9
:10729000FDFE121F7CEF2454FFEE340B12464DE42A
:1072A0007BA87A16F9F812184ECBEFCB902D2BE075
:1072B00014606114601B24FE600C24FC707BE4F5F8
:1072C000FF75CE318006E4F5FF75CE21F5FF8BCF3B
